{"contracts/Dao.sol":{"Dao":{"abi":[{"inputs":[{"internalType":"address","name":"_address","type":"address"}],"stateMutability":"nonpayable","type":"constructor"},{"anonymous":false,"inputs":[{"indexed":false,"internalType":"string","name":"message","type":"string"}],"name":"ProposalAccepted","type":"event"},{"anonymous":false,"inputs":[{"indexed":true,"internalType":"uint256","name":"proposalId","type":"uint256"},{"indexed":false,"internalType":"string","name":"desc","type":"string"},{"indexed":false,"internalType":"string[]","name":"_roles","type":"string[]"}],"name":"ProposalCreated","type":"event"},{"anonymous":false,"inputs":[{"indexed":false,"internalType":"string","name":"reject","type":"string"}],"name":"ProposalRejected","type":"event"},{"anonymous":false,"inputs":[{"indexed":true,"internalType":"address","name":"voter","type":"address"},{"indexed":true,"internalType":"uint256","name":"proposalId","type":"uint256"},{"indexed":false,"internalType":"string","name":"aim","type":"string"}],"name":"VoteCast","type":"event"},{"inputs":[],"name":"Tokens","outputs":[{"internalType":"contract DaoNFT","name":"","type":"address"}],"stateMutability":"view","type":"function"},{"inputs":[{"internalType":"address","name":"_address","type":"address"},{"internalType":"string","name":"employeeName","type":"string"},{"internalType":"string","name":"employeeRole","type":"string"}],"name":"addStuff","outputs":[],"stateMutability":"nonpayable","type":"function"},{"inputs":[{"internalType":"string","name":"_desc","type":"string"},{"internalType":"string[]","name":"_roles","type":"string[]"}],"name":"createProposal","outputs":[],"stateMutability":"nonpayable","type":"function"},{"inputs":[{"internalType":"uint256","name":"_proposalId","type":"uint256"}],"name":"executeProposal","outputs":[],"stateMutability":"nonpayable","type":"function"},{"inputs":[{"internalType":"address","name":"_address","type":"address"}],"name":"getEmployee","outputs":[{"internalType":"string","name":"","type":"string"},{"internalType":"string","name":"","type":"string"}],"stateMutability":"view","type":"function"},{"inputs":[{"internalType":"uint256","name":"_proposalId","type":"uint256"}],"name":"getRoles","outputs":[{"internalType":"string[]","name":"","type":"string[]"}],"stateMutability":"view","type":"function"},{"inputs":[{"internalType":"address","name":"_address","type":"address"},{"internalType":"uint256","name":"_proposalId","type":"uint256"}],"name":"isSuitable","outputs":[{"internalType":"bool","name":"","type":"bool"}],"stateMutability":"view","type":"function"},{"inputs":[{"internalType":"uint256","name":"","type":"uint256"}],"name":"proposals","outputs":[{"internalType":"string","name":"desc","type":"string"},{"internalType":"uint256","name":"votefor","type":"uint256"},{"internalType":"uint256","name":"voteagainst","type":"uint256"},{"internalType":"bool","name":"executed","type":"bool"}],"stateMutability":"view","type":"function"},{"inputs":[{"internalType":"address","name":"_employee","type":"address"}],"name":"removeEmployee","outputs":[],"stateMutability":"nonpayable","type":"function"},{"inputs":[{"internalType":"uint256","name":"","type":"uint256"}],"name":"stuff","outputs":[{"internalType":"address","name":"","type":"address"}],"stateMutability":"view","type":"function"},{"inputs":[{"internalType":"uint256","name":"_proposalId","type":"uint256"}],"name":"voteagainst","outputs":[],"stateMutability":"nonpayable","type":"function"},{"inputs":[{"internalType":"uint256","name":"_proposalId","type":"uint256"}],"name":"votefor","outputs":[],"stateMutability":"nonpayable","type":"function"},{"inputs":[{"internalType":"address","name":"","type":"address"},{"internalType":"uint256","name":"","type":"uint256"}],"name":"votes","outputs":[{"internalType":"bool","name":"","type":"bool"}],"stateMutability":"view","type":"function"}],"evm":{"bytecode":{"linkReferences":{},"object":"60806040523480156200001157600080fd5b506040516200290e3803806200290e833981810160405281019062000037919062000260565b806000806101000a81548173ffffffffffffffffffffffffffffffffffffffff021916908373ffffffffffffffffffffffffffffffffffffffff160217905550620000f4336040518060400160405280600581526020017f4d757261740000000000000000000000000000000000000000000000000000008152506040518060400160405280600881526020017f4469726563746f72000000000000000000000000000000000000000000000000815250620000fb60201b60201c565b5062000388565b60008054906101000a900473ffffffffffffffffffffffffffffffffffffffff1673ffffffffffffffffffffffffffffffffffffffff1663e0b73f3f8484846040518463ffffffff1660e01b81526004016200015a939291906200033d565b600060405180830381600087803b1580156200017557600080fd5b505af11580156200018a573d6000803e3d6000fd5b505050506001839080600181540180825580915050600190039060005260206000200160009091909190916101000a81548173ffffffffffffffffffffffffffffffffffffffff021916908373ffffffffffffffffffffffffffffffffffffffff160217905550505050565b600080fd5b600073ffffffffffffffffffffffffffffffffffffffff82169050919050565b60006200022882620001fb565b9050919050565b6200023a816200021b565b81146200024657600080fd5b50565b6000815190506200025a816200022f565b92915050565b600060208284031215620002795762000278620001f6565b5b6000620002898482850162000249565b91505092915050565b6200029d816200021b565b82525050565b600081519050919050565b600082825260208201905092915050565b60005b83811015620002df578082015181840152602081019050620002c2565b60008484015250505050565b6000601f19601f8301169050919050565b60006200030982620002a3565b620003158185620002ae565b935062000327818560208601620002bf565b6200033281620002eb565b840191505092915050565b600060608201905062000354600083018662000292565b8181036020830152620003688185620002fc565b905081810360408301526200037e8184620002fc565b9050949350505050565b61257680620003986000396000f3fe608060405234801561001057600080fd5b50600436106100cf5760003560e01c80636ca912021161008c5780639617ed98116100665780639617ed98146102125780639f2524ee14610242578063d108177a14610272578063fe644b8c1461028e576100cf565b80636ca91202146101aa57806387fcff0c146101c65780638fe1f092146101f6576100cf565b8063013cf08b146100d45780630cf283b1146101075780630d61b5191461012557806332648e09146101415780635b426bbb1461017257806362131fd71461018e575b600080fd5b6100ee60048036038101906100e991906114ee565b6102be565b6040516100fe94939291906115d5565b60405180910390f35b61010f610393565b60405161011c91906116a0565b60405180910390f35b61013f600480360381019061013a91906114ee565b6103b7565b005b61015b600480360381019061015691906116f9565b610533565b604051610169929190611726565b60405180910390f35b61018c600480360381019061018791906114ee565b61067d565b005b6101a860048036038101906101a391906114ee565b610967565b005b6101c460048036038101906101bf9190611978565b610c51565b005b6101e060048036038101906101db91906114ee565b610d60565b6040516101ed91906119ff565b60405180910390f35b610210600480360381019061020b9190611a1a565b610d9f565b005b61022c60048036038101906102279190611aa5565b610e96565b6040516102399190611ae5565b60405180910390f35b61025c60048036038101906102579190611aa5565b610fa3565b6040516102699190611ae5565b60405180910390f35b61028c600480360381019061028791906116f9565b610fd2565b005b6102a860048036038101906102a391906114ee565b6111fe565b6040516102b59190611c0c565b60405180910390f35b600381815481106102ce57600080fd5b90600052602060002090600502016000915090508060000180546102f190611c5d565b80601f016020809104026020016040519081016040528092919081815260200182805461031d90611c5d565b801561036a5780601f1061033f5761010080835404028352916020019161036a565b820191906000526020600020905b81548152906001019060200180831161034d57829003601f168201915b5050505050908060010154908060020154908060030160009054906101000a900460ff16905084565b60008054906101000a900473ffffffffffffffffffffffffffffffffffffffff1681565b60001515600382815481106103cf576103ce611c8e565b5b906000526020600020906005020160030160009054906101000a900460ff16151514610430576040517f08c379a000000000000000000000000000000000000000000000000000000000815260040161042790611d2f565b60405180910390fd5b6003818154811061044457610443611c8e565b5b9060005260206000209060050201600201546003828154811061046a57610469611c8e565b5b90600052602060002090600502016001015411156104fa5760016003828154811061049857610497611c8e565b5b906000526020600020906005020160030160006101000a81548160ff0219169083151502179055507f19cf08368c3c86aacb1be12c902a304c3b1d64e4f72e1aa33789a01f68ecab056040516104ed90611d9b565b60405180910390a1610530565b7f276f61830e554c29810d2d21d6523c691bef4a9634206a55fee98c24e62c9a0560405161052790611e2d565b60405180910390a15b50565b60608060008054906101000a900473ffffffffffffffffffffffffffffffffffffffff1673ffffffffffffffffffffffffffffffffffffffff1663a0b9009b846040518263ffffffff1660e01b815260040161058f91906119ff565b600060405180830381865afa1580156105ac573d6000803e3d6000fd5b505050506040513d6000823e3d601f19601f820116820180604052508101906105d59190611ebd565b60008054906101000a900473ffffffffffffffffffffffffffffffffffffffff1673ffffffffffffffffffffffffffffffffffffffff16633b622fa0856040518263ffffffff1660e01b815260040161062e91906119ff565b600060405180830381865afa15801561064b573d6000803e3d6000fd5b505050506040513d6000823e3d601f19601f820116820180604052508101906106749190611ebd565b91509150915091565b3373ffffffffffffffffffffffffffffffffffffffff1660008054906101000a900473ffffffffffffffffffffffffffffffffffffffff1673ffffffffffffffffffffffffffffffffffffffff16630d2425ae336040518263ffffffff1660e01b81526004016106ed91906119ff565b602060405180830381865afa15801561070a573d6000803e3d6000fd5b505050506040513d601f19601f8201168201806040525081019061072e9190611f1b565b73ffffffffffffffffffffffffffffffffffffffff1614610784576040517f08c379a000000000000000000000000000000000000000000000000000000000815260040161077b90611f94565b60405180910390fd5b60001515600260003373ffffffffffffffffffffffffffffffffffffffff1673ffffffffffffffffffffffffffffffffffffffff168152602001908152602001600020600083815260200190815260200160002060009054906101000a900460ff16151514610828576040517f08c379a000000000000000000000000000000000000000000000000000000000815260040161081f90612026565b60405180910390fd5b6108323382610e96565b610871576040517f08c379a000000000000000000000000000000000000000000000000000000000815260040161086890612092565b60405180910390fd5b6001600260003373ffffffffffffffffffffffffffffffffffffffff1673ffffffffffffffffffffffffffffffffffffffff168152602001908152602001600020600083815260200190815260200160002060006101000a81548160ff0219169083151502179055506001600382815481106108f0576108ef611c8e565b5b9060005260206000209060050201600101600082825461091091906120e1565b92505081905550803373ffffffffffffffffffffffffffffffffffffffff167f41aeb55eef25a94e94aeac300a628610ffa8099eb2bf991b3ae640d42233467d60405161095c90612161565b60405180910390a350565b3373ffffffffffffffffffffffffffffffffffffffff1660008054906101000a900473ffffffffffffffffffffffffffffffffffffffff1673ffffffffffffffffffffffffffffffffffffffff16630d2425ae336040518263ffffffff1660e01b81526004016109d791906119ff565b602060405180830381865afa1580156109f4573d6000803e3d6000fd5b505050506040513d601f19601f82011682018060405250810190610a189190611f1b565b73ffffffffffffffffffffffffffffffffffffffff1614610a6e576040517f08c379a0000000000000000000000000000000000000000000000000000000008152600401610a6590611f94565b60405180910390fd5b60001515600260003373ffffffffffffffffffffffffffffffffffffffff1673ffffffffffffffffffffffffffffffffffffffff168152602001908152602001600020600083815260200190815260200160002060009054906101000a900460ff16151514610b12576040517f08c379a0000000000000000000000000000000000000000000000000000000008152600401610b0990612026565b60405180910390fd5b610b1c3382610e96565b610b5b576040517f08c379a0000000000000000000000000000000000000000000000000000000008152600401610b5290612092565b60405180910390fd5b6001600260003373ffffffffffffffffffffffffffffffffffffffff1673ffffffffffffffffffffffffffffffffffffffff168152602001908152602001600020600083815260200190815260200160002060006101000a81548160ff021916908315150217905550600160038281548110610bda57610bd9611c8e565b5b90600052602060002090600502016002016000828254610bfa91906120e1565b92505081905550803373ffffffffffffffffffffffffffffffffffffffff167f41aeb55eef25a94e94aeac300a628610ffa8099eb2bf991b3ae640d42233467d604051610c46906121cd565b60405180910390a350565b60036040518060a0016040528084815260200160008152602001600081526020016000151581526020018381525090806001815401808255809150506001900390600052602060002090600502016000909190919091506000820151816000019081610cbd919061238f565b50602082015181600101556040820151816002015560608201518160030160006101000a81548160ff0219169083151502179055506080820151816004019080519060200190610d0e9291906113ca565b5050506001600380549050610d239190612461565b7f8956532d922732460ff2d895ae5e6ce4f8f166bc687aa580fa00a8ae14cb82038383604051610d54929190612495565b60405180910390a25050565b60018181548110610d7057600080fd5b906000526020600020016000915054906101000a900473ffffffffffffffffffffffffffffffffffffffff1681565b60008054906101000a900473ffffffffffffffffffffffffffffffffffffffff1673ffffffffffffffffffffffffffffffffffffffff1663e0b73f3f8484846040518463ffffffff1660e01b8152600401610dfc939291906124cc565b600060405180830381600087803b158015610e1657600080fd5b505af1158015610e2a573d6000803e3d6000fd5b505050506001839080600181540180825580915050600190039060005260206000200160009091909190916101000a81548173ffffffffffffffffffffffffffffffffffffffff021916908373ffffffffffffffffffffffffffffffffffffffff160217905550505050565b60008060008054906101000a900473ffffffffffffffffffffffffffffffffffffffff1673ffffffffffffffffffffffffffffffffffffffff16633b622fa0856040518263ffffffff1660e01b8152600401610ef291906119ff565b600060405180830381865afa158015610f0f573d6000803e3d6000fd5b505050506040513d6000823e3d601f19601f82011682018060405250810190610f389190611ebd565b90506000610f45846111fe565b905060005b8151811015610f9557610f77828281518110610f6957610f68611c8e565b5b602002602001015184611302565b15610f885760019350505050610f9d565b8080600101915050610f4a565b506000925050505b92915050565b60026020528160005260406000206020528060005260406000206000915091509054906101000a900460ff1681565b60008054906101000a900473ffffffffffffffffffffffffffffffffffffffff1673ffffffffffffffffffffffffffffffffffffffff16630a55cd02826040518263ffffffff1660e01b815260040161102b91906119ff565b600060405180830381600087803b15801561104557600080fd5b505af1158015611059573d6000803e3d6000fd5b5050505060005b6001805490508110156111fa578173ffffffffffffffffffffffffffffffffffffffff166001828154811061109857611097611c8e565b5b9060005260206000200160009054906101000a900473ffffffffffffffffffffffffffffffffffffffff1673ffffffffffffffffffffffffffffffffffffffff16036111ed5760008190505b6001805490508110156111a457600180826110ff91906120e1565b815481106111105761110f611c8e565b5b9060005260206000200160009054906101000a900473ffffffffffffffffffffffffffffffffffffffff166001828154811061114f5761114e611c8e565b5b9060005260206000200160006101000a81548173ffffffffffffffffffffffffffffffffffffffff021916908373ffffffffffffffffffffffffffffffffffffffff16021790555080806001019150506110e4565b5060018054806111b7576111b6612511565b5b6001900381819060005260206000200160006101000a81549073ffffffffffffffffffffffffffffffffffffffff021916905590555b8080600101915050611060565b5050565b606060006003838154811061121657611215611c8e565b5b9060005260206000209060050201905080600401805480602002602001604051908101604052809291908181526020016000905b828210156112f657838290600052602060002001805461126990611c5d565b80601f016020809104026020016040519081016040528092919081815260200182805461129590611c5d565b80156112e25780601f106112b7576101008083540402835291602001916112e2565b820191906000526020600020905b8154815290600101906020018083116112c557829003601f168201915b50505050508152602001906001019061124a565b50505050915050919050565b6000815183511461131657600090506113c4565b60005b83518110156113be5782818151811061133557611334611c8e565b5b602001015160f81c60f81b7effffffffffffffffffffffffffffffffffffffffffffffffffffffffffffff191684828151811061137557611374611c8e565b5b602001015160f81c60f81b7effffffffffffffffffffffffffffffffffffffffffffffffffffffffffffff1916146113b15760009150506113c4565b8080600101915050611319565b50600190505b92915050565b828054828255906000526020600020908101928215611412579160200282015b82811115611411578251829081611401919061238f565b50916020019190600101906113ea565b5b50905061141f9190611423565b5090565b5b80821115611443576000818161143a9190611447565b50600101611424565b5090565b50805461145390611c5d565b6000825580601f106114655750611484565b601f0160209004906000526020600020908101906114839190611487565b5b50565b5b808211156114a0576000816000905550600101611488565b5090565b6000604051905090565b600080fd5b600080fd5b6000819050919050565b6114cb816114b8565b81146114d657600080fd5b50565b6000813590506114e8816114c2565b92915050565b600060208284031215611504576115036114ae565b5b6000611512848285016114d9565b91505092915050565b600081519050919050565b600082825260208201905092915050565b60005b8381101561155557808201518184015260208101905061153a565b60008484015250505050565b6000601f19601f8301169050919050565b600061157d8261151b565b6115878185611526565b9350611597818560208601611537565b6115a081611561565b840191505092915050565b6115b4816114b8565b82525050565b60008115159050919050565b6115cf816115ba565b82525050565b600060808201905081810360008301526115ef8187611572565b90506115fe60208301866115ab565b61160b60408301856115ab565b61161860608301846115c6565b95945050505050565b600073ffffffffffffffffffffffffffffffffffffffff82169050919050565b6000819050919050565b600061166661166161165c84611621565b611641565b611621565b9050919050565b60006116788261164b565b9050919050565b600061168a8261166d565b9050919050565b61169a8161167f565b82525050565b60006020820190506116b56000830184611691565b92915050565b60006116c682611621565b9050919050565b6116d6816116bb565b81146116e157600080fd5b50565b6000813590506116f3816116cd565b92915050565b60006020828403121561170f5761170e6114ae565b5b600061171d848285016116e4565b91505092915050565b600060408201905081810360008301526117408185611572565b905081810360208301526117548184611572565b90509392505050565b600080fd5b600080fd5b7f4e487b7100000000000000000000000000000000000000000000000000000000600052604160045260246000fd5b61179f82611561565b810181811067ffffffffffffffff821117156117be576117bd611767565b5b80604052505050565b60006117d16114a4565b90506117dd8282611796565b919050565b600067ffffffffffffffff8211156117fd576117fc611767565b5b61180682611561565b9050602081019050919050565b82818337600083830152505050565b6000611835611830846117e2565b6117c7565b90508281526020810184848401111561185157611850611762565b5b61185c848285611813565b509392505050565b600082601f8301126118795761187861175d565b5b8135611889848260208601611822565b91505092915050565b600067ffffffffffffffff8211156118ad576118ac611767565b5b602082029050602081019050919050565b600080fd5b60006118d66118d184611892565b6117c7565b905080838252602082019050602084028301858111156118f9576118f86118be565b5b835b8181101561194057803567ffffffffffffffff81111561191e5761191d61175d565b5b80860161192b8982611864565b855260208501945050506020810190506118fb565b5050509392505050565b600082601f83011261195f5761195e61175d565b5b813561196f8482602086016118c3565b91505092915050565b6000806040838503121561198f5761198e6114ae565b5b600083013567ffffffffffffffff8111156119ad576119ac6114b3565b5b6119b985828601611864565b925050602083013567ffffffffffffffff8111156119da576119d96114b3565b5b6119e68582860161194a565b9150509250929050565b6119f9816116bb565b82525050565b6000602082019050611a1460008301846119f0565b92915050565b600080600060608486031215611a3357611a326114ae565b5b6000611a41868287016116e4565b935050602084013567ffffffffffffffff811115611a6257611a616114b3565b5b611a6e86828701611864565b925050604084013567ffffffffffffffff811115611a8f57611a8e6114b3565b5b611a9b86828701611864565b9150509250925092565b60008060408385031215611abc57611abb6114ae565b5b6000611aca858286016116e4565b9250506020611adb858286016114d9565b9150509250929050565b6000602082019050611afa60008301846115c6565b92915050565b600081519050919050565b600082825260208201905092915050565b6000819050602082019050919050565b600082825260208201905092915050565b6000611b488261151b565b611b528185611b2c565b9350611b62818560208601611537565b611b6b81611561565b840191505092915050565b6000611b828383611b3d565b905092915050565b6000602082019050919050565b6000611ba282611b00565b611bac8185611b0b565b935083602082028501611bbe85611b1c565b8060005b85811015611bfa5784840389528151611bdb8582611b76565b9450611be683611b8a565b925060208a01995050600181019050611bc2565b50829750879550505050505092915050565b60006020820190508181036000830152611c268184611b97565b905092915050565b7f4e487b7100000000000000000000000000000000000000000000000000000000600052602260045260246000fd5b60006002820490506001821680611c7557607f821691505b602082108103611c8857611c87611c2e565b5b50919050565b7f4e487b7100000000000000000000000000000000000000000000000000000000600052603260045260246000fd5b7f50726f706f73616c2068617320616c7265616479206265656e2065786563757460008201527f6564000000000000000000000000000000000000000000000000000000000000602082015250565b6000611d19602283611526565b9150611d2482611cbd565b604082019050919050565b60006020820190508181036000830152611d4881611d0c565b9050919050565b7f50726f706f73616c20686173206265656e20617070726f766564000000000000600082015250565b6000611d85601a83611526565b9150611d9082611d4f565b602082019050919050565b60006020820190508181036000830152611db481611d78565b9050919050565b7f50726f706f73616c20686173206e6f74206265656e20617070726f766564206260008201527f79206d616a6f7269747920766f74650000000000000000000000000000000000602082015250565b6000611e17602f83611526565b9150611e2282611dbb565b604082019050919050565b60006020820190508181036000830152611e4681611e0a565b9050919050565b6000611e60611e5b846117e2565b6117c7565b905082815260208101848484011115611e7c57611e7b611762565b5b611e87848285611537565b509392505050565b600082601f830112611ea457611ea361175d565b5b8151611eb4848260208601611e4d565b91505092915050565b600060208284031215611ed357611ed26114ae565b5b600082015167ffffffffffffffff811115611ef157611ef06114b3565b5b611efd84828501611e8f565b91505092915050565b600081519050611f15816116cd565b92915050565b600060208284031215611f3157611f306114ae565b5b6000611f3f84828501611f06565b91505092915050565b7f4f6e6c79206d656d626572732063616e20766f74650000000000000000000000600082015250565b6000611f7e601583611526565b9150611f8982611f48565b602082019050919050565b60006020820190508181036000830152611fad81611f71565b9050919050565b7f596f75206861766520616c726561647920766f74656420666f7220746869732060008201527f70726f706f73616c000000000000000000000000000000000000000000000000602082015250565b6000612010602883611526565b915061201b82611fb4565b604082019050919050565b6000602082019050818103600083015261203f81612003565b9050919050565b7f596f75277265206e6f7420706572746d697474656420746f20766f74652e0000600082015250565b600061207c601e83611526565b915061208782612046565b602082019050919050565b600060208201905081810360008301526120ab8161206f565b9050919050565b7f4e487b7100000000000000000000000000000000000000000000000000000000600052601160045260246000fd5b60006120ec826114b8565b91506120f7836114b8565b925082820190508082111561210f5761210e6120b2565b5b92915050565b7f666f720000000000000000000000000000000000000000000000000000000000600082015250565b600061214b600383611526565b915061215682612115565b602082019050919050565b6000602082019050818103600083015261217a8161213e565b9050919050565b7f616761696e737400000000000000000000000000000000000000000000000000600082015250565b60006121b7600783611526565b91506121c282612181565b602082019050919050565b600060208201905081810360008301526121e6816121aa565b9050919050565b60008190508160005260206000209050919050565b60006020601f8301049050919050565b600082821b905092915050565b60006008830261224f7fffffffffffffffffffffffffffffffffffffffffffffffffffffffffffffffff82612212565b6122598683612212565b95508019841693508086168417925050509392505050565b600061228c612287612282846114b8565b611641565b6114b8565b9050919050565b6000819050919050565b6122a683612271565b6122ba6122b282612293565b84845461221f565b825550505050565b600090565b6122cf6122c2565b6122da81848461229d565b505050565b5b818110156122fe576122f36000826122c7565b6001810190506122e0565b5050565b601f82111561234357612314816121ed565b61231d84612202565b8101602085101561232c578190505b61234061233885612202565b8301826122df565b50505b505050565b600082821c905092915050565b600061236660001984600802612348565b1980831691505092915050565b600061237f8383612355565b9150826002028217905092915050565b6123988261151b565b67ffffffffffffffff8111156123b1576123b0611767565b5b6123bb8254611c5d565b6123c6828285612302565b600060209050601f8311600181146123f957600084156123e7578287015190505b6123f18582612373565b865550612459565b601f198416612407866121ed565b60005b8281101561242f5784890151825560018201915060208501945060208101905061240a565b8683101561244c5784890151612448601f891682612355565b8355505b6001600288020188555050505b505050505050565b600061246c826114b8565b9150612477836114b8565b925082820390508181111561248f5761248e6120b2565b5b92915050565b600060408201905081810360008301526124af8185611572565b905081810360208301526124c38184611b97565b90509392505050565b60006060820190506124e160008301866119f0565b81810360208301526124f38185611572565b905081810360408301526125078184611572565b9050949350505050565b7f4e487b7100000000000000000000000000000000000000000000000000000000600052603160045260246000fdfea26469706673582212208aed1cb13930b674d8ecc31de2bb2d1d3db2e004e825ad13fd0afc1978ecdd8e64736f6c63430008180033","opcodes":"PUSH1 0x80 PUSH1 0x40 MSTORE CALLVALUE DUP1 ISZERO PUSH3 0x11 JUMPI PUSH1 0x0 DUP1 REVERT JUMPDEST POP PUSH1 0x40 MLOAD PUSH3 0x290E CODESIZE SUB DUP1 PUSH3 0x290E DUP4 CODECOPY DUP2 DUP2 ADD PUSH1 0x40 MSTORE DUP2 ADD SWAP1 PUSH3 0x37 SWAP2 SWAP1 PUSH3 0x260 JUMP JUMPDEST DUP1 PUSH1 0x0 DUP1 PUSH2 0x100 EXP DUP2 SLOAD DUP2 PUSH20 0xFFFFFFFFFFFFFFFFFFFFFFFFFFFFFFFFFFFFFFFF MUL NOT AND SWAP1 DUP4 PUSH20 0xFFFFFFFFFFFFFFFFFFFFFFFFFFFFFFFFFFFFFFFF AND MUL OR SWAP1 SSTORE POP PUSH3 0xF4 CALLER PUSH1 0x40 MLOAD DUP1 PUSH1 0x40 ADD PUSH1 0x40 MSTORE DUP1 PUSH1 0x5 DUP2 MSTORE PUSH1 0x20 ADD PUSH32 0x4D75726174000000000000000000000000000000000000000000000000000000 DUP2 MSTORE POP PUSH1 0x40 MLOAD DUP1 PUSH1 0x40 ADD PUSH1 0x40 MSTORE DUP1 PUSH1 0x8 DUP2 MSTORE PUSH1 0x20 ADD PUSH32 0x4469726563746F72000000000000000000000000000000000000000000000000 DUP2 MSTORE POP PUSH3 0xFB PUSH1 0x20 SHL PUSH1 0x20 SHR JUMP JUMPDEST POP PUSH3 0x388 JUMP JUMPDEST PUSH1 0x0 DUP1 SLOAD SWAP1 PUSH2 0x100 EXP SWAP1 DIV PUSH20 0xFFFFFFFFFFFFFFFFFFFFFFFFFFFFFFFFFFFFFFFF AND PUSH20 0xFFFFFFFFFFFFFFFFFFFFFFFFFFFFFFFFFFFFFFFF AND PUSH4 0xE0B73F3F DUP5 DUP5 DUP5 PUSH1 0x40 MLOAD DUP5 PUSH4 0xFFFFFFFF AND PUSH1 0xE0 SHL DUP2 MSTORE PUSH1 0x4 ADD PUSH3 0x15A SWAP4 SWAP3 SWAP2 SWAP1 PUSH3 0x33D JUMP JUMPDEST PUSH1 0x0 PUSH1 0x40 MLOAD DUP1 DUP4 SUB DUP2 PUSH1 0x0 DUP8 DUP1 EXTCODESIZE ISZERO DUP1 ISZERO PUSH3 0x175 JUMPI PUSH1 0x0 DUP1 REVERT JUMPDEST POP GAS CALL ISZERO DUP1 ISZERO PUSH3 0x18A JUMPI RETURNDATASIZE PUSH1 0x0 DUP1 RETURNDATACOPY RETURNDATASIZE PUSH1 0x0 REVERT JUMPDEST POP POP POP POP PUSH1 0x1 DUP4 SWAP1 DUP1 PUSH1 0x1 DUP2 SLOAD ADD DUP1 DUP3 SSTORE DUP1 SWAP2 POP POP PUSH1 0x1 SWAP1 SUB SWAP1 PUSH1 0x0 MSTORE PUSH1 0x20 PUSH1 0x0 KECCAK256 ADD PUSH1 0x0 SWAP1 SWAP2 SWAP1 SWAP2 SWAP1 SWAP2 PUSH2 0x100 EXP DUP2 SLOAD DUP2 PUSH20 0xFFFFFFFFFFFFFFFFFFFFFFFFFFFFFFFFFFFFFFFF MUL NOT AND SWAP1 DUP4 PUSH20 0xFFFFFFFFFFFFFFFFFFFFFFFFFFFFFFFFFFFFFFFF AND MUL OR SWAP1 SSTORE POP POP POP POP JUMP JUMPDEST PUSH1 0x0 DUP1 REVERT JUMPDEST PUSH1 0x0 PUSH20 0xFFFFFFFFFFFFFFFFFFFFFFFFFFFFFFFFFFFFFFFF DUP3 AND SWAP1 POP SWAP2 SWAP1 POP JUMP JUMPDEST PUSH1 0x0 PUSH3 0x228 DUP3 PUSH3 0x1FB JUMP JUMPDEST SWAP1 POP SWAP2 SWAP1 POP JUMP JUMPDEST PUSH3 0x23A DUP2 PUSH3 0x21B JUMP JUMPDEST DUP2 EQ PUSH3 0x246 JUMPI PUSH1 0x0 DUP1 REVERT JUMPDEST POP JUMP JUMPDEST PUSH1 0x0 DUP2 MLOAD SWAP1 POP PUSH3 0x25A DUP2 PUSH3 0x22F JUMP JUMPDEST SWAP3 SWAP2 POP POP JUMP JUMPDEST PUSH1 0x0 PUSH1 0x20 DUP3 DUP5 SUB SLT ISZERO PUSH3 0x279 JUMPI PUSH3 0x278 PUSH3 0x1F6 JUMP JUMPDEST JUMPDEST PUSH1 0x0 PUSH3 0x289 DUP5 DUP3 DUP6 ADD PUSH3 0x249 JUMP JUMPDEST SWAP2 POP POP SWAP3 SWAP2 POP POP JUMP JUMPDEST PUSH3 0x29D DUP2 PUSH3 0x21B JUMP JUMPDEST DUP3 MSTORE POP POP JUMP JUMPDEST PUSH1 0x0 DUP2 MLOAD SWAP1 POP SWAP2 SWAP1 POP JUMP JUMPDEST PUSH1 0x0 DUP3 DUP3 MSTORE PUSH1 0x20 DUP3 ADD SWAP1 POP SWAP3 SWAP2 POP POP JUMP JUMPDEST PUSH1 0x0 JUMPDEST DUP4 DUP2 LT ISZERO PUSH3 0x2DF JUMPI DUP1 DUP3 ADD MLOAD DUP2 DUP5 ADD MSTORE PUSH1 0x20 DUP2 ADD SWAP1 POP PUSH3 0x2C2 JUMP JUMPDEST PUSH1 0x0 DUP5 DUP5 ADD MSTORE POP POP POP POP JUMP JUMPDEST PUSH1 0x0 PUSH1 0x1F NOT PUSH1 0x1F DUP4 ADD AND SWAP1 POP SWAP2 SWAP1 POP JUMP JUMPDEST PUSH1 0x0 PUSH3 0x309 DUP3 PUSH3 0x2A3 JUMP JUMPDEST PUSH3 0x315 DUP2 DUP6 PUSH3 0x2AE JUMP JUMPDEST SWAP4 POP PUSH3 0x327 DUP2 DUP6 PUSH1 0x20 DUP7 ADD PUSH3 0x2BF JUMP JUMPDEST PUSH3 0x332 DUP2 PUSH3 0x2EB JUMP JUMPDEST DUP5 ADD SWAP2 POP POP SWAP3 SWAP2 POP POP JUMP JUMPDEST PUSH1 0x0 PUSH1 0x60 DUP3 ADD SWAP1 POP PUSH3 0x354 PUSH1 0x0 DUP4 ADD DUP7 PUSH3 0x292 JUMP JUMPDEST DUP2 DUP2 SUB PUSH1 0x20 DUP4 ADD MSTORE PUSH3 0x368 DUP2 DUP6 PUSH3 0x2FC JUMP JUMPDEST SWAP1 POP DUP2 DUP2 SUB PUSH1 0x40 DUP4 ADD MSTORE PUSH3 0x37E DUP2 DUP5 PUSH3 0x2FC JUMP JUMPDEST SWAP1 POP SWAP5 SWAP4 POP POP POP POP JUMP JUMPDEST PUSH2 0x2576 DUP1 PUSH3 0x398 PUSH1 0x0 CODECOPY PUSH1 0x0 RETURN INVALID PUSH1 0x80 PUSH1 0x40 MSTORE CALLVALUE DUP1 ISZERO PUSH2 0x10 JUMPI PUSH1 0x0 DUP1 REVERT JUMPDEST POP PUSH1 0x4 CALLDATASIZE LT PUSH2 0xCF JUMPI PUSH1 0x0 CALLDATALOAD PUSH1 0xE0 SHR DUP1 PUSH4 0x6CA91202 GT PUSH2 0x8C JUMPI DUP1 PUSH4 0x9617ED98 GT PUSH2 0x66 JUMPI DUP1 PUSH4 0x9617ED98 EQ PUSH2 0x212 JUMPI DUP1 PUSH4 0x9F2524EE EQ PUSH2 0x242 JUMPI DUP1 PUSH4 0xD108177A EQ PUSH2 0x272 JUMPI DUP1 PUSH4 0xFE644B8C EQ PUSH2 0x28E JUMPI PUSH2 0xCF JUMP JUMPDEST DUP1 PUSH4 0x6CA91202 EQ PUSH2 0x1AA JUMPI DUP1 PUSH4 0x87FCFF0C EQ PUSH2 0x1C6 JUMPI DUP1 PUSH4 0x8FE1F092 EQ PUSH2 0x1F6 JUMPI PUSH2 0xCF JUMP JUMPDEST DUP1 PUSH4 0x13CF08B EQ PUSH2 0xD4 JUMPI DUP1 PUSH4 0xCF283B1 EQ PUSH2 0x107 JUMPI DUP1 PUSH4 0xD61B519 EQ PUSH2 0x125 JUMPI DUP1 PUSH4 0x32648E09 EQ PUSH2 0x141 JUMPI DUP1 PUSH4 0x5B426BBB EQ PUSH2 0x172 JUMPI DUP1 PUSH4 0x62131FD7 EQ PUSH2 0x18E JUMPI JUMPDEST PUSH1 0x0 DUP1 REVERT JUMPDEST PUSH2 0xEE PUSH1 0x4 DUP1 CALLDATASIZE SUB DUP2 ADD SWAP1 PUSH2 0xE9 SWAP2 SWAP1 PUSH2 0x14EE JUMP JUMPDEST PUSH2 0x2BE JUMP JUMPDEST PUSH1 0x40 MLOAD PUSH2 0xFE SWAP5 SWAP4 SWAP3 SWAP2 SWAP1 PUSH2 0x15D5 JUMP JUMPDEST PUSH1 0x40 MLOAD DUP1 SWAP2 SUB SWAP1 RETURN JUMPDEST PUSH2 0x10F PUSH2 0x393 JUMP JUMPDEST PUSH1 0x40 MLOAD PUSH2 0x11C SWAP2 SWAP1 PUSH2 0x16A0 JUMP JUMPDEST PUSH1 0x40 MLOAD DUP1 SWAP2 SUB SWAP1 RETURN JUMPDEST PUSH2 0x13F PUSH1 0x4 DUP1 CALLDATASIZE SUB DUP2 ADD SWAP1 PUSH2 0x13A SWAP2 SWAP1 PUSH2 0x14EE JUMP JUMPDEST PUSH2 0x3B7 JUMP JUMPDEST STOP JUMPDEST PUSH2 0x15B PUSH1 0x4 DUP1 CALLDATASIZE SUB DUP2 ADD SWAP1 PUSH2 0x156 SWAP2 SWAP1 PUSH2 0x16F9 JUMP JUMPDEST PUSH2 0x533 JUMP JUMPDEST PUSH1 0x40 MLOAD PUSH2 0x169 SWAP3 SWAP2 SWAP1 PUSH2 0x1726 JUMP JUMPDEST PUSH1 0x40 MLOAD DUP1 SWAP2 SUB SWAP1 RETURN JUMPDEST PUSH2 0x18C PUSH1 0x4 DUP1 CALLDATASIZE SUB DUP2 ADD SWAP1 PUSH2 0x187 SWAP2 SWAP1 PUSH2 0x14EE JUMP JUMPDEST PUSH2 0x67D JUMP JUMPDEST STOP JUMPDEST PUSH2 0x1A8 PUSH1 0x4 DUP1 CALLDATASIZE SUB DUP2 ADD SWAP1 PUSH2 0x1A3 SWAP2 SWAP1 PUSH2 0x14EE JUMP JUMPDEST PUSH2 0x967 JUMP JUMPDEST STOP JUMPDEST PUSH2 0x1C4 PUSH1 0x4 DUP1 CALLDATASIZE SUB DUP2 ADD SWAP1 PUSH2 0x1BF SWAP2 SWAP1 PUSH2 0x1978 JUMP JUMPDEST PUSH2 0xC51 JUMP JUMPDEST STOP JUMPDEST PUSH2 0x1E0 PUSH1 0x4 DUP1 CALLDATASIZE SUB DUP2 ADD SWAP1 PUSH2 0x1DB SWAP2 SWAP1 PUSH2 0x14EE JUMP JUMPDEST PUSH2 0xD60 JUMP JUMPDEST PUSH1 0x40 MLOAD PUSH2 0x1ED SWAP2 SWAP1 PUSH2 0x19FF JUMP JUMPDEST PUSH1 0x40 MLOAD DUP1 SWAP2 SUB SWAP1 RETURN JUMPDEST PUSH2 0x210 PUSH1 0x4 DUP1 CALLDATASIZE SUB DUP2 ADD SWAP1 PUSH2 0x20B SWAP2 SWAP1 PUSH2 0x1A1A JUMP JUMPDEST PUSH2 0xD9F JUMP JUMPDEST STOP JUMPDEST PUSH2 0x22C PUSH1 0x4 DUP1 CALLDATASIZE SUB DUP2 ADD SWAP1 PUSH2 0x227 SWAP2 SWAP1 PUSH2 0x1AA5 JUMP JUMPDEST PUSH2 0xE96 JUMP JUMPDEST PUSH1 0x40 MLOAD PUSH2 0x239 SWAP2 SWAP1 PUSH2 0x1AE5 JUMP JUMPDEST PUSH1 0x40 MLOAD DUP1 SWAP2 SUB SWAP1 RETURN JUMPDEST PUSH2 0x25C PUSH1 0x4 DUP1 CALLDATASIZE SUB DUP2 ADD SWAP1 PUSH2 0x257 SWAP2 SWAP1 PUSH2 0x1AA5 JUMP JUMPDEST PUSH2 0xFA3 JUMP JUMPDEST PUSH1 0x40 MLOAD PUSH2 0x269 SWAP2 SWAP1 PUSH2 0x1AE5 JUMP JUMPDEST PUSH1 0x40 MLOAD DUP1 SWAP2 SUB SWAP1 RETURN JUMPDEST PUSH2 0x28C PUSH1 0x4 DUP1 CALLDATASIZE SUB DUP2 ADD SWAP1 PUSH2 0x287 SWAP2 SWAP1 PUSH2 0x16F9 JUMP JUMPDEST PUSH2 0xFD2 JUMP JUMPDEST STOP JUMPDEST PUSH2 0x2A8 PUSH1 0x4 DUP1 CALLDATASIZE SUB DUP2 ADD SWAP1 PUSH2 0x2A3 SWAP2 SWAP1 PUSH2 0x14EE JUMP JUMPDEST PUSH2 0x11FE JUMP JUMPDEST PUSH1 0x40 MLOAD PUSH2 0x2B5 SWAP2 SWAP1 PUSH2 0x1C0C JUMP JUMPDEST PUSH1 0x40 MLOAD DUP1 SWAP2 SUB SWAP1 RETURN JUMPDEST PUSH1 0x3 DUP2 DUP2 SLOAD DUP2 LT PUSH2 0x2CE JUMPI PUSH1 0x0 DUP1 REVERT JUMPDEST SWAP1 PUSH1 0x0 MSTORE PUSH1 0x20 PUSH1 0x0 KECCAK256 SWAP1 PUSH1 0x5 MUL ADD PUSH1 0x0 SWAP2 POP SWAP1 POP DUP1 PUSH1 0x0 ADD DUP1 SLOAD PUSH2 0x2F1 SWAP1 PUSH2 0x1C5D JUMP JUMPDEST DUP1 PUSH1 0x1F ADD PUSH1 0x20 DUP1 SWAP2 DIV MUL PUSH1 0x20 ADD PUSH1 0x40 MLOAD SWAP1 DUP2 ADD PUSH1 0x40 MSTORE DUP1 SWAP3 SWAP2 SWAP1 DUP2 DUP2 MSTORE PUSH1 0x20 ADD DUP3 DUP1 SLOAD PUSH2 0x31D SWAP1 PUSH2 0x1C5D JUMP JUMPDEST DUP1 ISZERO PUSH2 0x36A JUMPI DUP1 PUSH1 0x1F LT PUSH2 0x33F JUMPI PUSH2 0x100 DUP1 DUP4 SLOAD DIV MUL DUP4 MSTORE SWAP2 PUSH1 0x20 ADD SWAP2 PUSH2 0x36A JUMP JUMPDEST DUP3 ADD SWAP2 SWAP1 PUSH1 0x0 MSTORE PUSH1 0x20 PUSH1 0x0 KECCAK256 SWAP1 JUMPDEST DUP2 SLOAD DUP2 MSTORE SWAP1 PUSH1 0x1 ADD SWAP1 PUSH1 0x20 ADD DUP1 DUP4 GT PUSH2 0x34D JUMPI DUP3 SWAP1 SUB PUSH1 0x1F AND DUP3 ADD SWAP2 JUMPDEST POP POP POP POP POP SWAP1 DUP1 PUSH1 0x1 ADD SLOAD SWAP1 DUP1 PUSH1 0x2 ADD SLOAD SWAP1 DUP1 PUSH1 0x3 ADD PUSH1 0x0 SWAP1 SLOAD SWAP1 PUSH2 0x100 EXP SWAP1 DIV PUSH1 0xFF AND SWAP1 POP DUP5 JUMP JUMPDEST PUSH1 0x0 DUP1 SLOAD SWAP1 PUSH2 0x100 EXP SWAP1 DIV PUSH20 0xFFFFFFFFFFFFFFFFFFFFFFFFFFFFFFFFFFFFFFFF AND DUP2 JUMP JUMPDEST PUSH1 0x0 ISZERO ISZERO PUSH1 0x3 DUP3 DUP2 SLOAD DUP2 LT PUSH2 0x3CF JUMPI PUSH2 0x3CE PUSH2 0x1C8E JUMP JUMPDEST JUMPDEST SWAP1 PUSH1 0x0 MSTORE PUSH1 0x20 PUSH1 0x0 KECCAK256 SWAP1 PUSH1 0x5 MUL ADD PUSH1 0x3 ADD PUSH1 0x0 SWAP1 SLOAD SWAP1 PUSH2 0x100 EXP SWAP1 DIV PUSH1 0xFF AND ISZERO ISZERO EQ PUSH2 0x430 JUMPI PUSH1 0x40 MLOAD PUSH32 0x8C379A000000000000000000000000000000000000000000000000000000000 DUP2 MSTORE PUSH1 0x4 ADD PUSH2 0x427 SWAP1 PUSH2 0x1D2F JUMP JUMPDEST PUSH1 0x40 MLOAD DUP1 SWAP2 SUB SWAP1 REVERT JUMPDEST PUSH1 0x3 DUP2 DUP2 SLOAD DUP2 LT PUSH2 0x444 JUMPI PUSH2 0x443 PUSH2 0x1C8E JUMP JUMPDEST JUMPDEST SWAP1 PUSH1 0x0 MSTORE PUSH1 0x20 PUSH1 0x0 KECCAK256 SWAP1 PUSH1 0x5 MUL ADD PUSH1 0x2 ADD SLOAD PUSH1 0x3 DUP3 DUP2 SLOAD DUP2 LT PUSH2 0x46A JUMPI PUSH2 0x469 PUSH2 0x1C8E JUMP JUMPDEST JUMPDEST SWAP1 PUSH1 0x0 MSTORE PUSH1 0x20 PUSH1 0x0 KECCAK256 SWAP1 PUSH1 0x5 MUL ADD PUSH1 0x1 ADD SLOAD GT ISZERO PUSH2 0x4FA JUMPI PUSH1 0x1 PUSH1 0x3 DUP3 DUP2 SLOAD DUP2 LT PUSH2 0x498 JUMPI PUSH2 0x497 PUSH2 0x1C8E JUMP JUMPDEST JUMPDEST SWAP1 PUSH1 0x0 MSTORE PUSH1 0x20 PUSH1 0x0 KECCAK256 SWAP1 PUSH1 0x5 MUL ADD PUSH1 0x3 ADD PUSH1 0x0 PUSH2 0x100 EXP DUP2 SLOAD DUP2 PUSH1 0xFF MUL NOT AND SWAP1 DUP4 ISZERO ISZERO MUL OR SWAP1 SSTORE POP PUSH32 0x19CF08368C3C86AACB1BE12C902A304C3B1D64E4F72E1AA33789A01F68ECAB05 PUSH1 0x40 MLOAD PUSH2 0x4ED SWAP1 PUSH2 0x1D9B JUMP JUMPDEST PUSH1 0x40 MLOAD DUP1 SWAP2 SUB SWAP1 LOG1 PUSH2 0x530 JUMP JUMPDEST PUSH32 0x276F61830E554C29810D2D21D6523C691BEF4A9634206A55FEE98C24E62C9A05 PUSH1 0x40 MLOAD PUSH2 0x527 SWAP1 PUSH2 0x1E2D JUMP JUMPDEST PUSH1 0x40 MLOAD DUP1 SWAP2 SUB SWAP1 LOG1 JUMPDEST POP JUMP JUMPDEST PUSH1 0x60 DUP1 PUSH1 0x0 DUP1 SLOAD SWAP1 PUSH2 0x100 EXP SWAP1 DIV PUSH20 0xFFFFFFFFFFFFFFFFFFFFFFFFFFFFFFFFFFFFFFFF AND PUSH20 0xFFFFFFFFFFFFFFFFFFFFFFFFFFFFFFFFFFFFFFFF AND PUSH4 0xA0B9009B DUP5 PUSH1 0x40 MLOAD DUP3 PUSH4 0xFFFFFFFF AND PUSH1 0xE0 SHL DUP2 MSTORE PUSH1 0x4 ADD PUSH2 0x58F SWAP2 SWAP1 PUSH2 0x19FF JUMP JUMPDEST PUSH1 0x0 PUSH1 0x40 MLOAD DUP1 DUP4 SUB DUP2 DUP7 GAS STATICCALL ISZERO DUP1 ISZERO PUSH2 0x5AC JUMPI RETURNDATASIZE PUSH1 0x0 DUP1 RETURNDATACOPY RETURNDATASIZE PUSH1 0x0 REVERT JUMPDEST POP POP POP POP PUSH1 0x40 MLOAD RETURNDATASIZE PUSH1 0x0 DUP3 RETURNDATACOPY RETURNDATASIZE PUSH1 0x1F NOT PUSH1 0x1F DUP3 ADD AND DUP3 ADD DUP1 PUSH1 0x40 MSTORE POP DUP2 ADD SWAP1 PUSH2 0x5D5 SWAP2 SWAP1 PUSH2 0x1EBD JUMP JUMPDEST PUSH1 0x0 DUP1 SLOAD SWAP1 PUSH2 0x100 EXP SWAP1 DIV PUSH20 0xFFFFFFFFFFFFFFFFFFFFFFFFFFFFFFFFFFFFFFFF AND PUSH20 0xFFFFFFFFFFFFFFFFFFFFFFFFFFFFFFFFFFFFFFFF AND PUSH4 0x3B622FA0 DUP6 PUSH1 0x40 MLOAD DUP3 PUSH4 0xFFFFFFFF AND PUSH1 0xE0 SHL DUP2 MSTORE PUSH1 0x4 ADD PUSH2 0x62E SWAP2 SWAP1 PUSH2 0x19FF JUMP JUMPDEST PUSH1 0x0 PUSH1 0x40 MLOAD DUP1 DUP4 SUB DUP2 DUP7 GAS STATICCALL ISZERO DUP1 ISZERO PUSH2 0x64B JUMPI RETURNDATASIZE PUSH1 0x0 DUP1 RETURNDATACOPY RETURNDATASIZE PUSH1 0x0 REVERT JUMPDEST POP POP POP POP PUSH1 0x40 MLOAD RETURNDATASIZE PUSH1 0x0 DUP3 RETURNDATACOPY RETURNDATASIZE PUSH1 0x1F NOT PUSH1 0x1F DUP3 ADD AND DUP3 ADD DUP1 PUSH1 0x40 MSTORE POP DUP2 ADD SWAP1 PUSH2 0x674 SWAP2 SWAP1 PUSH2 0x1EBD JUMP JUMPDEST SWAP2 POP SWAP2 POP SWAP2 POP SWAP2 JUMP JUMPDEST CALLER PUSH20 0xFFFFFFFFFFFFFFFFFFFFFFFFFFFFFFFFFFFFFFFF AND PUSH1 0x0 DUP1 SLOAD SWAP1 PUSH2 0x100 EXP SWAP1 DIV PUSH20 0xFFFFFFFFFFFFFFFFFFFFFFFFFFFFFFFFFFFFFFFF AND PUSH20 0xFFFFFFFFFFFFFFFFFFFFFFFFFFFFFFFFFFFFFFFF AND PUSH4 0xD2425AE CALLER PUSH1 0x40 MLOAD DUP3 PUSH4 0xFFFFFFFF AND PUSH1 0xE0 SHL DUP2 MSTORE PUSH1 0x4 ADD PUSH2 0x6ED SWAP2 SWAP1 PUSH2 0x19FF JUMP JUMPDEST PUSH1 0x20 PUSH1 0x40 MLOAD DUP1 DUP4 SUB DUP2 DUP7 GAS STATICCALL ISZERO DUP1 ISZERO PUSH2 0x70A JUMPI RETURNDATASIZE PUSH1 0x0 DUP1 RETURNDATACOPY RETURNDATASIZE PUSH1 0x0 REVERT JUMPDEST POP POP POP POP PUSH1 0x40 MLOAD RETURNDATASIZE PUSH1 0x1F NOT PUSH1 0x1F DUP3 ADD AND DUP3 ADD DUP1 PUSH1 0x40 MSTORE POP DUP2 ADD SWAP1 PUSH2 0x72E SWAP2 SWAP1 PUSH2 0x1F1B JUMP JUMPDEST PUSH20 0xFFFFFFFFFFFFFFFFFFFFFFFFFFFFFFFFFFFFFFFF AND EQ PUSH2 0x784 JUMPI PUSH1 0x40 MLOAD PUSH32 0x8C379A000000000000000000000000000000000000000000000000000000000 DUP2 MSTORE PUSH1 0x4 ADD PUSH2 0x77B SWAP1 PUSH2 0x1F94 JUMP JUMPDEST PUSH1 0x40 MLOAD DUP1 SWAP2 SUB SWAP1 REVERT JUMPDEST PUSH1 0x0 ISZERO ISZERO PUSH1 0x2 PUSH1 0x0 CALLER PUSH20 0xFFFFFFFFFFFFFFFFFFFFFFFFFFFFFFFFFFFFFFFF AND PUSH20 0xFFFFFFFFFFFFFFFFFFFFFFFFFFFFFFFFFFFFFFFF AND DUP2 MSTORE PUSH1 0x20 ADD SWAP1 DUP2 MSTORE PUSH1 0x20 ADD PUSH1 0x0 KECCAK256 PUSH1 0x0 DUP4 DUP2 MSTORE PUSH1 0x20 ADD SWAP1 DUP2 MSTORE PUSH1 0x20 ADD PUSH1 0x0 KECCAK256 PUSH1 0x0 SWAP1 SLOAD SWAP1 PUSH2 0x100 EXP SWAP1 DIV PUSH1 0xFF AND ISZERO ISZERO EQ PUSH2 0x828 JUMPI PUSH1 0x40 MLOAD PUSH32 0x8C379A000000000000000000000000000000000000000000000000000000000 DUP2 MSTORE PUSH1 0x4 ADD PUSH2 0x81F SWAP1 PUSH2 0x2026 JUMP JUMPDEST PUSH1 0x40 MLOAD DUP1 SWAP2 SUB SWAP1 REVERT JUMPDEST PUSH2 0x832 CALLER DUP3 PUSH2 0xE96 JUMP JUMPDEST PUSH2 0x871 JUMPI PUSH1 0x40 MLOAD PUSH32 0x8C379A000000000000000000000000000000000000000000000000000000000 DUP2 MSTORE PUSH1 0x4 ADD PUSH2 0x868 SWAP1 PUSH2 0x2092 JUMP JUMPDEST PUSH1 0x40 MLOAD DUP1 SWAP2 SUB SWAP1 REVERT JUMPDEST PUSH1 0x1 PUSH1 0x2 PUSH1 0x0 CALLER PUSH20 0xFFFFFFFFFFFFFFFFFFFFFFFFFFFFFFFFFFFFFFFF AND PUSH20 0xFFFFFFFFFFFFFFFFFFFFFFFFFFFFFFFFFFFFFFFF AND DUP2 MSTORE PUSH1 0x20 ADD SWAP1 DUP2 MSTORE PUSH1 0x20 ADD PUSH1 0x0 KECCAK256 PUSH1 0x0 DUP4 DUP2 MSTORE PUSH1 0x20 ADD SWAP1 DUP2 MSTORE PUSH1 0x20 ADD PUSH1 0x0 KECCAK256 PUSH1 0x0 PUSH2 0x100 EXP DUP2 SLOAD DUP2 PUSH1 0xFF MUL NOT AND SWAP1 DUP4 ISZERO ISZERO MUL OR SWAP1 SSTORE POP PUSH1 0x1 PUSH1 0x3 DUP3 DUP2 SLOAD DUP2 LT PUSH2 0x8F0 JUMPI PUSH2 0x8EF PUSH2 0x1C8E JUMP JUMPDEST JUMPDEST SWAP1 PUSH1 0x0 MSTORE PUSH1 0x20 PUSH1 0x0 KECCAK256 SWAP1 PUSH1 0x5 MUL ADD PUSH1 0x1 ADD PUSH1 0x0 DUP3 DUP3 SLOAD PUSH2 0x910 SWAP2 SWAP1 PUSH2 0x20E1 JUMP JUMPDEST SWAP3 POP POP DUP2 SWAP1 SSTORE POP DUP1 CALLER PUSH20 0xFFFFFFFFFFFFFFFFFFFFFFFFFFFFFFFFFFFFFFFF AND PUSH32 0x41AEB55EEF25A94E94AEAC300A628610FFA8099EB2BF991B3AE640D42233467D PUSH1 0x40 MLOAD PUSH2 0x95C SWAP1 PUSH2 0x2161 JUMP JUMPDEST PUSH1 0x40 MLOAD DUP1 SWAP2 SUB SWAP1 LOG3 POP JUMP JUMPDEST CALLER PUSH20 0xFFFFFFFFFFFFFFFFFFFFFFFFFFFFFFFFFFFFFFFF AND PUSH1 0x0 DUP1 SLOAD SWAP1 PUSH2 0x100 EXP SWAP1 DIV PUSH20 0xFFFFFFFFFFFFFFFFFFFFFFFFFFFFFFFFFFFFFFFF AND PUSH20 0xFFFFFFFFFFFFFFFFFFFFFFFFFFFFFFFFFFFFFFFF AND PUSH4 0xD2425AE CALLER PUSH1 0x40 MLOAD DUP3 PUSH4 0xFFFFFFFF AND PUSH1 0xE0 SHL DUP2 MSTORE PUSH1 0x4 ADD PUSH2 0x9D7 SWAP2 SWAP1 PUSH2 0x19FF JUMP JUMPDEST PUSH1 0x20 PUSH1 0x40 MLOAD DUP1 DUP4 SUB DUP2 DUP7 GAS STATICCALL ISZERO DUP1 ISZERO PUSH2 0x9F4 JUMPI RETURNDATASIZE PUSH1 0x0 DUP1 RETURNDATACOPY RETURNDATASIZE PUSH1 0x0 REVERT JUMPDEST POP POP POP POP PUSH1 0x40 MLOAD RETURNDATASIZE PUSH1 0x1F NOT PUSH1 0x1F DUP3 ADD AND DUP3 ADD DUP1 PUSH1 0x40 MSTORE POP DUP2 ADD SWAP1 PUSH2 0xA18 SWAP2 SWAP1 PUSH2 0x1F1B JUMP JUMPDEST PUSH20 0xFFFFFFFFFFFFFFFFFFFFFFFFFFFFFFFFFFFFFFFF AND EQ PUSH2 0xA6E JUMPI PUSH1 0x40 MLOAD PUSH32 0x8C379A000000000000000000000000000000000000000000000000000000000 DUP2 MSTORE PUSH1 0x4 ADD PUSH2 0xA65 SWAP1 PUSH2 0x1F94 JUMP JUMPDEST PUSH1 0x40 MLOAD DUP1 SWAP2 SUB SWAP1 REVERT JUMPDEST PUSH1 0x0 ISZERO ISZERO PUSH1 0x2 PUSH1 0x0 CALLER PUSH20 0xFFFFFFFFFFFFFFFFFFFFFFFFFFFFFFFFFFFFFFFF AND PUSH20 0xFFFFFFFFFFFFFFFFFFFFFFFFFFFFFFFFFFFFFFFF AND DUP2 MSTORE PUSH1 0x20 ADD SWAP1 DUP2 MSTORE PUSH1 0x20 ADD PUSH1 0x0 KECCAK256 PUSH1 0x0 DUP4 DUP2 MSTORE PUSH1 0x20 ADD SWAP1 DUP2 MSTORE PUSH1 0x20 ADD PUSH1 0x0 KECCAK256 PUSH1 0x0 SWAP1 SLOAD SWAP1 PUSH2 0x100 EXP SWAP1 DIV PUSH1 0xFF AND ISZERO ISZERO EQ PUSH2 0xB12 JUMPI PUSH1 0x40 MLOAD PUSH32 0x8C379A000000000000000000000000000000000000000000000000000000000 DUP2 MSTORE PUSH1 0x4 ADD PUSH2 0xB09 SWAP1 PUSH2 0x2026 JUMP JUMPDEST PUSH1 0x40 MLOAD DUP1 SWAP2 SUB SWAP1 REVERT JUMPDEST PUSH2 0xB1C CALLER DUP3 PUSH2 0xE96 JUMP JUMPDEST PUSH2 0xB5B JUMPI PUSH1 0x40 MLOAD PUSH32 0x8C379A000000000000000000000000000000000000000000000000000000000 DUP2 MSTORE PUSH1 0x4 ADD PUSH2 0xB52 SWAP1 PUSH2 0x2092 JUMP JUMPDEST PUSH1 0x40 MLOAD DUP1 SWAP2 SUB SWAP1 REVERT JUMPDEST PUSH1 0x1 PUSH1 0x2 PUSH1 0x0 CALLER PUSH20 0xFFFFFFFFFFFFFFFFFFFFFFFFFFFFFFFFFFFFFFFF AND PUSH20 0xFFFFFFFFFFFFFFFFFFFFFFFFFFFFFFFFFFFFFFFF AND DUP2 MSTORE PUSH1 0x20 ADD SWAP1 DUP2 MSTORE PUSH1 0x20 ADD PUSH1 0x0 KECCAK256 PUSH1 0x0 DUP4 DUP2 MSTORE PUSH1 0x20 ADD SWAP1 DUP2 MSTORE PUSH1 0x20 ADD PUSH1 0x0 KECCAK256 PUSH1 0x0 PUSH2 0x100 EXP DUP2 SLOAD DUP2 PUSH1 0xFF MUL NOT AND SWAP1 DUP4 ISZERO ISZERO MUL OR SWAP1 SSTORE POP PUSH1 0x1 PUSH1 0x3 DUP3 DUP2 SLOAD DUP2 LT PUSH2 0xBDA JUMPI PUSH2 0xBD9 PUSH2 0x1C8E JUMP JUMPDEST JUMPDEST SWAP1 PUSH1 0x0 MSTORE PUSH1 0x20 PUSH1 0x0 KECCAK256 SWAP1 PUSH1 0x5 MUL ADD PUSH1 0x2 ADD PUSH1 0x0 DUP3 DUP3 SLOAD PUSH2 0xBFA SWAP2 SWAP1 PUSH2 0x20E1 JUMP JUMPDEST SWAP3 POP POP DUP2 SWAP1 SSTORE POP DUP1 CALLER PUSH20 0xFFFFFFFFFFFFFFFFFFFFFFFFFFFFFFFFFFFFFFFF AND PUSH32 0x41AEB55EEF25A94E94AEAC300A628610FFA8099EB2BF991B3AE640D42233467D PUSH1 0x40 MLOAD PUSH2 0xC46 SWAP1 PUSH2 0x21CD JUMP JUMPDEST PUSH1 0x40 MLOAD DUP1 SWAP2 SUB SWAP1 LOG3 POP JUMP JUMPDEST PUSH1 0x3 PUSH1 0x40 MLOAD DUP1 PUSH1 0xA0 ADD PUSH1 0x40 MSTORE DUP1 DUP5 DUP2 MSTORE PUSH1 0x20 ADD PUSH1 0x0 DUP2 MSTORE PUSH1 0x20 ADD PUSH1 0x0 DUP2 MSTORE PUSH1 0x20 ADD PUSH1 0x0 ISZERO ISZERO DUP2 MSTORE PUSH1 0x20 ADD DUP4 DUP2 MSTORE POP SWAP1 DUP1 PUSH1 0x1 DUP2 SLOAD ADD DUP1 DUP3 SSTORE DUP1 SWAP2 POP POP PUSH1 0x1 SWAP1 SUB SWAP1 PUSH1 0x0 MSTORE PUSH1 0x20 PUSH1 0x0 KECCAK256 SWAP1 PUSH1 0x5 MUL ADD PUSH1 0x0 SWAP1 SWAP2 SWAP1 SWAP2 SWAP1 SWAP2 POP PUSH1 0x0 DUP3 ADD MLOAD DUP2 PUSH1 0x0 ADD SWAP1 DUP2 PUSH2 0xCBD SWAP2 SWAP1 PUSH2 0x238F JUMP JUMPDEST POP PUSH1 0x20 DUP3 ADD MLOAD DUP2 PUSH1 0x1 ADD SSTORE PUSH1 0x40 DUP3 ADD MLOAD DUP2 PUSH1 0x2 ADD SSTORE PUSH1 0x60 DUP3 ADD MLOAD DUP2 PUSH1 0x3 ADD PUSH1 0x0 PUSH2 0x100 EXP DUP2 SLOAD DUP2 PUSH1 0xFF MUL NOT AND SWAP1 DUP4 ISZERO ISZERO MUL OR SWAP1 SSTORE POP PUSH1 0x80 DUP3 ADD MLOAD DUP2 PUSH1 0x4 ADD SWAP1 DUP1 MLOAD SWAP1 PUSH1 0x20 ADD SWAP1 PUSH2 0xD0E SWAP3 SWAP2 SWAP1 PUSH2 0x13CA JUMP JUMPDEST POP POP POP PUSH1 0x1 PUSH1 0x3 DUP1 SLOAD SWAP1 POP PUSH2 0xD23 SWAP2 SWAP1 PUSH2 0x2461 JUMP JUMPDEST PUSH32 0x8956532D922732460FF2D895AE5E6CE4F8F166BC687AA580FA00A8AE14CB8203 DUP4 DUP4 PUSH1 0x40 MLOAD PUSH2 0xD54 SWAP3 SWAP2 SWAP1 PUSH2 0x2495 JUMP JUMPDEST PUSH1 0x40 MLOAD DUP1 SWAP2 SUB SWAP1 LOG2 POP POP JUMP JUMPDEST PUSH1 0x1 DUP2 DUP2 SLOAD DUP2 LT PUSH2 0xD70 JUMPI PUSH1 0x0 DUP1 REVERT JUMPDEST SWAP1 PUSH1 0x0 MSTORE PUSH1 0x20 PUSH1 0x0 KECCAK256 ADD PUSH1 0x0 SWAP2 POP SLOAD SWAP1 PUSH2 0x100 EXP SWAP1 DIV PUSH20 0xFFFFFFFFFFFFFFFFFFFFFFFFFFFFFFFFFFFFFFFF AND DUP2 JUMP JUMPDEST PUSH1 0x0 DUP1 SLOAD SWAP1 PUSH2 0x100 EXP SWAP1 DIV PUSH20 0xFFFFFFFFFFFFFFFFFFFFFFFFFFFFFFFFFFFFFFFF AND PUSH20 0xFFFFFFFFFFFFFFFFFFFFFFFFFFFFFFFFFFFFFFFF AND PUSH4 0xE0B73F3F DUP5 DUP5 DUP5 PUSH1 0x40 MLOAD DUP5 PUSH4 0xFFFFFFFF AND PUSH1 0xE0 SHL DUP2 MSTORE PUSH1 0x4 ADD PUSH2 0xDFC SWAP4 SWAP3 SWAP2 SWAP1 PUSH2 0x24CC JUMP JUMPDEST PUSH1 0x0 PUSH1 0x40 MLOAD DUP1 DUP4 SUB DUP2 PUSH1 0x0 DUP8 DUP1 EXTCODESIZE ISZERO DUP1 ISZERO PUSH2 0xE16 JUMPI PUSH1 0x0 DUP1 REVERT JUMPDEST POP GAS CALL ISZERO DUP1 ISZERO PUSH2 0xE2A JUMPI RETURNDATASIZE PUSH1 0x0 DUP1 RETURNDATACOPY RETURNDATASIZE PUSH1 0x0 REVERT JUMPDEST POP POP POP POP PUSH1 0x1 DUP4 SWAP1 DUP1 PUSH1 0x1 DUP2 SLOAD ADD DUP1 DUP3 SSTORE DUP1 SWAP2 POP POP PUSH1 0x1 SWAP1 SUB SWAP1 PUSH1 0x0 MSTORE PUSH1 0x20 PUSH1 0x0 KECCAK256 ADD PUSH1 0x0 SWAP1 SWAP2 SWAP1 SWAP2 SWAP1 SWAP2 PUSH2 0x100 EXP DUP2 SLOAD DUP2 PUSH20 0xFFFFFFFFFFFFFFFFFFFFFFFFFFFFFFFFFFFFFFFF MUL NOT AND SWAP1 DUP4 PUSH20 0xFFFFFFFFFFFFFFFFFFFFFFFFFFFFFFFFFFFFFFFF AND MUL OR SWAP1 SSTORE POP POP POP POP JUMP JUMPDEST PUSH1 0x0 DUP1 PUSH1 0x0 DUP1 SLOAD SWAP1 PUSH2 0x100 EXP SWAP1 DIV PUSH20 0xFFFFFFFFFFFFFFFFFFFFFFFFFFFFFFFFFFFFFFFF AND PUSH20 0xFFFFFFFFFFFFFFFFFFFFFFFFFFFFFFFFFFFFFFFF AND PUSH4 0x3B622FA0 DUP6 PUSH1 0x40 MLOAD DUP3 PUSH4 0xFFFFFFFF AND PUSH1 0xE0 SHL DUP2 MSTORE PUSH1 0x4 ADD PUSH2 0xEF2 SWAP2 SWAP1 PUSH2 0x19FF JUMP JUMPDEST PUSH1 0x0 PUSH1 0x40 MLOAD DUP1 DUP4 SUB DUP2 DUP7 GAS STATICCALL ISZERO DUP1 ISZERO PUSH2 0xF0F JUMPI RETURNDATASIZE PUSH1 0x0 DUP1 RETURNDATACOPY RETURNDATASIZE PUSH1 0x0 REVERT JUMPDEST POP POP POP POP PUSH1 0x40 MLOAD RETURNDATASIZE PUSH1 0x0 DUP3 RETURNDATACOPY RETURNDATASIZE PUSH1 0x1F NOT PUSH1 0x1F DUP3 ADD AND DUP3 ADD DUP1 PUSH1 0x40 MSTORE POP DUP2 ADD SWAP1 PUSH2 0xF38 SWAP2 SWAP1 PUSH2 0x1EBD JUMP JUMPDEST SWAP1 POP PUSH1 0x0 PUSH2 0xF45 DUP5 PUSH2 0x11FE JUMP JUMPDEST SWAP1 POP PUSH1 0x0 JUMPDEST DUP2 MLOAD DUP2 LT ISZERO PUSH2 0xF95 JUMPI PUSH2 0xF77 DUP3 DUP3 DUP2 MLOAD DUP2 LT PUSH2 0xF69 JUMPI PUSH2 0xF68 PUSH2 0x1C8E JUMP JUMPDEST JUMPDEST PUSH1 0x20 MUL PUSH1 0x20 ADD ADD MLOAD DUP5 PUSH2 0x1302 JUMP JUMPDEST ISZERO PUSH2 0xF88 JUMPI PUSH1 0x1 SWAP4 POP POP POP POP PUSH2 0xF9D JUMP JUMPDEST DUP1 DUP1 PUSH1 0x1 ADD SWAP2 POP POP PUSH2 0xF4A JUMP JUMPDEST POP PUSH1 0x0 SWAP3 POP POP POP JUMPDEST SWAP3 SWAP2 POP POP JUMP JUMPDEST PUSH1 0x2 PUSH1 0x20 MSTORE DUP2 PUSH1 0x0 MSTORE PUSH1 0x40 PUSH1 0x0 KECCAK256 PUSH1 0x20 MSTORE DUP1 PUSH1 0x0 MSTORE PUSH1 0x40 PUSH1 0x0 KECCAK256 PUSH1 0x0 SWAP2 POP SWAP2 POP SWAP1 SLOAD SWAP1 PUSH2 0x100 EXP SWAP1 DIV PUSH1 0xFF AND DUP2 JUMP JUMPDEST PUSH1 0x0 DUP1 SLOAD SWAP1 PUSH2 0x100 EXP SWAP1 DIV PUSH20 0xFFFFFFFFFFFFFFFFFFFFFFFFFFFFFFFFFFFFFFFF AND PUSH20 0xFFFFFFFFFFFFFFFFFFFFFFFFFFFFFFFFFFFFFFFF AND PUSH4 0xA55CD02 DUP3 PUSH1 0x40 MLOAD DUP3 PUSH4 0xFFFFFFFF AND PUSH1 0xE0 SHL DUP2 MSTORE PUSH1 0x4 ADD PUSH2 0x102B SWAP2 SWAP1 PUSH2 0x19FF JUMP JUMPDEST PUSH1 0x0 PUSH1 0x40 MLOAD DUP1 DUP4 SUB DUP2 PUSH1 0x0 DUP8 DUP1 EXTCODESIZE ISZERO DUP1 ISZERO PUSH2 0x1045 JUMPI PUSH1 0x0 DUP1 REVERT JUMPDEST POP GAS CALL ISZERO DUP1 ISZERO PUSH2 0x1059 JUMPI RETURNDATASIZE PUSH1 0x0 DUP1 RETURNDATACOPY RETURNDATASIZE PUSH1 0x0 REVERT JUMPDEST POP POP POP POP PUSH1 0x0 JUMPDEST PUSH1 0x1 DUP1 SLOAD SWAP1 POP DUP2 LT ISZERO PUSH2 0x11FA JUMPI DUP2 PUSH20 0xFFFFFFFFFFFFFFFFFFFFFFFFFFFFFFFFFFFFFFFF AND PUSH1 0x1 DUP3 DUP2 SLOAD DUP2 LT PUSH2 0x1098 JUMPI PUSH2 0x1097 PUSH2 0x1C8E JUMP JUMPDEST JUMPDEST SWAP1 PUSH1 0x0 MSTORE PUSH1 0x20 PUSH1 0x0 KECCAK256 ADD PUSH1 0x0 SWAP1 SLOAD SWAP1 PUSH2 0x100 EXP SWAP1 DIV PUSH20 0xFFFFFFFFFFFFFFFFFFFFFFFFFFFFFFFFFFFFFFFF AND PUSH20 0xFFFFFFFFFFFFFFFFFFFFFFFFFFFFFFFFFFFFFFFF AND SUB PUSH2 0x11ED JUMPI PUSH1 0x0 DUP2 SWAP1 POP JUMPDEST PUSH1 0x1 DUP1 SLOAD SWAP1 POP DUP2 LT ISZERO PUSH2 0x11A4 JUMPI PUSH1 0x1 DUP1 DUP3 PUSH2 0x10FF SWAP2 SWAP1 PUSH2 0x20E1 JUMP JUMPDEST DUP2 SLOAD DUP2 LT PUSH2 0x1110 JUMPI PUSH2 0x110F PUSH2 0x1C8E JUMP JUMPDEST JUMPDEST SWAP1 PUSH1 0x0 MSTORE PUSH1 0x20 PUSH1 0x0 KECCAK256 ADD PUSH1 0x0 SWAP1 SLOAD SWAP1 PUSH2 0x100 EXP SWAP1 DIV PUSH20 0xFFFFFFFFFFFFFFFFFFFFFFFFFFFFFFFFFFFFFFFF AND PUSH1 0x1 DUP3 DUP2 SLOAD DUP2 LT PUSH2 0x114F JUMPI PUSH2 0x114E PUSH2 0x1C8E JUMP JUMPDEST JUMPDEST SWAP1 PUSH1 0x0 MSTORE PUSH1 0x20 PUSH1 0x0 KECCAK256 ADD PUSH1 0x0 PUSH2 0x100 EXP DUP2 SLOAD DUP2 PUSH20 0xFFFFFFFFFFFFFFFFFFFFFFFFFFFFFFFFFFFFFFFF MUL NOT AND SWAP1 DUP4 PUSH20 0xFFFFFFFFFFFFFFFFFFFFFFFFFFFFFFFFFFFFFFFF AND MUL OR SWAP1 SSTORE POP DUP1 DUP1 PUSH1 0x1 ADD SWAP2 POP POP PUSH2 0x10E4 JUMP JUMPDEST POP PUSH1 0x1 DUP1 SLOAD DUP1 PUSH2 0x11B7 JUMPI PUSH2 0x11B6 PUSH2 0x2511 JUMP JUMPDEST JUMPDEST PUSH1 0x1 SWAP1 SUB DUP2 DUP2 SWAP1 PUSH1 0x0 MSTORE PUSH1 0x20 PUSH1 0x0 KECCAK256 ADD PUSH1 0x0 PUSH2 0x100 EXP DUP2 SLOAD SWAP1 PUSH20 0xFFFFFFFFFFFFFFFFFFFFFFFFFFFFFFFFFFFFFFFF MUL NOT AND SWAP1 SSTORE SWAP1 SSTORE JUMPDEST DUP1 DUP1 PUSH1 0x1 ADD SWAP2 POP POP PUSH2 0x1060 JUMP JUMPDEST POP POP JUMP JUMPDEST PUSH1 0x60 PUSH1 0x0 PUSH1 0x3 DUP4 DUP2 SLOAD DUP2 LT PUSH2 0x1216 JUMPI PUSH2 0x1215 PUSH2 0x1C8E JUMP JUMPDEST JUMPDEST SWAP1 PUSH1 0x0 MSTORE PUSH1 0x20 PUSH1 0x0 KECCAK256 SWAP1 PUSH1 0x5 MUL ADD SWAP1 POP DUP1 PUSH1 0x4 ADD DUP1 SLOAD DUP1 PUSH1 0x20 MUL PUSH1 0x20 ADD PUSH1 0x40 MLOAD SWAP1 DUP2 ADD PUSH1 0x40 MSTORE DUP1 SWAP3 SWAP2 SWAP1 DUP2 DUP2 MSTORE PUSH1 0x20 ADD PUSH1 0x0 SWAP1 JUMPDEST DUP3 DUP3 LT ISZERO PUSH2 0x12F6 JUMPI DUP4 DUP3 SWAP1 PUSH1 0x0 MSTORE PUSH1 0x20 PUSH1 0x0 KECCAK256 ADD DUP1 SLOAD PUSH2 0x1269 SWAP1 PUSH2 0x1C5D JUMP JUMPDEST DUP1 PUSH1 0x1F ADD PUSH1 0x20 DUP1 SWAP2 DIV MUL PUSH1 0x20 ADD PUSH1 0x40 MLOAD SWAP1 DUP2 ADD PUSH1 0x40 MSTORE DUP1 SWAP3 SWAP2 SWAP1 DUP2 DUP2 MSTORE PUSH1 0x20 ADD DUP3 DUP1 SLOAD PUSH2 0x1295 SWAP1 PUSH2 0x1C5D JUMP JUMPDEST DUP1 ISZERO PUSH2 0x12E2 JUMPI DUP1 PUSH1 0x1F LT PUSH2 0x12B7 JUMPI PUSH2 0x100 DUP1 DUP4 SLOAD DIV MUL DUP4 MSTORE SWAP2 PUSH1 0x20 ADD SWAP2 PUSH2 0x12E2 JUMP JUMPDEST DUP3 ADD SWAP2 SWAP1 PUSH1 0x0 MSTORE PUSH1 0x20 PUSH1 0x0 KECCAK256 SWAP1 JUMPDEST DUP2 SLOAD DUP2 MSTORE SWAP1 PUSH1 0x1 ADD SWAP1 PUSH1 0x20 ADD DUP1 DUP4 GT PUSH2 0x12C5 JUMPI DUP3 SWAP1 SUB PUSH1 0x1F AND DUP3 ADD SWAP2 JUMPDEST POP POP POP POP POP DUP2 MSTORE PUSH1 0x20 ADD SWAP1 PUSH1 0x1 ADD SWAP1 PUSH2 0x124A JUMP JUMPDEST POP POP POP POP SWAP2 POP POP SWAP2 SWAP1 POP JUMP JUMPDEST PUSH1 0x0 DUP2 MLOAD DUP4 MLOAD EQ PUSH2 0x1316 JUMPI PUSH1 0x0 SWAP1 POP PUSH2 0x13C4 JUMP JUMPDEST PUSH1 0x0 JUMPDEST DUP4 MLOAD DUP2 LT ISZERO PUSH2 0x13BE JUMPI DUP3 DUP2 DUP2 MLOAD DUP2 LT PUSH2 0x1335 JUMPI PUSH2 0x1334 PUSH2 0x1C8E JUMP JUMPDEST JUMPDEST PUSH1 0x20 ADD ADD MLOAD PUSH1 0xF8 SHR PUSH1 0xF8 SHL PUSH31 0xFFFFFFFFFFFFFFFFFFFFFFFFFFFFFFFFFFFFFFFFFFFFFFFFFFFFFFFFFFFFFF NOT AND DUP5 DUP3 DUP2 MLOAD DUP2 LT PUSH2 0x1375 JUMPI PUSH2 0x1374 PUSH2 0x1C8E JUMP JUMPDEST JUMPDEST PUSH1 0x20 ADD ADD MLOAD PUSH1 0xF8 SHR PUSH1 0xF8 SHL PUSH31 0xFFFFFFFFFFFFFFFFFFFFFFFFFFFFFFFFFFFFFFFFFFFFFFFFFFFFFFFFFFFFFF NOT AND EQ PUSH2 0x13B1 JUMPI PUSH1 0x0 SWAP2 POP POP PUSH2 0x13C4 JUMP JUMPDEST DUP1 DUP1 PUSH1 0x1 ADD SWAP2 POP POP PUSH2 0x1319 JUMP JUMPDEST POP PUSH1 0x1 SWAP1 POP JUMPDEST SWAP3 SWAP2 POP POP JUMP JUMPDEST DUP3 DUP1 SLOAD DUP3 DUP3 SSTORE SWAP1 PUSH1 0x0 MSTORE PUSH1 0x20 PUSH1 0x0 KECCAK256 SWAP1 DUP2 ADD SWAP3 DUP3 ISZERO PUSH2 0x1412 JUMPI SWAP2 PUSH1 0x20 MUL DUP3 ADD JUMPDEST DUP3 DUP2 GT ISZERO PUSH2 0x1411 JUMPI DUP3 MLOAD DUP3 SWAP1 DUP2 PUSH2 0x1401 SWAP2 SWAP1 PUSH2 0x238F JUMP JUMPDEST POP SWAP2 PUSH1 0x20 ADD SWAP2 SWAP1 PUSH1 0x1 ADD SWAP1 PUSH2 0x13EA JUMP JUMPDEST JUMPDEST POP SWAP1 POP PUSH2 0x141F SWAP2 SWAP1 PUSH2 0x1423 JUMP JUMPDEST POP SWAP1 JUMP JUMPDEST JUMPDEST DUP1 DUP3 GT ISZERO PUSH2 0x1443 JUMPI PUSH1 0x0 DUP2 DUP2 PUSH2 0x143A SWAP2 SWAP1 PUSH2 0x1447 JUMP JUMPDEST POP PUSH1 0x1 ADD PUSH2 0x1424 JUMP JUMPDEST POP SWAP1 JUMP JUMPDEST POP DUP1 SLOAD PUSH2 0x1453 SWAP1 PUSH2 0x1C5D JUMP JUMPDEST PUSH1 0x0 DUP3 SSTORE DUP1 PUSH1 0x1F LT PUSH2 0x1465 JUMPI POP PUSH2 0x1484 JUMP JUMPDEST PUSH1 0x1F ADD PUSH1 0x20 SWAP1 DIV SWAP1 PUSH1 0x0 MSTORE PUSH1 0x20 PUSH1 0x0 KECCAK256 SWAP1 DUP2 ADD SWAP1 PUSH2 0x1483 SWAP2 SWAP1 PUSH2 0x1487 JUMP JUMPDEST JUMPDEST POP JUMP JUMPDEST JUMPDEST DUP1 DUP3 GT ISZERO PUSH2 0x14A0 JUMPI PUSH1 0x0 DUP2 PUSH1 0x0 SWAP1 SSTORE POP PUSH1 0x1 ADD PUSH2 0x1488 JUMP JUMPDEST POP SWAP1 JUMP JUMPDEST PUSH1 0x0 PUSH1 0x40 MLOAD SWAP1 POP SWAP1 JUMP JUMPDEST PUSH1 0x0 DUP1 REVERT JUMPDEST PUSH1 0x0 DUP1 REVERT JUMPDEST PUSH1 0x0 DUP2 SWAP1 POP SWAP2 SWAP1 POP JUMP JUMPDEST PUSH2 0x14CB DUP2 PUSH2 0x14B8 JUMP JUMPDEST DUP2 EQ PUSH2 0x14D6 JUMPI PUSH1 0x0 DUP1 REVERT JUMPDEST POP JUMP JUMPDEST PUSH1 0x0 DUP2 CALLDATALOAD SWAP1 POP PUSH2 0x14E8 DUP2 PUSH2 0x14C2 JUMP JUMPDEST SWAP3 SWAP2 POP POP JUMP JUMPDEST PUSH1 0x0 PUSH1 0x20 DUP3 DUP5 SUB SLT ISZERO PUSH2 0x1504 JUMPI PUSH2 0x1503 PUSH2 0x14AE JUMP JUMPDEST JUMPDEST PUSH1 0x0 PUSH2 0x1512 DUP5 DUP3 DUP6 ADD PUSH2 0x14D9 JUMP JUMPDEST SWAP2 POP POP SWAP3 SWAP2 POP POP JUMP JUMPDEST PUSH1 0x0 DUP2 MLOAD SWAP1 POP SWAP2 SWAP1 POP JUMP JUMPDEST PUSH1 0x0 DUP3 DUP3 MSTORE PUSH1 0x20 DUP3 ADD SWAP1 POP SWAP3 SWAP2 POP POP JUMP JUMPDEST PUSH1 0x0 JUMPDEST DUP4 DUP2 LT ISZERO PUSH2 0x1555 JUMPI DUP1 DUP3 ADD MLOAD DUP2 DUP5 ADD MSTORE PUSH1 0x20 DUP2 ADD SWAP1 POP PUSH2 0x153A JUMP JUMPDEST PUSH1 0x0 DUP5 DUP5 ADD MSTORE POP POP POP POP JUMP JUMPDEST PUSH1 0x0 PUSH1 0x1F NOT PUSH1 0x1F DUP4 ADD AND SWAP1 POP SWAP2 SWAP1 POP JUMP JUMPDEST PUSH1 0x0 PUSH2 0x157D DUP3 PUSH2 0x151B JUMP JUMPDEST PUSH2 0x1587 DUP2 DUP6 PUSH2 0x1526 JUMP JUMPDEST SWAP4 POP PUSH2 0x1597 DUP2 DUP6 PUSH1 0x20 DUP7 ADD PUSH2 0x1537 JUMP JUMPDEST PUSH2 0x15A0 DUP2 PUSH2 0x1561 JUMP JUMPDEST DUP5 ADD SWAP2 POP POP SWAP3 SWAP2 POP POP JUMP JUMPDEST PUSH2 0x15B4 DUP2 PUSH2 0x14B8 JUMP JUMPDEST DUP3 MSTORE POP POP JUMP JUMPDEST PUSH1 0x0 DUP2 ISZERO ISZERO SWAP1 POP SWAP2 SWAP1 POP JUMP JUMPDEST PUSH2 0x15CF DUP2 PUSH2 0x15BA JUMP JUMPDEST DUP3 MSTORE POP POP JUMP JUMPDEST PUSH1 0x0 PUSH1 0x80 DUP3 ADD SWAP1 POP DUP2 DUP2 SUB PUSH1 0x0 DUP4 ADD MSTORE PUSH2 0x15EF DUP2 DUP8 PUSH2 0x1572 JUMP JUMPDEST SWAP1 POP PUSH2 0x15FE PUSH1 0x20 DUP4 ADD DUP7 PUSH2 0x15AB JUMP JUMPDEST PUSH2 0x160B PUSH1 0x40 DUP4 ADD DUP6 PUSH2 0x15AB JUMP JUMPDEST PUSH2 0x1618 PUSH1 0x60 DUP4 ADD DUP5 PUSH2 0x15C6 JUMP JUMPDEST SWAP6 SWAP5 POP POP POP POP POP JUMP JUMPDEST PUSH1 0x0 PUSH20 0xFFFFFFFFFFFFFFFFFFFFFFFFFFFFFFFFFFFFFFFF DUP3 AND SWAP1 POP SWAP2 SWAP1 POP JUMP JUMPDEST PUSH1 0x0 DUP2 SWAP1 POP SWAP2 SWAP1 POP JUMP JUMPDEST PUSH1 0x0 PUSH2 0x1666 PUSH2 0x1661 PUSH2 0x165C DUP5 PUSH2 0x1621 JUMP JUMPDEST PUSH2 0x1641 JUMP JUMPDEST PUSH2 0x1621 JUMP JUMPDEST SWAP1 POP SWAP2 SWAP1 POP JUMP JUMPDEST PUSH1 0x0 PUSH2 0x1678 DUP3 PUSH2 0x164B JUMP JUMPDEST SWAP1 POP SWAP2 SWAP1 POP JUMP JUMPDEST PUSH1 0x0 PUSH2 0x168A DUP3 PUSH2 0x166D JUMP JUMPDEST SWAP1 POP SWAP2 SWAP1 POP JUMP JUMPDEST PUSH2 0x169A DUP2 PUSH2 0x167F JUMP JUMPDEST DUP3 MSTORE POP POP JUMP JUMPDEST PUSH1 0x0 PUSH1 0x20 DUP3 ADD SWAP1 POP PUSH2 0x16B5 PUSH1 0x0 DUP4 ADD DUP5 PUSH2 0x1691 JUMP JUMPDEST SWAP3 SWAP2 POP POP JUMP JUMPDEST PUSH1 0x0 PUSH2 0x16C6 DUP3 PUSH2 0x1621 JUMP JUMPDEST SWAP1 POP SWAP2 SWAP1 POP JUMP JUMPDEST PUSH2 0x16D6 DUP2 PUSH2 0x16BB JUMP JUMPDEST DUP2 EQ PUSH2 0x16E1 JUMPI PUSH1 0x0 DUP1 REVERT JUMPDEST POP JUMP JUMPDEST PUSH1 0x0 DUP2 CALLDATALOAD SWAP1 POP PUSH2 0x16F3 DUP2 PUSH2 0x16CD JUMP JUMPDEST SWAP3 SWAP2 POP POP JUMP JUMPDEST PUSH1 0x0 PUSH1 0x20 DUP3 DUP5 SUB SLT ISZERO PUSH2 0x170F JUMPI PUSH2 0x170E PUSH2 0x14AE JUMP JUMPDEST JUMPDEST PUSH1 0x0 PUSH2 0x171D DUP5 DUP3 DUP6 ADD PUSH2 0x16E4 JUMP JUMPDEST SWAP2 POP POP SWAP3 SWAP2 POP POP JUMP JUMPDEST PUSH1 0x0 PUSH1 0x40 DUP3 ADD SWAP1 POP DUP2 DUP2 SUB PUSH1 0x0 DUP4 ADD MSTORE PUSH2 0x1740 DUP2 DUP6 PUSH2 0x1572 JUMP JUMPDEST SWAP1 POP DUP2 DUP2 SUB PUSH1 0x20 DUP4 ADD MSTORE PUSH2 0x1754 DUP2 DUP5 PUSH2 0x1572 JUMP JUMPDEST SWAP1 POP SWAP4 SWAP3 POP POP POP JUMP JUMPDEST PUSH1 0x0 DUP1 REVERT JUMPDEST PUSH1 0x0 DUP1 REVERT JUMPDEST PUSH32 0x4E487B7100000000000000000000000000000000000000000000000000000000 PUSH1 0x0 MSTORE PUSH1 0x41 PUSH1 0x4 MSTORE PUSH1 0x24 PUSH1 0x0 REVERT JUMPDEST PUSH2 0x179F DUP3 PUSH2 0x1561 JUMP JUMPDEST DUP2 ADD DUP2 DUP2 LT PUSH8 0xFFFFFFFFFFFFFFFF DUP3 GT OR ISZERO PUSH2 0x17BE JUMPI PUSH2 0x17BD PUSH2 0x1767 JUMP JUMPDEST JUMPDEST DUP1 PUSH1 0x40 MSTORE POP POP POP JUMP JUMPDEST PUSH1 0x0 PUSH2 0x17D1 PUSH2 0x14A4 JUMP JUMPDEST SWAP1 POP PUSH2 0x17DD DUP3 DUP3 PUSH2 0x1796 JUMP JUMPDEST SWAP2 SWAP1 POP JUMP JUMPDEST PUSH1 0x0 PUSH8 0xFFFFFFFFFFFFFFFF DUP3 GT ISZERO PUSH2 0x17FD JUMPI PUSH2 0x17FC PUSH2 0x1767 JUMP JUMPDEST JUMPDEST PUSH2 0x1806 DUP3 PUSH2 0x1561 JUMP JUMPDEST SWAP1 POP PUSH1 0x20 DUP2 ADD SWAP1 POP SWAP2 SWAP1 POP JUMP JUMPDEST DUP3 DUP2 DUP4 CALLDATACOPY PUSH1 0x0 DUP4 DUP4 ADD MSTORE POP POP POP JUMP JUMPDEST PUSH1 0x0 PUSH2 0x1835 PUSH2 0x1830 DUP5 PUSH2 0x17E2 JUMP JUMPDEST PUSH2 0x17C7 JUMP JUMPDEST SWAP1 POP DUP3 DUP2 MSTORE PUSH1 0x20 DUP2 ADD DUP5 DUP5 DUP5 ADD GT ISZERO PUSH2 0x1851 JUMPI PUSH2 0x1850 PUSH2 0x1762 JUMP JUMPDEST JUMPDEST PUSH2 0x185C DUP5 DUP3 DUP6 PUSH2 0x1813 JUMP JUMPDEST POP SWAP4 SWAP3 POP POP POP JUMP JUMPDEST PUSH1 0x0 DUP3 PUSH1 0x1F DUP4 ADD SLT PUSH2 0x1879 JUMPI PUSH2 0x1878 PUSH2 0x175D JUMP JUMPDEST JUMPDEST DUP2 CALLDATALOAD PUSH2 0x1889 DUP5 DUP3 PUSH1 0x20 DUP7 ADD PUSH2 0x1822 JUMP JUMPDEST SWAP2 POP POP SWAP3 SWAP2 POP POP JUMP JUMPDEST PUSH1 0x0 PUSH8 0xFFFFFFFFFFFFFFFF DUP3 GT ISZERO PUSH2 0x18AD JUMPI PUSH2 0x18AC PUSH2 0x1767 JUMP JUMPDEST JUMPDEST PUSH1 0x20 DUP3 MUL SWAP1 POP PUSH1 0x20 DUP2 ADD SWAP1 POP SWAP2 SWAP1 POP JUMP JUMPDEST PUSH1 0x0 DUP1 REVERT JUMPDEST PUSH1 0x0 PUSH2 0x18D6 PUSH2 0x18D1 DUP5 PUSH2 0x1892 JUMP JUMPDEST PUSH2 0x17C7 JUMP JUMPDEST SWAP1 POP DUP1 DUP4 DUP3 MSTORE PUSH1 0x20 DUP3 ADD SWAP1 POP PUSH1 0x20 DUP5 MUL DUP4 ADD DUP6 DUP2 GT ISZERO PUSH2 0x18F9 JUMPI PUSH2 0x18F8 PUSH2 0x18BE JUMP JUMPDEST JUMPDEST DUP4 JUMPDEST DUP2 DUP2 LT ISZERO PUSH2 0x1940 JUMPI DUP1 CALLDATALOAD PUSH8 0xFFFFFFFFFFFFFFFF DUP2 GT ISZERO PUSH2 0x191E JUMPI PUSH2 0x191D PUSH2 0x175D JUMP JUMPDEST JUMPDEST DUP1 DUP7 ADD PUSH2 0x192B DUP10 DUP3 PUSH2 0x1864 JUMP JUMPDEST DUP6 MSTORE PUSH1 0x20 DUP6 ADD SWAP5 POP POP POP PUSH1 0x20 DUP2 ADD SWAP1 POP PUSH2 0x18FB JUMP JUMPDEST POP POP POP SWAP4 SWAP3 POP POP POP JUMP JUMPDEST PUSH1 0x0 DUP3 PUSH1 0x1F DUP4 ADD SLT PUSH2 0x195F JUMPI PUSH2 0x195E PUSH2 0x175D JUMP JUMPDEST JUMPDEST DUP2 CALLDATALOAD PUSH2 0x196F DUP5 DUP3 PUSH1 0x20 DUP7 ADD PUSH2 0x18C3 JUMP JUMPDEST SWAP2 POP POP SWAP3 SWAP2 POP POP JUMP JUMPDEST PUSH1 0x0 DUP1 PUSH1 0x40 DUP4 DUP6 SUB SLT ISZERO PUSH2 0x198F JUMPI PUSH2 0x198E PUSH2 0x14AE JUMP JUMPDEST JUMPDEST PUSH1 0x0 DUP4 ADD CALLDATALOAD PUSH8 0xFFFFFFFFFFFFFFFF DUP2 GT ISZERO PUSH2 0x19AD JUMPI PUSH2 0x19AC PUSH2 0x14B3 JUMP JUMPDEST JUMPDEST PUSH2 0x19B9 DUP6 DUP3 DUP7 ADD PUSH2 0x1864 JUMP JUMPDEST SWAP3 POP POP PUSH1 0x20 DUP4 ADD CALLDATALOAD PUSH8 0xFFFFFFFFFFFFFFFF DUP2 GT ISZERO PUSH2 0x19DA JUMPI PUSH2 0x19D9 PUSH2 0x14B3 JUMP JUMPDEST JUMPDEST PUSH2 0x19E6 DUP6 DUP3 DUP7 ADD PUSH2 0x194A JUMP JUMPDEST SWAP2 POP POP SWAP3 POP SWAP3 SWAP1 POP JUMP JUMPDEST PUSH2 0x19F9 DUP2 PUSH2 0x16BB JUMP JUMPDEST DUP3 MSTORE POP POP JUMP JUMPDEST PUSH1 0x0 PUSH1 0x20 DUP3 ADD SWAP1 POP PUSH2 0x1A14 PUSH1 0x0 DUP4 ADD DUP5 PUSH2 0x19F0 JUMP JUMPDEST SWAP3 SWAP2 POP POP JUMP JUMPDEST PUSH1 0x0 DUP1 PUSH1 0x0 PUSH1 0x60 DUP5 DUP7 SUB SLT ISZERO PUSH2 0x1A33 JUMPI PUSH2 0x1A32 PUSH2 0x14AE JUMP JUMPDEST JUMPDEST PUSH1 0x0 PUSH2 0x1A41 DUP7 DUP3 DUP8 ADD PUSH2 0x16E4 JUMP JUMPDEST SWAP4 POP POP PUSH1 0x20 DUP5 ADD CALLDATALOAD PUSH8 0xFFFFFFFFFFFFFFFF DUP2 GT ISZERO PUSH2 0x1A62 JUMPI PUSH2 0x1A61 PUSH2 0x14B3 JUMP JUMPDEST JUMPDEST PUSH2 0x1A6E DUP7 DUP3 DUP8 ADD PUSH2 0x1864 JUMP JUMPDEST SWAP3 POP POP PUSH1 0x40 DUP5 ADD CALLDATALOAD PUSH8 0xFFFFFFFFFFFFFFFF DUP2 GT ISZERO PUSH2 0x1A8F JUMPI PUSH2 0x1A8E PUSH2 0x14B3 JUMP JUMPDEST JUMPDEST PUSH2 0x1A9B DUP7 DUP3 DUP8 ADD PUSH2 0x1864 JUMP JUMPDEST SWAP2 POP POP SWAP3 POP SWAP3 POP SWAP3 JUMP JUMPDEST PUSH1 0x0 DUP1 PUSH1 0x40 DUP4 DUP6 SUB SLT ISZERO PUSH2 0x1ABC JUMPI PUSH2 0x1ABB PUSH2 0x14AE JUMP JUMPDEST JUMPDEST PUSH1 0x0 PUSH2 0x1ACA DUP6 DUP3 DUP7 ADD PUSH2 0x16E4 JUMP JUMPDEST SWAP3 POP POP PUSH1 0x20 PUSH2 0x1ADB DUP6 DUP3 DUP7 ADD PUSH2 0x14D9 JUMP JUMPDEST SWAP2 POP POP SWAP3 POP SWAP3 SWAP1 POP JUMP JUMPDEST PUSH1 0x0 PUSH1 0x20 DUP3 ADD SWAP1 POP PUSH2 0x1AFA PUSH1 0x0 DUP4 ADD DUP5 PUSH2 0x15C6 JUMP JUMPDEST SWAP3 SWAP2 POP POP JUMP JUMPDEST PUSH1 0x0 DUP2 MLOAD SWAP1 POP SWAP2 SWAP1 POP JUMP JUMPDEST PUSH1 0x0 DUP3 DUP3 MSTORE PUSH1 0x20 DUP3 ADD SWAP1 POP SWAP3 SWAP2 POP POP JUMP JUMPDEST PUSH1 0x0 DUP2 SWAP1 POP PUSH1 0x20 DUP3 ADD SWAP1 POP SWAP2 SWAP1 POP JUMP JUMPDEST PUSH1 0x0 DUP3 DUP3 MSTORE PUSH1 0x20 DUP3 ADD SWAP1 POP SWAP3 SWAP2 POP POP JUMP JUMPDEST PUSH1 0x0 PUSH2 0x1B48 DUP3 PUSH2 0x151B JUMP JUMPDEST PUSH2 0x1B52 DUP2 DUP6 PUSH2 0x1B2C JUMP JUMPDEST SWAP4 POP PUSH2 0x1B62 DUP2 DUP6 PUSH1 0x20 DUP7 ADD PUSH2 0x1537 JUMP JUMPDEST PUSH2 0x1B6B DUP2 PUSH2 0x1561 JUMP JUMPDEST DUP5 ADD SWAP2 POP POP SWAP3 SWAP2 POP POP JUMP JUMPDEST PUSH1 0x0 PUSH2 0x1B82 DUP4 DUP4 PUSH2 0x1B3D JUMP JUMPDEST SWAP1 POP SWAP3 SWAP2 POP POP JUMP JUMPDEST PUSH1 0x0 PUSH1 0x20 DUP3 ADD SWAP1 POP SWAP2 SWAP1 POP JUMP JUMPDEST PUSH1 0x0 PUSH2 0x1BA2 DUP3 PUSH2 0x1B00 JUMP JUMPDEST PUSH2 0x1BAC DUP2 DUP6 PUSH2 0x1B0B JUMP JUMPDEST SWAP4 POP DUP4 PUSH1 0x20 DUP3 MUL DUP6 ADD PUSH2 0x1BBE DUP6 PUSH2 0x1B1C JUMP JUMPDEST DUP1 PUSH1 0x0 JUMPDEST DUP6 DUP2 LT ISZERO PUSH2 0x1BFA JUMPI DUP5 DUP5 SUB DUP10 MSTORE DUP2 MLOAD PUSH2 0x1BDB DUP6 DUP3 PUSH2 0x1B76 JUMP JUMPDEST SWAP5 POP PUSH2 0x1BE6 DUP4 PUSH2 0x1B8A JUMP JUMPDEST SWAP3 POP PUSH1 0x20 DUP11 ADD SWAP10 POP POP PUSH1 0x1 DUP2 ADD SWAP1 POP PUSH2 0x1BC2 JUMP JUMPDEST POP DUP3 SWAP8 POP DUP8 SWAP6 POP POP POP POP POP POP SWAP3 SWAP2 POP POP JUMP JUMPDEST PUSH1 0x0 PUSH1 0x20 DUP3 ADD SWAP1 POP DUP2 DUP2 SUB PUSH1 0x0 DUP4 ADD MSTORE PUSH2 0x1C26 DUP2 DUP5 PUSH2 0x1B97 JUMP JUMPDEST SWAP1 POP SWAP3 SWAP2 POP POP JUMP JUMPDEST PUSH32 0x4E487B7100000000000000000000000000000000000000000000000000000000 PUSH1 0x0 MSTORE PUSH1 0x22 PUSH1 0x4 MSTORE PUSH1 0x24 PUSH1 0x0 REVERT JUMPDEST PUSH1 0x0 PUSH1 0x2 DUP3 DIV SWAP1 POP PUSH1 0x1 DUP3 AND DUP1 PUSH2 0x1C75 JUMPI PUSH1 0x7F DUP3 AND SWAP2 POP JUMPDEST PUSH1 0x20 DUP3 LT DUP2 SUB PUSH2 0x1C88 JUMPI PUSH2 0x1C87 PUSH2 0x1C2E JUMP JUMPDEST JUMPDEST POP SWAP2 SWAP1 POP JUMP JUMPDEST PUSH32 0x4E487B7100000000000000000000000000000000000000000000000000000000 PUSH1 0x0 MSTORE PUSH1 0x32 PUSH1 0x4 MSTORE PUSH1 0x24 PUSH1 0x0 REVERT JUMPDEST PUSH32 0x50726F706F73616C2068617320616C7265616479206265656E20657865637574 PUSH1 0x0 DUP3 ADD MSTORE PUSH32 0x6564000000000000000000000000000000000000000000000000000000000000 PUSH1 0x20 DUP3 ADD MSTORE POP JUMP JUMPDEST PUSH1 0x0 PUSH2 0x1D19 PUSH1 0x22 DUP4 PUSH2 0x1526 JUMP JUMPDEST SWAP2 POP PUSH2 0x1D24 DUP3 PUSH2 0x1CBD JUMP JUMPDEST PUSH1 0x40 DUP3 ADD SWAP1 POP SWAP2 SWAP1 POP JUMP JUMPDEST PUSH1 0x0 PUSH1 0x20 DUP3 ADD SWAP1 POP DUP2 DUP2 SUB PUSH1 0x0 DUP4 ADD MSTORE PUSH2 0x1D48 DUP2 PUSH2 0x1D0C JUMP JUMPDEST SWAP1 POP SWAP2 SWAP1 POP JUMP JUMPDEST PUSH32 0x50726F706F73616C20686173206265656E20617070726F766564000000000000 PUSH1 0x0 DUP3 ADD MSTORE POP JUMP JUMPDEST PUSH1 0x0 PUSH2 0x1D85 PUSH1 0x1A DUP4 PUSH2 0x1526 JUMP JUMPDEST SWAP2 POP PUSH2 0x1D90 DUP3 PUSH2 0x1D4F JUMP JUMPDEST PUSH1 0x20 DUP3 ADD SWAP1 POP SWAP2 SWAP1 POP JUMP JUMPDEST PUSH1 0x0 PUSH1 0x20 DUP3 ADD SWAP1 POP DUP2 DUP2 SUB PUSH1 0x0 DUP4 ADD MSTORE PUSH2 0x1DB4 DUP2 PUSH2 0x1D78 JUMP JUMPDEST SWAP1 POP SWAP2 SWAP1 POP JUMP JUMPDEST PUSH32 0x50726F706F73616C20686173206E6F74206265656E20617070726F7665642062 PUSH1 0x0 DUP3 ADD MSTORE PUSH32 0x79206D616A6F7269747920766F74650000000000000000000000000000000000 PUSH1 0x20 DUP3 ADD MSTORE POP JUMP JUMPDEST PUSH1 0x0 PUSH2 0x1E17 PUSH1 0x2F DUP4 PUSH2 0x1526 JUMP JUMPDEST SWAP2 POP PUSH2 0x1E22 DUP3 PUSH2 0x1DBB JUMP JUMPDEST PUSH1 0x40 DUP3 ADD SWAP1 POP SWAP2 SWAP1 POP JUMP JUMPDEST PUSH1 0x0 PUSH1 0x20 DUP3 ADD SWAP1 POP DUP2 DUP2 SUB PUSH1 0x0 DUP4 ADD MSTORE PUSH2 0x1E46 DUP2 PUSH2 0x1E0A JUMP JUMPDEST SWAP1 POP SWAP2 SWAP1 POP JUMP JUMPDEST PUSH1 0x0 PUSH2 0x1E60 PUSH2 0x1E5B DUP5 PUSH2 0x17E2 JUMP JUMPDEST PUSH2 0x17C7 JUMP JUMPDEST SWAP1 POP DUP3 DUP2 MSTORE PUSH1 0x20 DUP2 ADD DUP5 DUP5 DUP5 ADD GT ISZERO PUSH2 0x1E7C JUMPI PUSH2 0x1E7B PUSH2 0x1762 JUMP JUMPDEST JUMPDEST PUSH2 0x1E87 DUP5 DUP3 DUP6 PUSH2 0x1537 JUMP JUMPDEST POP SWAP4 SWAP3 POP POP POP JUMP JUMPDEST PUSH1 0x0 DUP3 PUSH1 0x1F DUP4 ADD SLT PUSH2 0x1EA4 JUMPI PUSH2 0x1EA3 PUSH2 0x175D JUMP JUMPDEST JUMPDEST DUP2 MLOAD PUSH2 0x1EB4 DUP5 DUP3 PUSH1 0x20 DUP7 ADD PUSH2 0x1E4D JUMP JUMPDEST SWAP2 POP POP SWAP3 SWAP2 POP POP JUMP JUMPDEST PUSH1 0x0 PUSH1 0x20 DUP3 DUP5 SUB SLT ISZERO PUSH2 0x1ED3 JUMPI PUSH2 0x1ED2 PUSH2 0x14AE JUMP JUMPDEST JUMPDEST PUSH1 0x0 DUP3 ADD MLOAD PUSH8 0xFFFFFFFFFFFFFFFF DUP2 GT ISZERO PUSH2 0x1EF1 JUMPI PUSH2 0x1EF0 PUSH2 0x14B3 JUMP JUMPDEST JUMPDEST PUSH2 0x1EFD DUP5 DUP3 DUP6 ADD PUSH2 0x1E8F JUMP JUMPDEST SWAP2 POP POP SWAP3 SWAP2 POP POP JUMP JUMPDEST PUSH1 0x0 DUP2 MLOAD SWAP1 POP PUSH2 0x1F15 DUP2 PUSH2 0x16CD JUMP JUMPDEST SWAP3 SWAP2 POP POP JUMP JUMPDEST PUSH1 0x0 PUSH1 0x20 DUP3 DUP5 SUB SLT ISZERO PUSH2 0x1F31 JUMPI PUSH2 0x1F30 PUSH2 0x14AE JUMP JUMPDEST JUMPDEST PUSH1 0x0 PUSH2 0x1F3F DUP5 DUP3 DUP6 ADD PUSH2 0x1F06 JUMP JUMPDEST SWAP2 POP POP SWAP3 SWAP2 POP POP JUMP JUMPDEST PUSH32 0x4F6E6C79206D656D626572732063616E20766F74650000000000000000000000 PUSH1 0x0 DUP3 ADD MSTORE POP JUMP JUMPDEST PUSH1 0x0 PUSH2 0x1F7E PUSH1 0x15 DUP4 PUSH2 0x1526 JUMP JUMPDEST SWAP2 POP PUSH2 0x1F89 DUP3 PUSH2 0x1F48 JUMP JUMPDEST PUSH1 0x20 DUP3 ADD SWAP1 POP SWAP2 SWAP1 POP JUMP JUMPDEST PUSH1 0x0 PUSH1 0x20 DUP3 ADD SWAP1 POP DUP2 DUP2 SUB PUSH1 0x0 DUP4 ADD MSTORE PUSH2 0x1FAD DUP2 PUSH2 0x1F71 JUMP JUMPDEST SWAP1 POP SWAP2 SWAP1 POP JUMP JUMPDEST PUSH32 0x596F75206861766520616C726561647920766F74656420666F72207468697320 PUSH1 0x0 DUP3 ADD MSTORE PUSH32 0x70726F706F73616C000000000000000000000000000000000000000000000000 PUSH1 0x20 DUP3 ADD MSTORE POP JUMP JUMPDEST PUSH1 0x0 PUSH2 0x2010 PUSH1 0x28 DUP4 PUSH2 0x1526 JUMP JUMPDEST SWAP2 POP PUSH2 0x201B DUP3 PUSH2 0x1FB4 JUMP JUMPDEST PUSH1 0x40 DUP3 ADD SWAP1 POP SWAP2 SWAP1 POP JUMP JUMPDEST PUSH1 0x0 PUSH1 0x20 DUP3 ADD SWAP1 POP DUP2 DUP2 SUB PUSH1 0x0 DUP4 ADD MSTORE PUSH2 0x203F DUP2 PUSH2 0x2003 JUMP JUMPDEST SWAP1 POP SWAP2 SWAP1 POP JUMP JUMPDEST PUSH32 0x596F75277265206E6F7420706572746D697474656420746F20766F74652E0000 PUSH1 0x0 DUP3 ADD MSTORE POP JUMP JUMPDEST PUSH1 0x0 PUSH2 0x207C PUSH1 0x1E DUP4 PUSH2 0x1526 JUMP JUMPDEST SWAP2 POP PUSH2 0x2087 DUP3 PUSH2 0x2046 JUMP JUMPDEST PUSH1 0x20 DUP3 ADD SWAP1 POP SWAP2 SWAP1 POP JUMP JUMPDEST PUSH1 0x0 PUSH1 0x20 DUP3 ADD SWAP1 POP DUP2 DUP2 SUB PUSH1 0x0 DUP4 ADD MSTORE PUSH2 0x20AB DUP2 PUSH2 0x206F JUMP JUMPDEST SWAP1 POP SWAP2 SWAP1 POP JUMP JUMPDEST PUSH32 0x4E487B7100000000000000000000000000000000000000000000000000000000 PUSH1 0x0 MSTORE PUSH1 0x11 PUSH1 0x4 MSTORE PUSH1 0x24 PUSH1 0x0 REVERT JUMPDEST PUSH1 0x0 PUSH2 0x20EC DUP3 PUSH2 0x14B8 JUMP JUMPDEST SWAP2 POP PUSH2 0x20F7 DUP4 PUSH2 0x14B8 JUMP JUMPDEST SWAP3 POP DUP3 DUP3 ADD SWAP1 POP DUP1 DUP3 GT ISZERO PUSH2 0x210F JUMPI PUSH2 0x210E PUSH2 0x20B2 JUMP JUMPDEST JUMPDEST SWAP3 SWAP2 POP POP JUMP JUMPDEST PUSH32 0x666F720000000000000000000000000000000000000000000000000000000000 PUSH1 0x0 DUP3 ADD MSTORE POP JUMP JUMPDEST PUSH1 0x0 PUSH2 0x214B PUSH1 0x3 DUP4 PUSH2 0x1526 JUMP JUMPDEST SWAP2 POP PUSH2 0x2156 DUP3 PUSH2 0x2115 JUMP JUMPDEST PUSH1 0x20 DUP3 ADD SWAP1 POP SWAP2 SWAP1 POP JUMP JUMPDEST PUSH1 0x0 PUSH1 0x20 DUP3 ADD SWAP1 POP DUP2 DUP2 SUB PUSH1 0x0 DUP4 ADD MSTORE PUSH2 0x217A DUP2 PUSH2 0x213E JUMP JUMPDEST SWAP1 POP SWAP2 SWAP1 POP JUMP JUMPDEST PUSH32 0x616761696E737400000000000000000000000000000000000000000000000000 PUSH1 0x0 DUP3 ADD MSTORE POP JUMP JUMPDEST PUSH1 0x0 PUSH2 0x21B7 PUSH1 0x7 DUP4 PUSH2 0x1526 JUMP JUMPDEST SWAP2 POP PUSH2 0x21C2 DUP3 PUSH2 0x2181 JUMP JUMPDEST PUSH1 0x20 DUP3 ADD SWAP1 POP SWAP2 SWAP1 POP JUMP JUMPDEST PUSH1 0x0 PUSH1 0x20 DUP3 ADD SWAP1 POP DUP2 DUP2 SUB PUSH1 0x0 DUP4 ADD MSTORE PUSH2 0x21E6 DUP2 PUSH2 0x21AA JUMP JUMPDEST SWAP1 POP SWAP2 SWAP1 POP JUMP JUMPDEST PUSH1 0x0 DUP2 SWAP1 POP DUP2 PUSH1 0x0 MSTORE PUSH1 0x20 PUSH1 0x0 KECCAK256 SWAP1 POP SWAP2 SWAP1 POP JUMP JUMPDEST PUSH1 0x0 PUSH1 0x20 PUSH1 0x1F DUP4 ADD DIV SWAP1 POP SWAP2 SWAP1 POP JUMP JUMPDEST PUSH1 0x0 DUP3 DUP3 SHL SWAP1 POP SWAP3 SWAP2 POP POP JUMP JUMPDEST PUSH1 0x0 PUSH1 0x8 DUP4 MUL PUSH2 0x224F PUSH32 0xFFFFFFFFFFFFFFFFFFFFFFFFFFFFFFFFFFFFFFFFFFFFFFFFFFFFFFFFFFFFFFFF DUP3 PUSH2 0x2212 JUMP JUMPDEST PUSH2 0x2259 DUP7 DUP4 PUSH2 0x2212 JUMP JUMPDEST SWAP6 POP DUP1 NOT DUP5 AND SWAP4 POP DUP1 DUP7 AND DUP5 OR SWAP3 POP POP POP SWAP4 SWAP3 POP POP POP JUMP JUMPDEST PUSH1 0x0 PUSH2 0x228C PUSH2 0x2287 PUSH2 0x2282 DUP5 PUSH2 0x14B8 JUMP JUMPDEST PUSH2 0x1641 JUMP JUMPDEST PUSH2 0x14B8 JUMP JUMPDEST SWAP1 POP SWAP2 SWAP1 POP JUMP JUMPDEST PUSH1 0x0 DUP2 SWAP1 POP SWAP2 SWAP1 POP JUMP JUMPDEST PUSH2 0x22A6 DUP4 PUSH2 0x2271 JUMP JUMPDEST PUSH2 0x22BA PUSH2 0x22B2 DUP3 PUSH2 0x2293 JUMP JUMPDEST DUP5 DUP5 SLOAD PUSH2 0x221F JUMP JUMPDEST DUP3 SSTORE POP POP POP POP JUMP JUMPDEST PUSH1 0x0 SWAP1 JUMP JUMPDEST PUSH2 0x22CF PUSH2 0x22C2 JUMP JUMPDEST PUSH2 0x22DA DUP2 DUP5 DUP5 PUSH2 0x229D JUMP JUMPDEST POP POP POP JUMP JUMPDEST JUMPDEST DUP2 DUP2 LT ISZERO PUSH2 0x22FE JUMPI PUSH2 0x22F3 PUSH1 0x0 DUP3 PUSH2 0x22C7 JUMP JUMPDEST PUSH1 0x1 DUP2 ADD SWAP1 POP PUSH2 0x22E0 JUMP JUMPDEST POP POP JUMP JUMPDEST PUSH1 0x1F DUP3 GT ISZERO PUSH2 0x2343 JUMPI PUSH2 0x2314 DUP2 PUSH2 0x21ED JUMP JUMPDEST PUSH2 0x231D DUP5 PUSH2 0x2202 JUMP JUMPDEST DUP2 ADD PUSH1 0x20 DUP6 LT ISZERO PUSH2 0x232C JUMPI DUP2 SWAP1 POP JUMPDEST PUSH2 0x2340 PUSH2 0x2338 DUP6 PUSH2 0x2202 JUMP JUMPDEST DUP4 ADD DUP3 PUSH2 0x22DF JUMP JUMPDEST POP POP JUMPDEST POP POP POP JUMP JUMPDEST PUSH1 0x0 DUP3 DUP3 SHR SWAP1 POP SWAP3 SWAP2 POP POP JUMP JUMPDEST PUSH1 0x0 PUSH2 0x2366 PUSH1 0x0 NOT DUP5 PUSH1 0x8 MUL PUSH2 0x2348 JUMP JUMPDEST NOT DUP1 DUP4 AND SWAP2 POP POP SWAP3 SWAP2 POP POP JUMP JUMPDEST PUSH1 0x0 PUSH2 0x237F DUP4 DUP4 PUSH2 0x2355 JUMP JUMPDEST SWAP2 POP DUP3 PUSH1 0x2 MUL DUP3 OR SWAP1 POP SWAP3 SWAP2 POP POP JUMP JUMPDEST PUSH2 0x2398 DUP3 PUSH2 0x151B JUMP JUMPDEST PUSH8 0xFFFFFFFFFFFFFFFF DUP2 GT ISZERO PUSH2 0x23B1 JUMPI PUSH2 0x23B0 PUSH2 0x1767 JUMP JUMPDEST JUMPDEST PUSH2 0x23BB DUP3 SLOAD PUSH2 0x1C5D JUMP JUMPDEST PUSH2 0x23C6 DUP3 DUP3 DUP6 PUSH2 0x2302 JUMP JUMPDEST PUSH1 0x0 PUSH1 0x20 SWAP1 POP PUSH1 0x1F DUP4 GT PUSH1 0x1 DUP2 EQ PUSH2 0x23F9 JUMPI PUSH1 0x0 DUP5 ISZERO PUSH2 0x23E7 JUMPI DUP3 DUP8 ADD MLOAD SWAP1 POP JUMPDEST PUSH2 0x23F1 DUP6 DUP3 PUSH2 0x2373 JUMP JUMPDEST DUP7 SSTORE POP PUSH2 0x2459 JUMP JUMPDEST PUSH1 0x1F NOT DUP5 AND PUSH2 0x2407 DUP7 PUSH2 0x21ED JUMP JUMPDEST PUSH1 0x0 JUMPDEST DUP3 DUP2 LT ISZERO PUSH2 0x242F JUMPI DUP5 DUP10 ADD MLOAD DUP3 SSTORE PUSH1 0x1 DUP3 ADD SWAP2 POP PUSH1 0x20 DUP6 ADD SWAP5 POP PUSH1 0x20 DUP2 ADD SWAP1 POP PUSH2 0x240A JUMP JUMPDEST DUP7 DUP4 LT ISZERO PUSH2 0x244C JUMPI DUP5 DUP10 ADD MLOAD PUSH2 0x2448 PUSH1 0x1F DUP10 AND DUP3 PUSH2 0x2355 JUMP JUMPDEST DUP4 SSTORE POP JUMPDEST PUSH1 0x1 PUSH1 0x2 DUP9 MUL ADD DUP9 SSTORE POP POP POP JUMPDEST POP POP POP POP POP POP JUMP JUMPDEST PUSH1 0x0 PUSH2 0x246C DUP3 PUSH2 0x14B8 JUMP JUMPDEST SWAP2 POP PUSH2 0x2477 DUP4 PUSH2 0x14B8 JUMP JUMPDEST SWAP3 POP DUP3 DUP3 SUB SWAP1 POP DUP2 DUP2 GT ISZERO PUSH2 0x248F JUMPI PUSH2 0x248E PUSH2 0x20B2 JUMP JUMPDEST JUMPDEST SWAP3 SWAP2 POP POP JUMP JUMPDEST PUSH1 0x0 PUSH1 0x40 DUP3 ADD SWAP1 POP DUP2 DUP2 SUB PUSH1 0x0 DUP4 ADD MSTORE PUSH2 0x24AF DUP2 DUP6 PUSH2 0x1572 JUMP JUMPDEST SWAP1 POP DUP2 DUP2 SUB PUSH1 0x20 DUP4 ADD MSTORE PUSH2 0x24C3 DUP2 DUP5 PUSH2 0x1B97 JUMP JUMPDEST SWAP1 POP SWAP4 SWAP3 POP POP POP JUMP JUMPDEST PUSH1 0x0 PUSH1 0x60 DUP3 ADD SWAP1 POP PUSH2 0x24E1 PUSH1 0x0 DUP4 ADD DUP7 PUSH2 0x19F0 JUMP JUMPDEST DUP2 DUP2 SUB PUSH1 0x20 DUP4 ADD MSTORE PUSH2 0x24F3 DUP2 DUP6 PUSH2 0x1572 JUMP JUMPDEST SWAP1 POP DUP2 DUP2 SUB PUSH1 0x40 DUP4 ADD MSTORE PUSH2 0x2507 DUP2 DUP5 PUSH2 0x1572 JUMP JUMPDEST SWAP1 POP SWAP5 SWAP4 POP POP POP POP JUMP JUMPDEST PUSH32 0x4E487B7100000000000000000000000000000000000000000000000000000000 PUSH1 0x0 MSTORE PUSH1 0x31 PUSH1 0x4 MSTORE PUSH1 0x24 PUSH1 0x0 REVERT INVALID LOG2 PUSH5 0x6970667358 0x22 SLT KECCAK256 DUP11 0xED SHR 0xB1 CODECOPY ADDRESS 0xB6 PUSH21 0xD8ECC31DE2BB2D1D3DB2E004E825AD13FD0AFC1978 0xEC 0xDD DUP15 PUSH5 0x736F6C6343 STOP ADDMOD XOR STOP CALLER "},"methodIdentifiers":{"Tokens()":"0cf283b1","addStuff(address,string,string)":"8fe1f092","createProposal(string,string[])":"6ca91202","executeProposal(uint256)":"0d61b519","getEmployee(address)":"32648e09","getRoles(uint256)":"fe644b8c","isSuitable(address,uint256)":"9617ed98","proposals(uint256)":"013cf08b","removeEmployee(address)":"d108177a","stuff(uint256)":"87fcff0c","voteagainst(uint256)":"62131fd7","votefor(uint256)":"5b426bbb","votes(address,uint256)":"9f2524ee"}}}}}