{
  "_format": "hh-sol-artifact-1",
  "contractName": "Dao",
  "sourceName": "contracts/Dao.sol",
  "abi": [
    {
      "inputs": [
        {
          "internalType": "address",
          "name": "_address",
          "type": "address"
        }
      ],
      "stateMutability": "nonpayable",
      "type": "constructor"
    },
    {
      "anonymous": false,
      "inputs": [
        {
          "indexed": false,
          "internalType": "string",
          "name": "message",
          "type": "string"
        }
      ],
      "name": "ProposalAccepted",
      "type": "event"
    },
    {
      "anonymous": false,
      "inputs": [
        {
          "indexed": true,
          "internalType": "uint256",
          "name": "proposalId",
          "type": "uint256"
        },
        {
          "indexed": false,
          "internalType": "string",
          "name": "desc",
          "type": "string"
        },
        {
          "indexed": false,
          "internalType": "string[]",
          "name": "_roles",
          "type": "string[]"
        }
      ],
      "name": "ProposalCreated",
      "type": "event"
    },
    {
      "anonymous": false,
      "inputs": [
        {
          "indexed": false,
          "internalType": "string",
          "name": "reject",
          "type": "string"
        }
      ],
      "name": "ProposalRejected",
      "type": "event"
    },
    {
      "anonymous": false,
      "inputs": [
        {
          "indexed": true,
          "internalType": "address",
          "name": "voter",
          "type": "address"
        },
        {
          "indexed": true,
          "internalType": "uint256",
          "name": "proposalId",
          "type": "uint256"
        },
        {
          "indexed": false,
          "internalType": "string",
          "name": "aim",
          "type": "string"
        }
      ],
      "name": "VoteCast",
      "type": "event"
    },
    {
      "inputs": [],
      "name": "Tokens",
      "outputs": [
        {
          "internalType": "contract DaoNFT",
          "name": "",
          "type": "address"
        }
      ],
      "stateMutability": "view",
      "type": "function"
    },
    {
      "inputs": [
        {
          "internalType": "address",
          "name": "_address",
          "type": "address"
        },
        {
          "internalType": "string",
          "name": "employeeName",
          "type": "string"
        },
        {
          "internalType": "string",
          "name": "employeeRole",
          "type": "string"
        }
      ],
      "name": "addStuff",
      "outputs": [],
      "stateMutability": "nonpayable",
      "type": "function"
    },
    {
      "inputs": [
        {
          "internalType": "string",
          "name": "_desc",
          "type": "string"
        },
        {
          "internalType": "string[]",
          "name": "_roles",
          "type": "string[]"
        }
      ],
      "name": "createProposal",
      "outputs": [],
      "stateMutability": "nonpayable",
      "type": "function"
    },
    {
      "inputs": [
        {
          "internalType": "uint256",
          "name": "_proposalId",
          "type": "uint256"
        }
      ],
      "name": "executeProposal",
      "outputs": [],
      "stateMutability": "nonpayable",
      "type": "function"
    },
    {
      "inputs": [
        {
          "internalType": "address",
          "name": "_address",
          "type": "address"
        }
      ],
      "name": "getEmployee",
      "outputs": [
        {
          "internalType": "string",
          "name": "",
          "type": "string"
        },
        {
          "internalType": "string",
          "name": "",
          "type": "string"
        }
      ],
      "stateMutability": "view",
      "type": "function"
    },
    {
      "inputs": [],
      "name": "getEmployees",
      "outputs": [
        {
          "internalType": "address[]",
          "name": "",
          "type": "address[]"
        }
      ],
      "stateMutability": "view",
      "type": "function"
    },
    {
      "inputs": [],
      "name": "getProposals",
      "outputs": [
        {
          "components": [
            {
              "internalType": "string",
              "name": "desc",
              "type": "string"
            },
            {
              "internalType": "uint256",
              "name": "votefor",
              "type": "uint256"
            },
            {
              "internalType": "uint256",
              "name": "voteagainst",
              "type": "uint256"
            },
            {
              "internalType": "bool",
              "name": "executed",
              "type": "bool"
            },
            {
              "internalType": "string[]",
              "name": "roles",
              "type": "string[]"
            }
          ],
          "internalType": "struct Dao.Proposal[]",
          "name": "",
          "type": "tuple[]"
        }
      ],
      "stateMutability": "view",
      "type": "function"
    },
    {
      "inputs": [
        {
          "internalType": "uint256",
          "name": "_proposalId",
          "type": "uint256"
        }
      ],
      "name": "getRoles",
      "outputs": [
        {
          "internalType": "string[]",
          "name": "",
          "type": "string[]"
        }
      ],
      "stateMutability": "view",
      "type": "function"
    },
    {
      "inputs": [
        {
          "internalType": "uint256",
          "name": "_proposalId",
          "type": "uint256"
        }
      ],
      "name": "getVoteResults",
      "outputs": [
        {
          "internalType": "uint256",
          "name": "votefor",
          "type": "uint256"
        },
        {
          "internalType": "uint256",
          "name": "voteagainst",
          "type": "uint256"
        }
      ],
      "stateMutability": "view",
      "type": "function"
    },
    {
      "inputs": [
        {
          "internalType": "address",
          "name": "_address",
          "type": "address"
        },
        {
          "internalType": "uint256",
          "name": "_proposalId",
          "type": "uint256"
        }
      ],
      "name": "isSuitable",
      "outputs": [
        {
          "internalType": "bool",
          "name": "",
          "type": "bool"
        }
      ],
      "stateMutability": "view",
      "type": "function"
    },
    {
      "inputs": [
        {
          "internalType": "uint256",
          "name": "",
          "type": "uint256"
        }
      ],
      "name": "proposals",
      "outputs": [
        {
          "internalType": "string",
          "name": "desc",
          "type": "string"
        },
        {
          "internalType": "uint256",
          "name": "votefor",
          "type": "uint256"
        },
        {
          "internalType": "uint256",
          "name": "voteagainst",
          "type": "uint256"
        },
        {
          "internalType": "bool",
          "name": "executed",
          "type": "bool"
        }
      ],
      "stateMutability": "view",
      "type": "function"
    },
    {
      "inputs": [
        {
          "internalType": "address",
          "name": "_employee",
          "type": "address"
        }
      ],
      "name": "removeStuff",
      "outputs": [],
      "stateMutability": "nonpayable",
      "type": "function"
    },
    {
      "inputs": [
        {
          "internalType": "uint256",
          "name": "",
          "type": "uint256"
        }
      ],
      "name": "stuff",
      "outputs": [
        {
          "internalType": "address",
          "name": "",
          "type": "address"
        }
      ],
      "stateMutability": "view",
      "type": "function"
    },
    {
      "inputs": [
        {
          "internalType": "uint256",
          "name": "_proposalId",
          "type": "uint256"
        }
      ],
      "name": "voteagainst",
      "outputs": [],
      "stateMutability": "nonpayable",
      "type": "function"
    },
    {
      "inputs": [
        {
          "internalType": "uint256",
          "name": "_proposalId",
          "type": "uint256"
        }
      ],
      "name": "votefor",
      "outputs": [],
      "stateMutability": "nonpayable",
      "type": "function"
    },
    {
      "inputs": [
        {
          "internalType": "address",
          "name": "",
          "type": "address"
        },
        {
          "internalType": "uint256",
          "name": "",
          "type": "uint256"
        }
      ],
      "name": "votes",
      "outputs": [
        {
          "internalType": "bool",
          "name": "",
          "type": "bool"
        }
      ],
      "stateMutability": "view",
      "type": "function"
    }
  ],
  "bytecode": "0x60806040523480156200001157600080fd5b50604051620036883803806200368883398181016040528101906200003791906200048b565b6200007e6040518060400160405280601781526020017f44616f206465706c6f796572277320616464726573733a000000000000000000815250336200018360201b60201c565b806000806101000a81548173ffffffffffffffffffffffffffffffffffffffff021916908373ffffffffffffffffffffffffffffffffffffffff16021790555033600160006101000a81548173ffffffffffffffffffffffffffffffffffffffff021916908373ffffffffffffffffffffffffffffffffffffffff1602179055506200017c336040518060400160405280600581526020017f4d757261740000000000000000000000000000000000000000000000000000008152506040518060400160405280600881526020017f4469726563746f720000000000000000000000000000000000000000000000008152506200022960201b60201c565b5062000688565b6200022582826040516024016200019c92919062000568565b6040516020818303038152906040527f319af333000000000000000000000000000000000000000000000000000000007bffffffffffffffffffffffffffffffffffffffffffffffffffffffff19166020820180517bffffffffffffffffffffffffffffffffffffffffffffffffffffffff8381831617835250505050620003b760201b60201c565b5050565b600160009054906101000a900473ffffffffffffffffffffffffffffffffffffffff1673ffffffffffffffffffffffffffffffffffffffff163373ffffffffffffffffffffffffffffffffffffffff1614620002bc576040517f08c379a0000000000000000000000000000000000000000000000000000000008152600401620002b390620005ec565b60405180910390fd5b60008054906101000a900473ffffffffffffffffffffffffffffffffffffffff1673ffffffffffffffffffffffffffffffffffffffff1663e0b73f3f8484846040518463ffffffff1660e01b81526004016200031b939291906200060e565b600060405180830381600087803b1580156200033657600080fd5b505af11580156200034b573d6000803e3d6000fd5b505050506002839080600181540180825580915050600190039060005260206000200160009091909190916101000a81548173ffffffffffffffffffffffffffffffffffffffff021916908373ffffffffffffffffffffffffffffffffffffffff160217905550505050565b620003dd81620003d8620003e060201b62001818176200040160201b60201c565b60201c565b50565b60006a636f6e736f6c652e6c6f679050600080835160208501845afa505050565b6200041560201b6200190117819050919050565b6200041f62000659565b565b600080fd5b600073ffffffffffffffffffffffffffffffffffffffff82169050919050565b6000620004538262000426565b9050919050565b620004658162000446565b81146200047157600080fd5b50565b60008151905062000485816200045a565b92915050565b600060208284031215620004a457620004a362000421565b5b6000620004b48482850162000474565b91505092915050565b600081519050919050565b600082825260208201905092915050565b60005b83811015620004f9578082015181840152602081019050620004dc565b60008484015250505050565b6000601f19601f8301169050919050565b60006200052382620004bd565b6200052f8185620004c8565b935062000541818560208601620004d9565b6200054c8162000505565b840191505092915050565b620005628162000446565b82525050565b6000604082019050818103600083015262000584818562000516565b905062000595602083018462000557565b9392505050565b7f4e6f7420656e6f756768207065726d697373696f6e2e00000000000000000000600082015250565b6000620005d4601683620004c8565b9150620005e1826200059c565b602082019050919050565b600060208201905081810360008301526200060781620005c5565b9050919050565b600060608201905062000625600083018662000557565b818103602083015262000639818562000516565b905081810360408301526200064f818462000516565b9050949350505050565b7f4e487b7100000000000000000000000000000000000000000000000000000000600052605160045260246000fd5b612ff080620006986000396000f3fe608060405234801561001057600080fd5b50600436106101005760003560e01c806362564c48116100975780639617ed98116100665780639617ed981461029b5780639f2524ee146102cb578063a88922b3146102fb578063fe644b8c1461032c57610100565b806362564c48146102155780636ca912021461023357806387fcff0c1461024f5780638fe1f0921461027f57610100565b806332648e09116100d357806332648e091461018e5780634abefa36146101bf5780635b426bbb146101dd57806362131fd7146101f957610100565b8063013cf08b146101055780630a55cd02146101385780630cf283b1146101545780630d61b51914610172575b600080fd5b61011f600480360381019061011a9190611a2f565b61035c565b60405161012f9493929190611b16565b60405180910390f35b610152600480360381019061014d9190611bc0565b610431565b005b61015c6106d6565b6040516101699190611c4c565b60405180910390f35b61018c60048036038101906101879190611a2f565b6106fa565b005b6101a860048036038101906101a39190611bc0565b610876565b6040516101b6929190611c67565b60405180910390f35b6101c76109c0565b6040516101d49190611d5c565b60405180910390f35b6101f760048036038101906101f29190611a2f565b610a4e565b005b610213600480360381019061020e9190611a2f565b610d38565b005b61021d611022565b60405161022a9190611fe7565b60405180910390f35b61024d60048036038101906102489190612224565b61121b565b005b61026960048036038101906102649190611a2f565b6113ba565b60405161027691906122ab565b60405180910390f35b610299600480360381019061029491906122c6565b6113f9565b005b6102b560048036038101906102b09190612351565b611580565b6040516102c29190612391565b60405180910390f35b6102e560048036038101906102e09190612351565b61168d565b6040516102f29190612391565b60405180910390f35b61031560048036038101906103109190611a2f565b6116bc565b6040516103239291906123ac565b60405180910390f35b61034660048036038101906103419190611a2f565b611714565b604051610353919061245b565b60405180910390f35b6004818154811061036c57600080fd5b906000526020600020906005020160009150905080600001805461038f906124ac565b80601f01602080910402602001604051908101604052809291908181526020018280546103bb906124ac565b80156104085780601f106103dd57610100808354040283529160200191610408565b820191906000526020600020905b8154815290600101906020018083116103eb57829003601f168201915b5050505050908060010154908060020154908060030160009054906101000a900460ff16905084565b600160009054906101000a900473ffffffffffffffffffffffffffffffffffffffff1673ffffffffffffffffffffffffffffffffffffffff163373ffffffffffffffffffffffffffffffffffffffff16146104c1576040517f08c379a00000000000000000000000000000000000000000000000000000000081526004016104b89061254f565b60405180910390fd5b60008054906101000a900473ffffffffffffffffffffffffffffffffffffffff1673ffffffffffffffffffffffffffffffffffffffff16630a55cd02826040518263ffffffff1660e01b815260040161051a91906122ab565b600060405180830381600087803b15801561053457600080fd5b505af1158015610548573d6000803e3d6000fd5b5050505060005b6002805490508110156106d2578173ffffffffffffffffffffffffffffffffffffffff16600282815481106105875761058661256f565b5b9060005260206000200160009054906101000a900473ffffffffffffffffffffffffffffffffffffffff1673ffffffffffffffffffffffffffffffffffffffff16036106c557600260016002805490506105e191906125cd565b815481106105f2576105f161256f565b5b9060005260206000200160009054906101000a900473ffffffffffffffffffffffffffffffffffffffff16600282815481106106315761063061256f565b5b9060005260206000200160006101000a81548173ffffffffffffffffffffffffffffffffffffffff021916908373ffffffffffffffffffffffffffffffffffffffff160217905550600280548061068b5761068a612601565b5b6001900381819060005260206000200160006101000a81549073ffffffffffffffffffffffffffffffffffffffff021916905590556106d2565b808060010191505061054f565b5050565b60008054906101000a900473ffffffffffffffffffffffffffffffffffffffff1681565b60001515600482815481106107125761071161256f565b5b906000526020600020906005020160030160009054906101000a900460ff16151514610773576040517f08c379a000000000000000000000000000000000000000000000000000000000815260040161076a906126a2565b60405180910390fd5b600481815481106107875761078661256f565b5b906000526020600020906005020160020154600482815481106107ad576107ac61256f565b5b906000526020600020906005020160010154111561083d576001600482815481106107db576107da61256f565b5b906000526020600020906005020160030160006101000a81548160ff0219169083151502179055507f19cf08368c3c86aacb1be12c902a304c3b1d64e4f72e1aa33789a01f68ecab056040516108309061270e565b60405180910390a1610873565b7f276f61830e554c29810d2d21d6523c691bef4a9634206a55fee98c24e62c9a0560405161086a906127a0565b60405180910390a15b50565b60608060008054906101000a900473ffffffffffffffffffffffffffffffffffffffff1673ffffffffffffffffffffffffffffffffffffffff1663a0b9009b846040518263ffffffff1660e01b81526004016108d291906122ab565b600060405180830381865afa1580156108ef573d6000803e3d6000fd5b505050506040513d6000823e3d601f19601f820116820180604052508101906109189190612830565b60008054906101000a900473ffffffffffffffffffffffffffffffffffffffff1673ffffffffffffffffffffffffffffffffffffffff16633b622fa0856040518263ffffffff1660e01b815260040161097191906122ab565b600060405180830381865afa15801561098e573d6000803e3d6000fd5b505050506040513d6000823e3d601f19601f820116820180604052508101906109b79190612830565b91509150915091565b60606002805480602002602001604051908101604052809291908181526020018280548015610a4457602002820191906000526020600020905b8160009054906101000a900473ffffffffffffffffffffffffffffffffffffffff1673ffffffffffffffffffffffffffffffffffffffff16815260200190600101908083116109fa575b5050505050905090565b3373ffffffffffffffffffffffffffffffffffffffff1660008054906101000a900473ffffffffffffffffffffffffffffffffffffffff1673ffffffffffffffffffffffffffffffffffffffff16630d2425ae336040518263ffffffff1660e01b8152600401610abe91906122ab565b602060405180830381865afa158015610adb573d6000803e3d6000fd5b505050506040513d601f19601f82011682018060405250810190610aff919061288e565b73ffffffffffffffffffffffffffffffffffffffff1614610b55576040517f08c379a0000000000000000000000000000000000000000000000000000000008152600401610b4c90612907565b60405180910390fd5b60001515600360003373ffffffffffffffffffffffffffffffffffffffff1673ffffffffffffffffffffffffffffffffffffffff168152602001908152602001600020600083815260200190815260200160002060009054906101000a900460ff16151514610bf9576040517f08c379a0000000000000000000000000000000000000000000000000000000008152600401610bf090612999565b60405180910390fd5b610c033382611580565b610c42576040517f08c379a0000000000000000000000000000000000000000000000000000000008152600401610c3990612a05565b60405180910390fd5b6001600360003373ffffffffffffffffffffffffffffffffffffffff1673ffffffffffffffffffffffffffffffffffffffff168152602001908152602001600020600083815260200190815260200160002060006101000a81548160ff021916908315150217905550600160048281548110610cc157610cc061256f565b5b90600052602060002090600502016001016000828254610ce19190612a25565b92505081905550803373ffffffffffffffffffffffffffffffffffffffff167f41aeb55eef25a94e94aeac300a628610ffa8099eb2bf991b3ae640d42233467d604051610d2d90612aa5565b60405180910390a350565b3373ffffffffffffffffffffffffffffffffffffffff1660008054906101000a900473ffffffffffffffffffffffffffffffffffffffff1673ffffffffffffffffffffffffffffffffffffffff16630d2425ae336040518263ffffffff1660e01b8152600401610da891906122ab565b602060405180830381865afa158015610dc5573d6000803e3d6000fd5b505050506040513d601f19601f82011682018060405250810190610de9919061288e565b73ffffffffffffffffffffffffffffffffffffffff1614610e3f576040517f08c379a0000000000000000000000000000000000000000000000000000000008152600401610e3690612b11565b60405180910390fd5b60001515600360003373ffffffffffffffffffffffffffffffffffffffff1673ffffffffffffffffffffffffffffffffffffffff168152602001908152602001600020600083815260200190815260200160002060009054906101000a900460ff16151514610ee3576040517f08c379a0000000000000000000000000000000000000000000000000000000008152600401610eda90612999565b60405180910390fd5b610eed3382611580565b610f2c576040517f08c379a0000000000000000000000000000000000000000000000000000000008152600401610f2390612a05565b60405180910390fd5b6001600360003373ffffffffffffffffffffffffffffffffffffffff1673ffffffffffffffffffffffffffffffffffffffff168152602001908152602001600020600083815260200190815260200160002060006101000a81548160ff021916908315150217905550600160048281548110610fab57610faa61256f565b5b90600052602060002090600502016002016000828254610fcb9190612a25565b92505081905550803373ffffffffffffffffffffffffffffffffffffffff167f41aeb55eef25a94e94aeac300a628610ffa8099eb2bf991b3ae640d42233467d60405161101790612b7d565b60405180910390a350565b60606004805480602002602001604051908101604052809291908181526020016000905b8282101561121257838290600052602060002090600502016040518060a0016040529081600082018054611079906124ac565b80601f01602080910402602001604051908101604052809291908181526020018280546110a5906124ac565b80156110f25780601f106110c7576101008083540402835291602001916110f2565b820191906000526020600020905b8154815290600101906020018083116110d557829003601f168201915b5050505050815260200160018201548152602001600282015481526020016003820160009054906101000a900460ff1615151515815260200160048201805480602002602001604051908101604052809291908181526020016000905b828210156111fb57838290600052602060002001805461116e906124ac565b80601f016020809104026020016040519081016040528092919081815260200182805461119a906124ac565b80156111e75780601f106111bc576101008083540402835291602001916111e7565b820191906000526020600020905b8154815290600101906020018083116111ca57829003601f168201915b50505050508152602001906001019061114f565b505050508152505081526020019060010190611046565b50505050905090565b600160009054906101000a900473ffffffffffffffffffffffffffffffffffffffff1673ffffffffffffffffffffffffffffffffffffffff163373ffffffffffffffffffffffffffffffffffffffff16146112ab576040517f08c379a00000000000000000000000000000000000000000000000000000000081526004016112a290612c0f565b60405180910390fd5b60046040518060a00160405280848152602001600081526020016000815260200160001515815260200183815250908060018154018082558091505060019003906000526020600020906005020160009091909190915060008201518160000190816113179190612dd1565b50602082015181600101556040820151816002015560608201518160030160006101000a81548160ff021916908315150217905550608082015181600401908051906020019061136892919061190b565b505050600160048054905061137d91906125cd565b7f8956532d922732460ff2d895ae5e6ce4f8f166bc687aa580fa00a8ae14cb820383836040516113ae929190612ea3565b60405180910390a25050565b600281815481106113ca57600080fd5b906000526020600020016000915054906101000a900473ffffffffffffffffffffffffffffffffffffffff1681565b600160009054906101000a900473ffffffffffffffffffffffffffffffffffffffff1673ffffffffffffffffffffffffffffffffffffffff163373ffffffffffffffffffffffffffffffffffffffff1614611489576040517f08c379a000000000000000000000000000000000000000000000000000000000815260040161148090612f26565b60405180910390fd5b60008054906101000a900473ffffffffffffffffffffffffffffffffffffffff1673ffffffffffffffffffffffffffffffffffffffff1663e0b73f3f8484846040518463ffffffff1660e01b81526004016114e693929190612f46565b600060405180830381600087803b15801561150057600080fd5b505af1158015611514573d6000803e3d6000fd5b505050506002839080600181540180825580915050600190039060005260206000200160009091909190916101000a81548173ffffffffffffffffffffffffffffffffffffffff021916908373ffffffffffffffffffffffffffffffffffffffff160217905550505050565b60008060008054906101000a900473ffffffffffffffffffffffffffffffffffffffff1673ffffffffffffffffffffffffffffffffffffffff16633b622fa0856040518263ffffffff1660e01b81526004016115dc91906122ab565b600060405180830381865afa1580156115f9573d6000803e3d6000fd5b505050506040513d6000823e3d601f19601f820116820180604052508101906116229190612830565b9050600061162f84611714565b905060005b815181101561167f576116618282815181106116535761165261256f565b5b602002602001015184611839565b156116725760019350505050611687565b8080600101915050611634565b506000925050505b92915050565b60036020528160005260406000206020528060005260406000206000915091509054906101000a900460ff1681565b600080600483815481106116d3576116d261256f565b5b906000526020600020906005020160010154600484815481106116f9576116f861256f565b5b90600052602060002090600502016002015491509150915091565b606060006004838154811061172c5761172b61256f565b5b9060005260206000209060050201905080600401805480602002602001604051908101604052809291908181526020016000905b8282101561180c57838290600052602060002001805461177f906124ac565b80601f01602080910402602001604051908101604052809291908181526020018280546117ab906124ac565b80156117f85780601f106117cd576101008083540402835291602001916117f8565b820191906000526020600020905b8154815290600101906020018083116117db57829003601f168201915b505050505081526020019060010190611760565b50505050915050919050565b60006a636f6e736f6c652e6c6f679050600080835160208501845afa505050565b6000815183511461184d57600090506118fb565b60005b83518110156118f55782818151811061186c5761186b61256f565b5b602001015160f81c60f81b7effffffffffffffffffffffffffffffffffffffffffffffffffffffffffffff19168482815181106118ac576118ab61256f565b5b602001015160f81c60f81b7effffffffffffffffffffffffffffffffffffffffffffffffffffffffffffff1916146118e85760009150506118fb565b8080600101915050611850565b50600190505b92915050565b611909612f8b565b565b828054828255906000526020600020908101928215611953579160200282015b828111156119525782518290816119429190612dd1565b509160200191906001019061192b565b5b5090506119609190611964565b5090565b5b80821115611984576000818161197b9190611988565b50600101611965565b5090565b508054611994906124ac565b6000825580601f106119a657506119c5565b601f0160209004906000526020600020908101906119c491906119c8565b5b50565b5b808211156119e15760008160009055506001016119c9565b5090565b6000604051905090565b600080fd5b600080fd5b6000819050919050565b611a0c816119f9565b8114611a1757600080fd5b50565b600081359050611a2981611a03565b92915050565b600060208284031215611a4557611a446119ef565b5b6000611a5384828501611a1a565b91505092915050565b600081519050919050565b600082825260208201905092915050565b60005b83811015611a96578082015181840152602081019050611a7b565b60008484015250505050565b6000601f19601f8301169050919050565b6000611abe82611a5c565b611ac88185611a67565b9350611ad8818560208601611a78565b611ae181611aa2565b840191505092915050565b611af5816119f9565b82525050565b60008115159050919050565b611b1081611afb565b82525050565b60006080820190508181036000830152611b308187611ab3565b9050611b3f6020830186611aec565b611b4c6040830185611aec565b611b596060830184611b07565b95945050505050565b600073ffffffffffffffffffffffffffffffffffffffff82169050919050565b6000611b8d82611b62565b9050919050565b611b9d81611b82565b8114611ba857600080fd5b50565b600081359050611bba81611b94565b92915050565b600060208284031215611bd657611bd56119ef565b5b6000611be484828501611bab565b91505092915050565b6000819050919050565b6000611c12611c0d611c0884611b62565b611bed565b611b62565b9050919050565b6000611c2482611bf7565b9050919050565b6000611c3682611c19565b9050919050565b611c4681611c2b565b82525050565b6000602082019050611c616000830184611c3d565b92915050565b60006040820190508181036000830152611c818185611ab3565b90508181036020830152611c958184611ab3565b90509392505050565b600081519050919050565b600082825260208201905092915050565b6000819050602082019050919050565b611cd381611b82565b82525050565b6000611ce58383611cca565b60208301905092915050565b6000602082019050919050565b6000611d0982611c9e565b611d138185611ca9565b9350611d1e83611cba565b8060005b83811015611d4f578151611d368882611cd9565b9750611d4183611cf1565b925050600181019050611d22565b5085935050505092915050565b60006020820190508181036000830152611d768184611cfe565b905092915050565b600081519050919050565b600082825260208201905092915050565b6000819050602082019050919050565b600082825260208201905092915050565b6000611dc682611a5c565b611dd08185611daa565b9350611de0818560208601611a78565b611de981611aa2565b840191505092915050565b611dfd816119f9565b82525050565b611e0c81611afb565b82525050565b600081519050919050565b600082825260208201905092915050565b6000819050602082019050919050565b6000611e4a8383611dbb565b905092915050565b6000602082019050919050565b6000611e6a82611e12565b611e748185611e1d565b935083602082028501611e8685611e2e565b8060005b85811015611ec25784840389528151611ea38582611e3e565b9450611eae83611e52565b925060208a01995050600181019050611e8a565b50829750879550505050505092915050565b600060a0830160008301518482036000860152611ef18282611dbb565b9150506020830151611f066020860182611df4565b506040830151611f196040860182611df4565b506060830151611f2c6060860182611e03565b5060808301518482036080860152611f448282611e5f565b9150508091505092915050565b6000611f5d8383611ed4565b905092915050565b6000602082019050919050565b6000611f7d82611d7e565b611f878185611d89565b935083602082028501611f9985611d9a565b8060005b85811015611fd55784840389528151611fb68582611f51565b9450611fc183611f65565b925060208a01995050600181019050611f9d565b50829750879550505050505092915050565b600060208201905081810360008301526120018184611f72565b905092915050565b600080fd5b600080fd5b7f4e487b7100000000000000000000000000000000000000000000000000000000600052604160045260246000fd5b61204b82611aa2565b810181811067ffffffffffffffff8211171561206a57612069612013565b5b80604052505050565b600061207d6119e5565b90506120898282612042565b919050565b600067ffffffffffffffff8211156120a9576120a8612013565b5b6120b282611aa2565b9050602081019050919050565b82818337600083830152505050565b60006120e16120dc8461208e565b612073565b9050828152602081018484840111156120fd576120fc61200e565b5b6121088482856120bf565b509392505050565b600082601f83011261212557612124612009565b5b81356121358482602086016120ce565b91505092915050565b600067ffffffffffffffff82111561215957612158612013565b5b602082029050602081019050919050565b600080fd5b600061218261217d8461213e565b612073565b905080838252602082019050602084028301858111156121a5576121a461216a565b5b835b818110156121ec57803567ffffffffffffffff8111156121ca576121c9612009565b5b8086016121d78982612110565b855260208501945050506020810190506121a7565b5050509392505050565b600082601f83011261220b5761220a612009565b5b813561221b84826020860161216f565b91505092915050565b6000806040838503121561223b5761223a6119ef565b5b600083013567ffffffffffffffff811115612259576122586119f4565b5b61226585828601612110565b925050602083013567ffffffffffffffff811115612286576122856119f4565b5b612292858286016121f6565b9150509250929050565b6122a581611b82565b82525050565b60006020820190506122c0600083018461229c565b92915050565b6000806000606084860312156122df576122de6119ef565b5b60006122ed86828701611bab565b935050602084013567ffffffffffffffff81111561230e5761230d6119f4565b5b61231a86828701612110565b925050604084013567ffffffffffffffff81111561233b5761233a6119f4565b5b61234786828701612110565b9150509250925092565b60008060408385031215612368576123676119ef565b5b600061237685828601611bab565b925050602061238785828601611a1a565b9150509250929050565b60006020820190506123a66000830184611b07565b92915050565b60006040820190506123c16000830185611aec565b6123ce6020830184611aec565b9392505050565b600082825260208201905092915050565b60006123f182611e12565b6123fb81856123d5565b93508360208202850161240d85611e2e565b8060005b85811015612449578484038952815161242a8582611e3e565b945061243583611e52565b925060208a01995050600181019050612411565b50829750879550505050505092915050565b6000602082019050818103600083015261247581846123e6565b905092915050565b7f4e487b7100000000000000000000000000000000000000000000000000000000600052602260045260246000fd5b600060028204905060018216806124c457607f821691505b6020821081036124d7576124d661247d565b5b50919050565b7f596f75277265206e6f74207065726d697474656420746f2072656d6f7665207360008201527f746166662e000000000000000000000000000000000000000000000000000000602082015250565b6000612539602583611a67565b9150612544826124dd565b604082019050919050565b600060208201905081810360008301526125688161252c565b9050919050565b7f4e487b7100000000000000000000000000000000000000000000000000000000600052603260045260246000fd5b7f4e487b7100000000000000000000000000000000000000000000000000000000600052601160045260246000fd5b60006125d8826119f9565b91506125e3836119f9565b92508282039050818111156125fb576125fa61259e565b5b92915050565b7f4e487b7100000000000000000000000000000000000000000000000000000000600052603160045260246000fd5b7f50726f706f73616c2068617320616c7265616479206265656e2065786563757460008201527f6564000000000000000000000000000000000000000000000000000000000000602082015250565b600061268c602283611a67565b915061269782612630565b604082019050919050565b600060208201905081810360008301526126bb8161267f565b9050919050565b7f50726f706f73616c20686173206265656e20617070726f766564000000000000600082015250565b60006126f8601a83611a67565b9150612703826126c2565b602082019050919050565b60006020820190508181036000830152612727816126eb565b9050919050565b7f50726f706f73616c20686173206e6f74206265656e20617070726f766564206260008201527f79206d616a6f7269747920766f74650000000000000000000000000000000000602082015250565b600061278a602f83611a67565b91506127958261272e565b604082019050919050565b600060208201905081810360008301526127b98161277d565b9050919050565b60006127d36127ce8461208e565b612073565b9050828152602081018484840111156127ef576127ee61200e565b5b6127fa848285611a78565b509392505050565b600082601f83011261281757612816612009565b5b81516128278482602086016127c0565b91505092915050565b600060208284031215612846576128456119ef565b5b600082015167ffffffffffffffff811115612864576128636119f4565b5b61287084828501612802565b91505092915050565b60008151905061288881611b94565b92915050565b6000602082840312156128a4576128a36119ef565b5b60006128b284828501612879565b91505092915050565b7f4f6e6c792073747566662063616e20766f746500000000000000000000000000600082015250565b60006128f1601383611a67565b91506128fc826128bb565b602082019050919050565b60006020820190508181036000830152612920816128e4565b9050919050565b7f596f75206861766520616c726561647920766f74656420666f7220746869732060008201527f70726f706f73616c000000000000000000000000000000000000000000000000602082015250565b6000612983602883611a67565b915061298e82612927565b604082019050919050565b600060208201905081810360008301526129b281612976565b9050919050565b7f596f75277265206e6f7420706572746d697474656420746f20766f74652e0000600082015250565b60006129ef601e83611a67565b91506129fa826129b9565b602082019050919050565b60006020820190508181036000830152612a1e816129e2565b9050919050565b6000612a30826119f9565b9150612a3b836119f9565b9250828201905080821115612a5357612a5261259e565b5b92915050565b7f666f720000000000000000000000000000000000000000000000000000000000600082015250565b6000612a8f600383611a67565b9150612a9a82612a59565b602082019050919050565b60006020820190508181036000830152612abe81612a82565b9050919050565b7f4f6e6c79206d656d626572732063616e20766f74650000000000000000000000600082015250565b6000612afb601583611a67565b9150612b0682612ac5565b602082019050919050565b60006020820190508181036000830152612b2a81612aee565b9050919050565b7f616761696e737400000000000000000000000000000000000000000000000000600082015250565b6000612b67600783611a67565b9150612b7282612b31565b602082019050919050565b60006020820190508181036000830152612b9681612b5a565b9050919050565b7f4e6f7420656e6f756768207065726d697373696f6e20746f206372656174652060008201527f70726f706f73616c000000000000000000000000000000000000000000000000602082015250565b6000612bf9602883611a67565b9150612c0482612b9d565b604082019050919050565b60006020820190508181036000830152612c2881612bec565b9050919050565b60008190508160005260206000209050919050565b60006020601f8301049050919050565b600082821b905092915050565b600060088302612c917fffffffffffffffffffffffffffffffffffffffffffffffffffffffffffffffff82612c54565b612c9b8683612c54565b95508019841693508086168417925050509392505050565b6000612cce612cc9612cc4846119f9565b611bed565b6119f9565b9050919050565b6000819050919050565b612ce883612cb3565b612cfc612cf482612cd5565b848454612c61565b825550505050565b600090565b612d11612d04565b612d1c818484612cdf565b505050565b5b81811015612d4057612d35600082612d09565b600181019050612d22565b5050565b601f821115612d8557612d5681612c2f565b612d5f84612c44565b81016020851015612d6e578190505b612d82612d7a85612c44565b830182612d21565b50505b505050565b600082821c905092915050565b6000612da860001984600802612d8a565b1980831691505092915050565b6000612dc18383612d97565b9150826002028217905092915050565b612dda82611a5c565b67ffffffffffffffff811115612df357612df2612013565b5b612dfd82546124ac565b612e08828285612d44565b600060209050601f831160018114612e3b5760008415612e29578287015190505b612e338582612db5565b865550612e9b565b601f198416612e4986612c2f565b60005b82811015612e7157848901518255600182019150602085019450602081019050612e4c565b86831015612e8e5784890151612e8a601f891682612d97565b8355505b6001600288020188555050505b505050505050565b60006040820190508181036000830152612ebd8185611ab3565b90508181036020830152612ed181846123e6565b90509392505050565b7f4e6f7420656e6f756768207065726d697373696f6e2e00000000000000000000600082015250565b6000612f10601683611a67565b9150612f1b82612eda565b602082019050919050565b60006020820190508181036000830152612f3f81612f03565b9050919050565b6000606082019050612f5b600083018661229c565b8181036020830152612f6d8185611ab3565b90508181036040830152612f818184611ab3565b9050949350505050565b7f4e487b7100000000000000000000000000000000000000000000000000000000600052605160045260246000fdfea2646970667358221220985a896c37f432978ac6353d3d1db4b66a6e37ed6b1a3d7611b598941b8fff7564736f6c63430008180033",
  "linkReferences": {},
  "deployedLinkReferences": {}
}