{
  "_format": "hh-sol-artifact-1",
  "contractName": "Dao",
  "sourceName": "contracts/Dao.sol",
  "abi": [
    {
      "inputs": [
        {
          "internalType": "address",
          "name": "_address",
          "type": "address"
        }
      ],
      "stateMutability": "nonpayable",
      "type": "constructor"
    },
    {
      "anonymous": false,
      "inputs": [
        {
          "indexed": false,
          "internalType": "string",
          "name": "message",
          "type": "string"
        }
      ],
      "name": "ProposalAccepted",
      "type": "event"
    },
    {
      "anonymous": false,
      "inputs": [
        {
          "indexed": true,
          "internalType": "uint256",
          "name": "proposalId",
          "type": "uint256"
        },
        {
          "indexed": false,
          "internalType": "string",
          "name": "desc",
          "type": "string"
        },
        {
          "indexed": false,
          "internalType": "string[]",
          "name": "_roles",
          "type": "string[]"
        }
      ],
      "name": "ProposalCreated",
      "type": "event"
    },
    {
      "anonymous": false,
      "inputs": [
        {
          "indexed": false,
          "internalType": "string",
          "name": "reject",
          "type": "string"
        }
      ],
      "name": "ProposalRejected",
      "type": "event"
    },
    {
      "anonymous": false,
      "inputs": [
        {
          "indexed": true,
          "internalType": "address",
          "name": "voter",
          "type": "address"
        },
        {
          "indexed": true,
          "internalType": "uint256",
          "name": "proposalId",
          "type": "uint256"
        },
        {
          "indexed": false,
          "internalType": "string",
          "name": "aim",
          "type": "string"
        }
      ],
      "name": "VoteCast",
      "type": "event"
    },
    {
      "inputs": [],
      "name": "Tokens",
      "outputs": [
        {
          "internalType": "contract DaoNFT",
          "name": "",
          "type": "address"
        }
      ],
      "stateMutability": "view",
      "type": "function"
    },
    {
      "inputs": [
        {
          "internalType": "address",
          "name": "_address",
          "type": "address"
        },
        {
          "internalType": "string",
          "name": "employeeName",
          "type": "string"
        },
        {
          "internalType": "string",
          "name": "employeeRole",
          "type": "string"
        }
      ],
      "name": "addStuff",
      "outputs": [],
      "stateMutability": "nonpayable",
      "type": "function"
    },
    {
      "inputs": [
        {
          "internalType": "string",
          "name": "_desc",
          "type": "string"
        },
        {
          "internalType": "string[]",
          "name": "_roles",
          "type": "string[]"
        }
      ],
      "name": "createProposal",
      "outputs": [],
      "stateMutability": "nonpayable",
      "type": "function"
    },
    {
      "inputs": [
        {
          "internalType": "uint256",
          "name": "_proposalId",
          "type": "uint256"
        }
      ],
      "name": "executeProposal",
      "outputs": [],
      "stateMutability": "nonpayable",
      "type": "function"
    },
    {
      "inputs": [
        {
          "internalType": "address",
          "name": "_address",
          "type": "address"
        }
      ],
      "name": "getEmployee",
      "outputs": [
        {
          "internalType": "string",
          "name": "",
          "type": "string"
        },
        {
          "internalType": "string",
          "name": "",
          "type": "string"
        }
      ],
      "stateMutability": "view",
      "type": "function"
    },
    {
      "inputs": [],
      "name": "getEmployees",
      "outputs": [
        {
          "internalType": "address[]",
          "name": "",
          "type": "address[]"
        }
      ],
      "stateMutability": "view",
      "type": "function"
    },
    {
      "inputs": [
        {
          "internalType": "uint256",
          "name": "_proposalId",
          "type": "uint256"
        }
      ],
      "name": "getRoles",
      "outputs": [
        {
          "internalType": "string[]",
          "name": "",
          "type": "string[]"
        }
      ],
      "stateMutability": "view",
      "type": "function"
    },
    {
      "inputs": [
        {
          "internalType": "address",
          "name": "_address",
          "type": "address"
        },
        {
          "internalType": "uint256",
          "name": "_proposalId",
          "type": "uint256"
        }
      ],
      "name": "isSuitable",
      "outputs": [
        {
          "internalType": "bool",
          "name": "",
          "type": "bool"
        }
      ],
      "stateMutability": "view",
      "type": "function"
    },
    {
      "inputs": [
        {
          "internalType": "uint256",
          "name": "",
          "type": "uint256"
        }
      ],
      "name": "proposals",
      "outputs": [
        {
          "internalType": "string",
          "name": "desc",
          "type": "string"
        },
        {
          "internalType": "uint256",
          "name": "votefor",
          "type": "uint256"
        },
        {
          "internalType": "uint256",
          "name": "voteagainst",
          "type": "uint256"
        },
        {
          "internalType": "bool",
          "name": "executed",
          "type": "bool"
        }
      ],
      "stateMutability": "view",
      "type": "function"
    },
    {
      "inputs": [
        {
          "internalType": "address",
          "name": "_employee",
          "type": "address"
        }
      ],
      "name": "removeStuff",
      "outputs": [],
      "stateMutability": "nonpayable",
      "type": "function"
    },
    {
      "inputs": [
        {
          "internalType": "uint256",
          "name": "",
          "type": "uint256"
        }
      ],
      "name": "stuff",
      "outputs": [
        {
          "internalType": "address",
          "name": "",
          "type": "address"
        }
      ],
      "stateMutability": "view",
      "type": "function"
    },
    {
      "inputs": [
        {
          "internalType": "uint256",
          "name": "_proposalId",
          "type": "uint256"
        }
      ],
      "name": "voteagainst",
      "outputs": [],
      "stateMutability": "nonpayable",
      "type": "function"
    },
    {
      "inputs": [
        {
          "internalType": "uint256",
          "name": "_proposalId",
          "type": "uint256"
        }
      ],
      "name": "votefor",
      "outputs": [],
      "stateMutability": "nonpayable",
      "type": "function"
    },
    {
      "inputs": [
        {
          "internalType": "address",
          "name": "",
          "type": "address"
        },
        {
          "internalType": "uint256",
          "name": "",
          "type": "uint256"
        }
      ],
      "name": "votes",
      "outputs": [
        {
          "internalType": "bool",
          "name": "",
          "type": "bool"
        }
      ],
      "stateMutability": "view",
      "type": "function"
    }
  ],
  "bytecode": "0x60806040523480156200001157600080fd5b50604051620030163803806200301683398181016040528101906200003791906200048b565b6200007e6040518060400160405280601781526020017f44616f206465706c6f796572277320616464726573733a000000000000000000815250336200018360201b60201c565b806000806101000a81548173ffffffffffffffffffffffffffffffffffffffff021916908373ffffffffffffffffffffffffffffffffffffffff16021790555033600160006101000a81548173ffffffffffffffffffffffffffffffffffffffff021916908373ffffffffffffffffffffffffffffffffffffffff1602179055506200017c336040518060400160405280600581526020017f4d757261740000000000000000000000000000000000000000000000000000008152506040518060400160405280600881526020017f4469726563746f720000000000000000000000000000000000000000000000008152506200022960201b60201c565b5062000688565b6200022582826040516024016200019c92919062000568565b6040516020818303038152906040527f319af333000000000000000000000000000000000000000000000000000000007bffffffffffffffffffffffffffffffffffffffffffffffffffffffff19166020820180517bffffffffffffffffffffffffffffffffffffffffffffffffffffffff8381831617835250505050620003b760201b60201c565b5050565b600160009054906101000a900473ffffffffffffffffffffffffffffffffffffffff1673ffffffffffffffffffffffffffffffffffffffff163373ffffffffffffffffffffffffffffffffffffffff1614620002bc576040517f08c379a0000000000000000000000000000000000000000000000000000000008152600401620002b390620005ec565b60405180910390fd5b60008054906101000a900473ffffffffffffffffffffffffffffffffffffffff1673ffffffffffffffffffffffffffffffffffffffff1663e0b73f3f8484846040518463ffffffff1660e01b81526004016200031b939291906200060e565b600060405180830381600087803b1580156200033657600080fd5b505af11580156200034b573d6000803e3d6000fd5b505050506002839080600181540180825580915050600190039060005260206000200160009091909190916101000a81548173ffffffffffffffffffffffffffffffffffffffff021916908373ffffffffffffffffffffffffffffffffffffffff160217905550505050565b620003dd81620003d8620003e060201b620014d2176200040160201b60201c565b60201c565b50565b60006a636f6e736f6c652e6c6f679050600080835160208501845afa505050565b6200041560201b620015bb17819050919050565b6200041f62000659565b565b600080fd5b600073ffffffffffffffffffffffffffffffffffffffff82169050919050565b6000620004538262000426565b9050919050565b620004658162000446565b81146200047157600080fd5b50565b60008151905062000485816200045a565b92915050565b600060208284031215620004a457620004a362000421565b5b6000620004b48482850162000474565b91505092915050565b600081519050919050565b600082825260208201905092915050565b60005b83811015620004f9578082015181840152602081019050620004dc565b60008484015250505050565b6000601f19601f8301169050919050565b60006200052382620004bd565b6200052f8185620004c8565b935062000541818560208601620004d9565b6200054c8162000505565b840191505092915050565b620005628162000446565b82525050565b6000604082019050818103600083015262000584818562000516565b905062000595602083018462000557565b9392505050565b7f4e6f7420656e6f756768207065726d697373696f6e2e00000000000000000000600082015250565b6000620005d4601683620004c8565b9150620005e1826200059c565b602082019050919050565b600060208201905081810360008301526200060781620005c5565b9050919050565b600060608201905062000625600083018662000557565b818103602083015262000639818562000516565b905081810360408301526200064f818462000516565b9050949350505050565b7f4e487b7100000000000000000000000000000000000000000000000000000000600052605160045260246000fd5b61297e80620006986000396000f3fe608060405234801561001057600080fd5b50600436106100ea5760003560e01c806362131fd71161008c5780638fe1f092116100665780638fe1f0921461024b5780639617ed98146102675780639f2524ee14610297578063fe644b8c146102c7576100ea565b806362131fd7146101e35780636ca91202146101ff57806387fcff0c1461021b576100ea565b80630d61b519116100c85780630d61b5191461015c57806332648e09146101785780634abefa36146101a95780635b426bbb146101c7576100ea565b8063013cf08b146100ef5780630a55cd02146101225780630cf283b11461013e575b600080fd5b610109600480360381019061010491906116e9565b6102f7565b60405161011994939291906117d0565b60405180910390f35b61013c6004803603810190610137919061187a565b6103cc565b005b610146610671565b6040516101539190611906565b60405180910390f35b610176600480360381019061017191906116e9565b610695565b005b610192600480360381019061018d919061187a565b610811565b6040516101a0929190611921565b60405180910390f35b6101b161095b565b6040516101be9190611a16565b60405180910390f35b6101e160048036038101906101dc91906116e9565b6109e9565b005b6101fd60048036038101906101f891906116e9565b610cd3565b005b61021960048036038101906102149190611c53565b610fbd565b005b610235600480360381019061023091906116e9565b6110cc565b6040516102429190611cda565b60405180910390f35b61026560048036038101906102609190611cf5565b61110b565b005b610281600480360381019061027c9190611d80565b611292565b60405161028e9190611dc0565b60405180910390f35b6102b160048036038101906102ac9190611d80565b61139f565b6040516102be9190611dc0565b60405180910390f35b6102e160048036038101906102dc91906116e9565b6113ce565b6040516102ee9190611ee7565b60405180910390f35b6004818154811061030757600080fd5b906000526020600020906005020160009150905080600001805461032a90611f38565b80601f016020809104026020016040519081016040528092919081815260200182805461035690611f38565b80156103a35780601f10610378576101008083540402835291602001916103a3565b820191906000526020600020905b81548152906001019060200180831161038657829003601f168201915b5050505050908060010154908060020154908060030160009054906101000a900460ff16905084565b600160009054906101000a900473ffffffffffffffffffffffffffffffffffffffff1673ffffffffffffffffffffffffffffffffffffffff163373ffffffffffffffffffffffffffffffffffffffff161461045c576040517f08c379a000000000000000000000000000000000000000000000000000000000815260040161045390611fdb565b60405180910390fd5b60008054906101000a900473ffffffffffffffffffffffffffffffffffffffff1673ffffffffffffffffffffffffffffffffffffffff16630a55cd02826040518263ffffffff1660e01b81526004016104b59190611cda565b600060405180830381600087803b1580156104cf57600080fd5b505af11580156104e3573d6000803e3d6000fd5b5050505060005b60028054905081101561066d578173ffffffffffffffffffffffffffffffffffffffff166002828154811061052257610521611ffb565b5b9060005260206000200160009054906101000a900473ffffffffffffffffffffffffffffffffffffffff1673ffffffffffffffffffffffffffffffffffffffff1603610660576002600160028054905061057c9190612059565b8154811061058d5761058c611ffb565b5b9060005260206000200160009054906101000a900473ffffffffffffffffffffffffffffffffffffffff16600282815481106105cc576105cb611ffb565b5b9060005260206000200160006101000a81548173ffffffffffffffffffffffffffffffffffffffff021916908373ffffffffffffffffffffffffffffffffffffffff16021790555060028054806106265761062561208d565b5b6001900381819060005260206000200160006101000a81549073ffffffffffffffffffffffffffffffffffffffff0219169055905561066d565b80806001019150506104ea565b5050565b60008054906101000a900473ffffffffffffffffffffffffffffffffffffffff1681565b60001515600482815481106106ad576106ac611ffb565b5b906000526020600020906005020160030160009054906101000a900460ff1615151461070e576040517f08c379a00000000000000000000000000000000000000000000000000000000081526004016107059061212e565b60405180910390fd5b6004818154811061072257610721611ffb565b5b9060005260206000209060050201600201546004828154811061074857610747611ffb565b5b90600052602060002090600502016001015411156107d85760016004828154811061077657610775611ffb565b5b906000526020600020906005020160030160006101000a81548160ff0219169083151502179055507f19cf08368c3c86aacb1be12c902a304c3b1d64e4f72e1aa33789a01f68ecab056040516107cb9061219a565b60405180910390a161080e565b7f276f61830e554c29810d2d21d6523c691bef4a9634206a55fee98c24e62c9a056040516108059061222c565b60405180910390a15b50565b60608060008054906101000a900473ffffffffffffffffffffffffffffffffffffffff1673ffffffffffffffffffffffffffffffffffffffff1663a0b9009b846040518263ffffffff1660e01b815260040161086d9190611cda565b600060405180830381865afa15801561088a573d6000803e3d6000fd5b505050506040513d6000823e3d601f19601f820116820180604052508101906108b391906122bc565b60008054906101000a900473ffffffffffffffffffffffffffffffffffffffff1673ffffffffffffffffffffffffffffffffffffffff16633b622fa0856040518263ffffffff1660e01b815260040161090c9190611cda565b600060405180830381865afa158015610929573d6000803e3d6000fd5b505050506040513d6000823e3d601f19601f8201168201806040525081019061095291906122bc565b91509150915091565b606060028054806020026020016040519081016040528092919081815260200182805480156109df57602002820191906000526020600020905b8160009054906101000a900473ffffffffffffffffffffffffffffffffffffffff1673ffffffffffffffffffffffffffffffffffffffff1681526020019060010190808311610995575b5050505050905090565b3373ffffffffffffffffffffffffffffffffffffffff1660008054906101000a900473ffffffffffffffffffffffffffffffffffffffff1673ffffffffffffffffffffffffffffffffffffffff16630d2425ae336040518263ffffffff1660e01b8152600401610a599190611cda565b602060405180830381865afa158015610a76573d6000803e3d6000fd5b505050506040513d601f19601f82011682018060405250810190610a9a919061231a565b73ffffffffffffffffffffffffffffffffffffffff1614610af0576040517f08c379a0000000000000000000000000000000000000000000000000000000008152600401610ae790612393565b60405180910390fd5b60001515600360003373ffffffffffffffffffffffffffffffffffffffff1673ffffffffffffffffffffffffffffffffffffffff168152602001908152602001600020600083815260200190815260200160002060009054906101000a900460ff16151514610b94576040517f08c379a0000000000000000000000000000000000000000000000000000000008152600401610b8b90612425565b60405180910390fd5b610b9e3382611292565b610bdd576040517f08c379a0000000000000000000000000000000000000000000000000000000008152600401610bd490612491565b60405180910390fd5b6001600360003373ffffffffffffffffffffffffffffffffffffffff1673ffffffffffffffffffffffffffffffffffffffff168152602001908152602001600020600083815260200190815260200160002060006101000a81548160ff021916908315150217905550600160048281548110610c5c57610c5b611ffb565b5b90600052602060002090600502016001016000828254610c7c91906124b1565b92505081905550803373ffffffffffffffffffffffffffffffffffffffff167f41aeb55eef25a94e94aeac300a628610ffa8099eb2bf991b3ae640d42233467d604051610cc890612531565b60405180910390a350565b3373ffffffffffffffffffffffffffffffffffffffff1660008054906101000a900473ffffffffffffffffffffffffffffffffffffffff1673ffffffffffffffffffffffffffffffffffffffff16630d2425ae336040518263ffffffff1660e01b8152600401610d439190611cda565b602060405180830381865afa158015610d60573d6000803e3d6000fd5b505050506040513d601f19601f82011682018060405250810190610d84919061231a565b73ffffffffffffffffffffffffffffffffffffffff1614610dda576040517f08c379a0000000000000000000000000000000000000000000000000000000008152600401610dd190612393565b60405180910390fd5b60001515600360003373ffffffffffffffffffffffffffffffffffffffff1673ffffffffffffffffffffffffffffffffffffffff168152602001908152602001600020600083815260200190815260200160002060009054906101000a900460ff16151514610e7e576040517f08c379a0000000000000000000000000000000000000000000000000000000008152600401610e7590612425565b60405180910390fd5b610e883382611292565b610ec7576040517f08c379a0000000000000000000000000000000000000000000000000000000008152600401610ebe90612491565b60405180910390fd5b6001600360003373ffffffffffffffffffffffffffffffffffffffff1673ffffffffffffffffffffffffffffffffffffffff168152602001908152602001600020600083815260200190815260200160002060006101000a81548160ff021916908315150217905550600160048281548110610f4657610f45611ffb565b5b90600052602060002090600502016002016000828254610f6691906124b1565b92505081905550803373ffffffffffffffffffffffffffffffffffffffff167f41aeb55eef25a94e94aeac300a628610ffa8099eb2bf991b3ae640d42233467d604051610fb29061259d565b60405180910390a350565b60046040518060a0016040528084815260200160008152602001600081526020016000151581526020018381525090806001815401808255809150506001900390600052602060002090600502016000909190919091506000820151816000019081611029919061275f565b50602082015181600101556040820151816002015560608201518160030160006101000a81548160ff021916908315150217905550608082015181600401908051906020019061107a9291906115c5565b505050600160048054905061108f9190612059565b7f8956532d922732460ff2d895ae5e6ce4f8f166bc687aa580fa00a8ae14cb820383836040516110c0929190612831565b60405180910390a25050565b600281815481106110dc57600080fd5b906000526020600020016000915054906101000a900473ffffffffffffffffffffffffffffffffffffffff1681565b600160009054906101000a900473ffffffffffffffffffffffffffffffffffffffff1673ffffffffffffffffffffffffffffffffffffffff163373ffffffffffffffffffffffffffffffffffffffff161461119b576040517f08c379a0000000000000000000000000000000000000000000000000000000008152600401611192906128b4565b60405180910390fd5b60008054906101000a900473ffffffffffffffffffffffffffffffffffffffff1673ffffffffffffffffffffffffffffffffffffffff1663e0b73f3f8484846040518463ffffffff1660e01b81526004016111f8939291906128d4565b600060405180830381600087803b15801561121257600080fd5b505af1158015611226573d6000803e3d6000fd5b505050506002839080600181540180825580915050600190039060005260206000200160009091909190916101000a81548173ffffffffffffffffffffffffffffffffffffffff021916908373ffffffffffffffffffffffffffffffffffffffff160217905550505050565b60008060008054906101000a900473ffffffffffffffffffffffffffffffffffffffff1673ffffffffffffffffffffffffffffffffffffffff16633b622fa0856040518263ffffffff1660e01b81526004016112ee9190611cda565b600060405180830381865afa15801561130b573d6000803e3d6000fd5b505050506040513d6000823e3d601f19601f8201168201806040525081019061133491906122bc565b90506000611341846113ce565b905060005b81518110156113915761137382828151811061136557611364611ffb565b5b6020026020010151846114f3565b156113845760019350505050611399565b8080600101915050611346565b506000925050505b92915050565b60036020528160005260406000206020528060005260406000206000915091509054906101000a900460ff1681565b60606000600483815481106113e6576113e5611ffb565b5b9060005260206000209060050201905080600401805480602002602001604051908101604052809291908181526020016000905b828210156114c657838290600052602060002001805461143990611f38565b80601f016020809104026020016040519081016040528092919081815260200182805461146590611f38565b80156114b25780601f10611487576101008083540402835291602001916114b2565b820191906000526020600020905b81548152906001019060200180831161149557829003601f168201915b50505050508152602001906001019061141a565b50505050915050919050565b60006a636f6e736f6c652e6c6f679050600080835160208501845afa505050565b6000815183511461150757600090506115b5565b60005b83518110156115af5782818151811061152657611525611ffb565b5b602001015160f81c60f81b7effffffffffffffffffffffffffffffffffffffffffffffffffffffffffffff191684828151811061156657611565611ffb565b5b602001015160f81c60f81b7effffffffffffffffffffffffffffffffffffffffffffffffffffffffffffff1916146115a25760009150506115b5565b808060010191505061150a565b50600190505b92915050565b6115c3612919565b565b82805482825590600052602060002090810192821561160d579160200282015b8281111561160c5782518290816115fc919061275f565b50916020019190600101906115e5565b5b50905061161a919061161e565b5090565b5b8082111561163e57600081816116359190611642565b5060010161161f565b5090565b50805461164e90611f38565b6000825580601f10611660575061167f565b601f01602090049060005260206000209081019061167e9190611682565b5b50565b5b8082111561169b576000816000905550600101611683565b5090565b6000604051905090565b600080fd5b600080fd5b6000819050919050565b6116c6816116b3565b81146116d157600080fd5b50565b6000813590506116e3816116bd565b92915050565b6000602082840312156116ff576116fe6116a9565b5b600061170d848285016116d4565b91505092915050565b600081519050919050565b600082825260208201905092915050565b60005b83811015611750578082015181840152602081019050611735565b60008484015250505050565b6000601f19601f8301169050919050565b600061177882611716565b6117828185611721565b9350611792818560208601611732565b61179b8161175c565b840191505092915050565b6117af816116b3565b82525050565b60008115159050919050565b6117ca816117b5565b82525050565b600060808201905081810360008301526117ea818761176d565b90506117f960208301866117a6565b61180660408301856117a6565b61181360608301846117c1565b95945050505050565b600073ffffffffffffffffffffffffffffffffffffffff82169050919050565b60006118478261181c565b9050919050565b6118578161183c565b811461186257600080fd5b50565b6000813590506118748161184e565b92915050565b6000602082840312156118905761188f6116a9565b5b600061189e84828501611865565b91505092915050565b6000819050919050565b60006118cc6118c76118c28461181c565b6118a7565b61181c565b9050919050565b60006118de826118b1565b9050919050565b60006118f0826118d3565b9050919050565b611900816118e5565b82525050565b600060208201905061191b60008301846118f7565b92915050565b6000604082019050818103600083015261193b818561176d565b9050818103602083015261194f818461176d565b90509392505050565b600081519050919050565b600082825260208201905092915050565b6000819050602082019050919050565b61198d8161183c565b82525050565b600061199f8383611984565b60208301905092915050565b6000602082019050919050565b60006119c382611958565b6119cd8185611963565b93506119d883611974565b8060005b83811015611a095781516119f08882611993565b97506119fb836119ab565b9250506001810190506119dc565b5085935050505092915050565b60006020820190508181036000830152611a3081846119b8565b905092915050565b600080fd5b600080fd5b7f4e487b7100000000000000000000000000000000000000000000000000000000600052604160045260246000fd5b611a7a8261175c565b810181811067ffffffffffffffff82111715611a9957611a98611a42565b5b80604052505050565b6000611aac61169f565b9050611ab88282611a71565b919050565b600067ffffffffffffffff821115611ad857611ad7611a42565b5b611ae18261175c565b9050602081019050919050565b82818337600083830152505050565b6000611b10611b0b84611abd565b611aa2565b905082815260208101848484011115611b2c57611b2b611a3d565b5b611b37848285611aee565b509392505050565b600082601f830112611b5457611b53611a38565b5b8135611b64848260208601611afd565b91505092915050565b600067ffffffffffffffff821115611b8857611b87611a42565b5b602082029050602081019050919050565b600080fd5b6000611bb1611bac84611b6d565b611aa2565b90508083825260208201905060208402830185811115611bd457611bd3611b99565b5b835b81811015611c1b57803567ffffffffffffffff811115611bf957611bf8611a38565b5b808601611c068982611b3f565b85526020850194505050602081019050611bd6565b5050509392505050565b600082601f830112611c3a57611c39611a38565b5b8135611c4a848260208601611b9e565b91505092915050565b60008060408385031215611c6a57611c696116a9565b5b600083013567ffffffffffffffff811115611c8857611c876116ae565b5b611c9485828601611b3f565b925050602083013567ffffffffffffffff811115611cb557611cb46116ae565b5b611cc185828601611c25565b9150509250929050565b611cd48161183c565b82525050565b6000602082019050611cef6000830184611ccb565b92915050565b600080600060608486031215611d0e57611d0d6116a9565b5b6000611d1c86828701611865565b935050602084013567ffffffffffffffff811115611d3d57611d3c6116ae565b5b611d4986828701611b3f565b925050604084013567ffffffffffffffff811115611d6a57611d696116ae565b5b611d7686828701611b3f565b9150509250925092565b60008060408385031215611d9757611d966116a9565b5b6000611da585828601611865565b9250506020611db6858286016116d4565b9150509250929050565b6000602082019050611dd560008301846117c1565b92915050565b600081519050919050565b600082825260208201905092915050565b6000819050602082019050919050565b600082825260208201905092915050565b6000611e2382611716565b611e2d8185611e07565b9350611e3d818560208601611732565b611e468161175c565b840191505092915050565b6000611e5d8383611e18565b905092915050565b6000602082019050919050565b6000611e7d82611ddb565b611e878185611de6565b935083602082028501611e9985611df7565b8060005b85811015611ed55784840389528151611eb68582611e51565b9450611ec183611e65565b925060208a01995050600181019050611e9d565b50829750879550505050505092915050565b60006020820190508181036000830152611f018184611e72565b905092915050565b7f4e487b7100000000000000000000000000000000000000000000000000000000600052602260045260246000fd5b60006002820490506001821680611f5057607f821691505b602082108103611f6357611f62611f09565b5b50919050565b7f596f75277265206e6f74207065726d697474656420746f2072656d6f7665207360008201527f746166662e000000000000000000000000000000000000000000000000000000602082015250565b6000611fc5602583611721565b9150611fd082611f69565b604082019050919050565b60006020820190508181036000830152611ff481611fb8565b9050919050565b7f4e487b7100000000000000000000000000000000000000000000000000000000600052603260045260246000fd5b7f4e487b7100000000000000000000000000000000000000000000000000000000600052601160045260246000fd5b6000612064826116b3565b915061206f836116b3565b92508282039050818111156120875761208661202a565b5b92915050565b7f4e487b7100000000000000000000000000000000000000000000000000000000600052603160045260246000fd5b7f50726f706f73616c2068617320616c7265616479206265656e2065786563757460008201527f6564000000000000000000000000000000000000000000000000000000000000602082015250565b6000612118602283611721565b9150612123826120bc565b604082019050919050565b600060208201905081810360008301526121478161210b565b9050919050565b7f50726f706f73616c20686173206265656e20617070726f766564000000000000600082015250565b6000612184601a83611721565b915061218f8261214e565b602082019050919050565b600060208201905081810360008301526121b381612177565b9050919050565b7f50726f706f73616c20686173206e6f74206265656e20617070726f766564206260008201527f79206d616a6f7269747920766f74650000000000000000000000000000000000602082015250565b6000612216602f83611721565b9150612221826121ba565b604082019050919050565b6000602082019050818103600083015261224581612209565b9050919050565b600061225f61225a84611abd565b611aa2565b90508281526020810184848401111561227b5761227a611a3d565b5b612286848285611732565b509392505050565b600082601f8301126122a3576122a2611a38565b5b81516122b384826020860161224c565b91505092915050565b6000602082840312156122d2576122d16116a9565b5b600082015167ffffffffffffffff8111156122f0576122ef6116ae565b5b6122fc8482850161228e565b91505092915050565b6000815190506123148161184e565b92915050565b6000602082840312156123305761232f6116a9565b5b600061233e84828501612305565b91505092915050565b7f4f6e6c79206d656d626572732063616e20766f74650000000000000000000000600082015250565b600061237d601583611721565b915061238882612347565b602082019050919050565b600060208201905081810360008301526123ac81612370565b9050919050565b7f596f75206861766520616c726561647920766f74656420666f7220746869732060008201527f70726f706f73616c000000000000000000000000000000000000000000000000602082015250565b600061240f602883611721565b915061241a826123b3565b604082019050919050565b6000602082019050818103600083015261243e81612402565b9050919050565b7f596f75277265206e6f7420706572746d697474656420746f20766f74652e0000600082015250565b600061247b601e83611721565b915061248682612445565b602082019050919050565b600060208201905081810360008301526124aa8161246e565b9050919050565b60006124bc826116b3565b91506124c7836116b3565b92508282019050808211156124df576124de61202a565b5b92915050565b7f666f720000000000000000000000000000000000000000000000000000000000600082015250565b600061251b600383611721565b9150612526826124e5565b602082019050919050565b6000602082019050818103600083015261254a8161250e565b9050919050565b7f616761696e737400000000000000000000000000000000000000000000000000600082015250565b6000612587600783611721565b915061259282612551565b602082019050919050565b600060208201905081810360008301526125b68161257a565b9050919050565b60008190508160005260206000209050919050565b60006020601f8301049050919050565b600082821b905092915050565b60006008830261261f7fffffffffffffffffffffffffffffffffffffffffffffffffffffffffffffffff826125e2565b61262986836125e2565b95508019841693508086168417925050509392505050565b600061265c612657612652846116b3565b6118a7565b6116b3565b9050919050565b6000819050919050565b61267683612641565b61268a61268282612663565b8484546125ef565b825550505050565b600090565b61269f612692565b6126aa81848461266d565b505050565b5b818110156126ce576126c3600082612697565b6001810190506126b0565b5050565b601f821115612713576126e4816125bd565b6126ed846125d2565b810160208510156126fc578190505b612710612708856125d2565b8301826126af565b50505b505050565b600082821c905092915050565b600061273660001984600802612718565b1980831691505092915050565b600061274f8383612725565b9150826002028217905092915050565b61276882611716565b67ffffffffffffffff81111561278157612780611a42565b5b61278b8254611f38565b6127968282856126d2565b600060209050601f8311600181146127c957600084156127b7578287015190505b6127c18582612743565b865550612829565b601f1984166127d7866125bd565b60005b828110156127ff578489015182556001820191506020850194506020810190506127da565b8683101561281c5784890151612818601f891682612725565b8355505b6001600288020188555050505b505050505050565b6000604082019050818103600083015261284b818561176d565b9050818103602083015261285f8184611e72565b90509392505050565b7f4e6f7420656e6f756768207065726d697373696f6e2e00000000000000000000600082015250565b600061289e601683611721565b91506128a982612868565b602082019050919050565b600060208201905081810360008301526128cd81612891565b9050919050565b60006060820190506128e96000830186611ccb565b81810360208301526128fb818561176d565b9050818103604083015261290f818461176d565b9050949350505050565b7f4e487b7100000000000000000000000000000000000000000000000000000000600052605160045260246000fdfea2646970667358221220d4e4ece44b32474dc5fa4cf95ab1d73efa3884b74bc97af8e19bf568ee1f833664736f6c63430008180033",
  "linkReferences": {},
  "deployedLinkReferences": {}
}