{
  "_format": "hh-sol-artifact-1",
  "contractName": "Dao",
  "sourceName": "contracts/Dao.sol",
  "abi": [
    {
      "inputs": [
        {
          "internalType": "address",
          "name": "_address",
          "type": "address"
        }
      ],
      "stateMutability": "nonpayable",
      "type": "constructor"
    },
    {
      "anonymous": false,
      "inputs": [
        {
          "indexed": false,
          "internalType": "string",
          "name": "message",
          "type": "string"
        }
      ],
      "name": "ProposalAccepted",
      "type": "event"
    },
    {
      "anonymous": false,
      "inputs": [
        {
          "indexed": true,
          "internalType": "uint256",
          "name": "proposalId",
          "type": "uint256"
        },
        {
          "indexed": false,
          "internalType": "string",
          "name": "desc",
          "type": "string"
        },
        {
          "indexed": false,
          "internalType": "string[]",
          "name": "_roles",
          "type": "string[]"
        }
      ],
      "name": "ProposalCreated",
      "type": "event"
    },
    {
      "anonymous": false,
      "inputs": [
        {
          "indexed": false,
          "internalType": "string",
          "name": "reject",
          "type": "string"
        }
      ],
      "name": "ProposalRejected",
      "type": "event"
    },
    {
      "anonymous": false,
      "inputs": [
        {
          "indexed": true,
          "internalType": "address",
          "name": "voter",
          "type": "address"
        },
        {
          "indexed": true,
          "internalType": "uint256",
          "name": "proposalId",
          "type": "uint256"
        },
        {
          "indexed": false,
          "internalType": "string",
          "name": "aim",
          "type": "string"
        }
      ],
      "name": "VoteCast",
      "type": "event"
    },
    {
      "inputs": [],
      "name": "Tokens",
      "outputs": [
        {
          "internalType": "contract DaoNFT",
          "name": "",
          "type": "address"
        }
      ],
      "stateMutability": "view",
      "type": "function"
    },
    {
      "inputs": [
        {
          "internalType": "address",
          "name": "_address",
          "type": "address"
        },
        {
          "internalType": "string",
          "name": "employeeName",
          "type": "string"
        },
        {
          "internalType": "string",
          "name": "employeeRole",
          "type": "string"
        }
      ],
      "name": "addStuff",
      "outputs": [],
      "stateMutability": "nonpayable",
      "type": "function"
    },
    {
      "inputs": [
        {
          "internalType": "string",
          "name": "_desc",
          "type": "string"
        },
        {
          "internalType": "string[]",
          "name": "_roles",
          "type": "string[]"
        }
      ],
      "name": "createProposal",
      "outputs": [],
      "stateMutability": "nonpayable",
      "type": "function"
    },
    {
      "inputs": [
        {
          "internalType": "uint256",
          "name": "_proposalId",
          "type": "uint256"
        }
      ],
      "name": "executeProposal",
      "outputs": [],
      "stateMutability": "nonpayable",
      "type": "function"
    },
    {
      "inputs": [
        {
          "internalType": "address",
          "name": "_address",
          "type": "address"
        }
      ],
      "name": "getEmployee",
      "outputs": [
        {
          "internalType": "string",
          "name": "",
          "type": "string"
        },
        {
          "internalType": "string",
          "name": "",
          "type": "string"
        }
      ],
      "stateMutability": "view",
      "type": "function"
    },
    {
      "inputs": [],
      "name": "getEmployees",
      "outputs": [
        {
          "internalType": "address[]",
          "name": "",
          "type": "address[]"
        }
      ],
      "stateMutability": "view",
      "type": "function"
    },
    {
      "inputs": [],
      "name": "getProposals",
      "outputs": [
        {
          "components": [
            {
              "internalType": "string",
              "name": "desc",
              "type": "string"
            },
            {
              "internalType": "uint256",
              "name": "votefor",
              "type": "uint256"
            },
            {
              "internalType": "uint256",
              "name": "voteagainst",
              "type": "uint256"
            },
            {
              "internalType": "bool",
              "name": "executed",
              "type": "bool"
            },
            {
              "internalType": "string[]",
              "name": "roles",
              "type": "string[]"
            }
          ],
          "internalType": "struct Dao.Proposal[]",
          "name": "",
          "type": "tuple[]"
        }
      ],
      "stateMutability": "view",
      "type": "function"
    },
    {
      "inputs": [
        {
          "internalType": "uint256",
          "name": "_proposalId",
          "type": "uint256"
        }
      ],
      "name": "getRoles",
      "outputs": [
        {
          "internalType": "string[]",
          "name": "",
          "type": "string[]"
        }
      ],
      "stateMutability": "view",
      "type": "function"
    },
    {
      "inputs": [
        {
          "internalType": "uint256",
          "name": "_proposalId",
          "type": "uint256"
        }
      ],
      "name": "getVoteResults",
      "outputs": [
        {
          "internalType": "uint256",
          "name": "votefor",
          "type": "uint256"
        },
        {
          "internalType": "uint256",
          "name": "voteagainst",
          "type": "uint256"
        }
      ],
      "stateMutability": "view",
      "type": "function"
    },
    {
      "inputs": [
        {
          "internalType": "address",
          "name": "_address",
          "type": "address"
        },
        {
          "internalType": "uint256",
          "name": "_proposalId",
          "type": "uint256"
        }
      ],
      "name": "isSuitable",
      "outputs": [
        {
          "internalType": "bool",
          "name": "",
          "type": "bool"
        }
      ],
      "stateMutability": "view",
      "type": "function"
    },
    {
      "inputs": [
        {
          "internalType": "uint256",
          "name": "",
          "type": "uint256"
        }
      ],
      "name": "proposals",
      "outputs": [
        {
          "internalType": "string",
          "name": "desc",
          "type": "string"
        },
        {
          "internalType": "uint256",
          "name": "votefor",
          "type": "uint256"
        },
        {
          "internalType": "uint256",
          "name": "voteagainst",
          "type": "uint256"
        },
        {
          "internalType": "bool",
          "name": "executed",
          "type": "bool"
        }
      ],
      "stateMutability": "view",
      "type": "function"
    },
    {
      "inputs": [
        {
          "internalType": "address",
          "name": "_employee",
          "type": "address"
        }
      ],
      "name": "removeStuff",
      "outputs": [],
      "stateMutability": "nonpayable",
      "type": "function"
    },
    {
      "inputs": [
        {
          "internalType": "uint256",
          "name": "",
          "type": "uint256"
        }
      ],
      "name": "stuff",
      "outputs": [
        {
          "internalType": "address",
          "name": "",
          "type": "address"
        }
      ],
      "stateMutability": "view",
      "type": "function"
    },
    {
      "inputs": [
        {
          "internalType": "uint256",
          "name": "_proposalId",
          "type": "uint256"
        }
      ],
      "name": "voteagainst",
      "outputs": [],
      "stateMutability": "nonpayable",
      "type": "function"
    },
    {
      "inputs": [
        {
          "internalType": "uint256",
          "name": "_proposalId",
          "type": "uint256"
        }
      ],
      "name": "votefor",
      "outputs": [],
      "stateMutability": "nonpayable",
      "type": "function"
    },
    {
      "inputs": [
        {
          "internalType": "address",
          "name": "",
          "type": "address"
        },
        {
          "internalType": "uint256",
          "name": "",
          "type": "uint256"
        }
      ],
      "name": "votes",
      "outputs": [
        {
          "internalType": "bool",
          "name": "",
          "type": "bool"
        }
      ],
      "stateMutability": "view",
      "type": "function"
    }
  ],
  "bytecode": "0x60806040523480156200001157600080fd5b506040516200337638038062003376833981810160405281019062000037919062000334565b806000806101000a81548173ffffffffffffffffffffffffffffffffffffffff021916908373ffffffffffffffffffffffffffffffffffffffff16021790555033600160006101000a81548173ffffffffffffffffffffffffffffffffffffffff021916908373ffffffffffffffffffffffffffffffffffffffff16021790555062000135336040518060400160405280600581526020017f4d757261740000000000000000000000000000000000000000000000000000008152506040518060400160405280600881526020017f4469726563746f720000000000000000000000000000000000000000000000008152506200013c60201b60201c565b50620004ce565b600160009054906101000a900473ffffffffffffffffffffffffffffffffffffffff1673ffffffffffffffffffffffffffffffffffffffff163373ffffffffffffffffffffffffffffffffffffffff1614620001cf576040517f08c379a0000000000000000000000000000000000000000000000000000000008152600401620001c690620003c7565b60405180910390fd5b60008054906101000a900473ffffffffffffffffffffffffffffffffffffffff1673ffffffffffffffffffffffffffffffffffffffff1663e0b73f3f8484846040518463ffffffff1660e01b81526004016200022e9392919062000483565b600060405180830381600087803b1580156200024957600080fd5b505af11580156200025e573d6000803e3d6000fd5b505050506002839080600181540180825580915050600190039060005260206000200160009091909190916101000a81548173ffffffffffffffffffffffffffffffffffffffff021916908373ffffffffffffffffffffffffffffffffffffffff160217905550505050565b600080fd5b600073ffffffffffffffffffffffffffffffffffffffff82169050919050565b6000620002fc82620002cf565b9050919050565b6200030e81620002ef565b81146200031a57600080fd5b50565b6000815190506200032e8162000303565b92915050565b6000602082840312156200034d576200034c620002ca565b5b60006200035d848285016200031d565b91505092915050565b600082825260208201905092915050565b7f4e6f7420656e6f756768207065726d697373696f6e2e00000000000000000000600082015250565b6000620003af60168362000366565b9150620003bc8262000377565b602082019050919050565b60006020820190508181036000830152620003e281620003a0565b9050919050565b620003f481620002ef565b82525050565b600081519050919050565b60005b838110156200042557808201518184015260208101905062000408565b60008484015250505050565b6000601f19601f8301169050919050565b60006200044f82620003fa565b6200045b818562000366565b93506200046d81856020860162000405565b620004788162000431565b840191505092915050565b60006060820190506200049a6000830186620003e9565b8181036020830152620004ae818562000442565b90508181036040830152620004c4818462000442565b9050949350505050565b612e9880620004de6000396000f3fe608060405234801561001057600080fd5b50600436106101005760003560e01c806362564c48116100975780639617ed98116100665780639617ed981461029b5780639f2524ee146102cb578063a88922b3146102fb578063fe644b8c1461032c57610100565b806362564c48146102155780636ca912021461023357806387fcff0c1461024f5780638fe1f0921461027f57610100565b806332648e09116100d357806332648e091461018e5780634abefa36146101bf5780635b426bbb146101dd57806362131fd7146101f957610100565b8063013cf08b146101055780630a55cd02146101385780630cf283b1146101545780630d61b51914610172575b600080fd5b61011f600480360381019061011a9190611972565b61035c565b60405161012f9493929190611a59565b60405180910390f35b610152600480360381019061014d9190611b03565b610431565b005b61015c6106d6565b6040516101699190611b8f565b60405180910390f35b61018c60048036038101906101879190611972565b6106fa565b005b6101a860048036038101906101a39190611b03565b610876565b6040516101b6929190611baa565b60405180910390f35b6101c76109c0565b6040516101d49190611c9f565b60405180910390f35b6101f760048036038101906101f29190611972565b610a4e565b005b610213600480360381019061020e9190611972565b610cef565b005b61021d610f90565b60405161022a9190611f2a565b60405180910390f35b61024d60048036038101906102489190612167565b611189565b005b61026960048036038101906102649190611972565b611328565b60405161027691906121ee565b60405180910390f35b61029960048036038101906102949190612209565b611367565b005b6102b560048036038101906102b09190612294565b6114ee565b6040516102c291906122d4565b60405180910390f35b6102e560048036038101906102e09190612294565b6115fb565b6040516102f291906122d4565b60405180910390f35b61031560048036038101906103109190611972565b61162a565b6040516103239291906122ef565b60405180910390f35b61034660048036038101906103419190611972565b611682565b604051610353919061239e565b60405180910390f35b6004818154811061036c57600080fd5b906000526020600020906005020160009150905080600001805461038f906123ef565b80601f01602080910402602001604051908101604052809291908181526020018280546103bb906123ef565b80156104085780601f106103dd57610100808354040283529160200191610408565b820191906000526020600020905b8154815290600101906020018083116103eb57829003601f168201915b5050505050908060010154908060020154908060030160009054906101000a900460ff16905084565b600160009054906101000a900473ffffffffffffffffffffffffffffffffffffffff1673ffffffffffffffffffffffffffffffffffffffff163373ffffffffffffffffffffffffffffffffffffffff16146104c1576040517f08c379a00000000000000000000000000000000000000000000000000000000081526004016104b890612492565b60405180910390fd5b60008054906101000a900473ffffffffffffffffffffffffffffffffffffffff1673ffffffffffffffffffffffffffffffffffffffff16630a55cd02826040518263ffffffff1660e01b815260040161051a91906121ee565b600060405180830381600087803b15801561053457600080fd5b505af1158015610548573d6000803e3d6000fd5b5050505060005b6002805490508110156106d2578173ffffffffffffffffffffffffffffffffffffffff1660028281548110610587576105866124b2565b5b9060005260206000200160009054906101000a900473ffffffffffffffffffffffffffffffffffffffff1673ffffffffffffffffffffffffffffffffffffffff16036106c557600260016002805490506105e19190612510565b815481106105f2576105f16124b2565b5b9060005260206000200160009054906101000a900473ffffffffffffffffffffffffffffffffffffffff1660028281548110610631576106306124b2565b5b9060005260206000200160006101000a81548173ffffffffffffffffffffffffffffffffffffffff021916908373ffffffffffffffffffffffffffffffffffffffff160217905550600280548061068b5761068a612544565b5b6001900381819060005260206000200160006101000a81549073ffffffffffffffffffffffffffffffffffffffff021916905590556106d2565b808060010191505061054f565b5050565b60008054906101000a900473ffffffffffffffffffffffffffffffffffffffff1681565b6000151560048281548110610712576107116124b2565b5b906000526020600020906005020160030160009054906101000a900460ff16151514610773576040517f08c379a000000000000000000000000000000000000000000000000000000000815260040161076a906125e5565b60405180910390fd5b60048181548110610787576107866124b2565b5b906000526020600020906005020160020154600482815481106107ad576107ac6124b2565b5b906000526020600020906005020160010154111561083d576001600482815481106107db576107da6124b2565b5b906000526020600020906005020160030160006101000a81548160ff0219169083151502179055507f19cf08368c3c86aacb1be12c902a304c3b1d64e4f72e1aa33789a01f68ecab0560405161083090612651565b60405180910390a1610873565b7f276f61830e554c29810d2d21d6523c691bef4a9634206a55fee98c24e62c9a0560405161086a906126e3565b60405180910390a15b50565b60608060008054906101000a900473ffffffffffffffffffffffffffffffffffffffff1673ffffffffffffffffffffffffffffffffffffffff1663a0b9009b846040518263ffffffff1660e01b81526004016108d291906121ee565b600060405180830381865afa1580156108ef573d6000803e3d6000fd5b505050506040513d6000823e3d601f19601f820116820180604052508101906109189190612773565b60008054906101000a900473ffffffffffffffffffffffffffffffffffffffff1673ffffffffffffffffffffffffffffffffffffffff16633b622fa0856040518263ffffffff1660e01b815260040161097191906121ee565b600060405180830381865afa15801561098e573d6000803e3d6000fd5b505050506040513d6000823e3d601f19601f820116820180604052508101906109b79190612773565b91509150915091565b60606002805480602002602001604051908101604052809291908181526020018280548015610a4457602002820191906000526020600020905b8160009054906101000a900473ffffffffffffffffffffffffffffffffffffffff1673ffffffffffffffffffffffffffffffffffffffff16815260200190600101908083116109fa575b5050505050905090565b3373ffffffffffffffffffffffffffffffffffffffff1660008054906101000a900473ffffffffffffffffffffffffffffffffffffffff1673ffffffffffffffffffffffffffffffffffffffff16630d2425ae336040518263ffffffff1660e01b8152600401610abe91906121ee565b602060405180830381865afa158015610adb573d6000803e3d6000fd5b505050506040513d601f19601f82011682018060405250810190610aff91906127d1565b73ffffffffffffffffffffffffffffffffffffffff1614610b55576040517f08c379a0000000000000000000000000000000000000000000000000000000008152600401610b4c9061284a565b60405180910390fd5b60001515600360003373ffffffffffffffffffffffffffffffffffffffff1673ffffffffffffffffffffffffffffffffffffffff168152602001908152602001600020600083815260200190815260200160002060009054906101000a900460ff16151514610bf9576040517f08c379a0000000000000000000000000000000000000000000000000000000008152600401610bf0906128dc565b60405180910390fd5b6001600360003373ffffffffffffffffffffffffffffffffffffffff1673ffffffffffffffffffffffffffffffffffffffff168152602001908152602001600020600083815260200190815260200160002060006101000a81548160ff021916908315150217905550600160048281548110610c7857610c776124b2565b5b90600052602060002090600502016001016000828254610c9891906128fc565b92505081905550803373ffffffffffffffffffffffffffffffffffffffff167f41aeb55eef25a94e94aeac300a628610ffa8099eb2bf991b3ae640d42233467d604051610ce49061297c565b60405180910390a350565b3373ffffffffffffffffffffffffffffffffffffffff1660008054906101000a900473ffffffffffffffffffffffffffffffffffffffff1673ffffffffffffffffffffffffffffffffffffffff16630d2425ae336040518263ffffffff1660e01b8152600401610d5f91906121ee565b602060405180830381865afa158015610d7c573d6000803e3d6000fd5b505050506040513d601f19601f82011682018060405250810190610da091906127d1565b73ffffffffffffffffffffffffffffffffffffffff1614610df6576040517f08c379a0000000000000000000000000000000000000000000000000000000008152600401610ded906129e8565b60405180910390fd5b60001515600360003373ffffffffffffffffffffffffffffffffffffffff1673ffffffffffffffffffffffffffffffffffffffff168152602001908152602001600020600083815260200190815260200160002060009054906101000a900460ff16151514610e9a576040517f08c379a0000000000000000000000000000000000000000000000000000000008152600401610e91906128dc565b60405180910390fd5b6001600360003373ffffffffffffffffffffffffffffffffffffffff1673ffffffffffffffffffffffffffffffffffffffff168152602001908152602001600020600083815260200190815260200160002060006101000a81548160ff021916908315150217905550600160048281548110610f1957610f186124b2565b5b90600052602060002090600502016002016000828254610f3991906128fc565b92505081905550803373ffffffffffffffffffffffffffffffffffffffff167f41aeb55eef25a94e94aeac300a628610ffa8099eb2bf991b3ae640d42233467d604051610f8590612a54565b60405180910390a350565b60606004805480602002602001604051908101604052809291908181526020016000905b8282101561118057838290600052602060002090600502016040518060a0016040529081600082018054610fe7906123ef565b80601f0160208091040260200160405190810160405280929190818152602001828054611013906123ef565b80156110605780601f1061103557610100808354040283529160200191611060565b820191906000526020600020905b81548152906001019060200180831161104357829003601f168201915b5050505050815260200160018201548152602001600282015481526020016003820160009054906101000a900460ff1615151515815260200160048201805480602002602001604051908101604052809291908181526020016000905b828210156111695783829060005260206000200180546110dc906123ef565b80601f0160208091040260200160405190810160405280929190818152602001828054611108906123ef565b80156111555780601f1061112a57610100808354040283529160200191611155565b820191906000526020600020905b81548152906001019060200180831161113857829003601f168201915b5050505050815260200190600101906110bd565b505050508152505081526020019060010190610fb4565b50505050905090565b600160009054906101000a900473ffffffffffffffffffffffffffffffffffffffff1673ffffffffffffffffffffffffffffffffffffffff163373ffffffffffffffffffffffffffffffffffffffff1614611219576040517f08c379a000000000000000000000000000000000000000000000000000000000815260040161121090612ae6565b60405180910390fd5b60046040518060a00160405280848152602001600081526020016000815260200160001515815260200183815250908060018154018082558091505060019003906000526020600020906005020160009091909190915060008201518160000190816112859190612ca8565b50602082015181600101556040820151816002015560608201518160030160006101000a81548160ff02191690831515021790555060808201518160040190805190602001906112d692919061184e565b50505060016004805490506112eb9190612510565b7f8956532d922732460ff2d895ae5e6ce4f8f166bc687aa580fa00a8ae14cb8203838360405161131c929190612d7a565b60405180910390a25050565b6002818154811061133857600080fd5b906000526020600020016000915054906101000a900473ffffffffffffffffffffffffffffffffffffffff1681565b600160009054906101000a900473ffffffffffffffffffffffffffffffffffffffff1673ffffffffffffffffffffffffffffffffffffffff163373ffffffffffffffffffffffffffffffffffffffff16146113f7576040517f08c379a00000000000000000000000000000000000000000000000000000000081526004016113ee90612dfd565b60405180910390fd5b60008054906101000a900473ffffffffffffffffffffffffffffffffffffffff1673ffffffffffffffffffffffffffffffffffffffff1663e0b73f3f8484846040518463ffffffff1660e01b815260040161145493929190612e1d565b600060405180830381600087803b15801561146e57600080fd5b505af1158015611482573d6000803e3d6000fd5b505050506002839080600181540180825580915050600190039060005260206000200160009091909190916101000a81548173ffffffffffffffffffffffffffffffffffffffff021916908373ffffffffffffffffffffffffffffffffffffffff160217905550505050565b60008060008054906101000a900473ffffffffffffffffffffffffffffffffffffffff1673ffffffffffffffffffffffffffffffffffffffff16633b622fa0856040518263ffffffff1660e01b815260040161154a91906121ee565b600060405180830381865afa158015611567573d6000803e3d6000fd5b505050506040513d6000823e3d601f19601f820116820180604052508101906115909190612773565b9050600061159d84611682565b905060005b81518110156115ed576115cf8282815181106115c1576115c06124b2565b5b602002602001015184611786565b156115e057600193505050506115f5565b80806001019150506115a2565b506000925050505b92915050565b60036020528160005260406000206020528060005260406000206000915091509054906101000a900460ff1681565b60008060048381548110611641576116406124b2565b5b90600052602060002090600502016001015460048481548110611667576116666124b2565b5b90600052602060002090600502016002015491509150915091565b606060006004838154811061169a576116996124b2565b5b9060005260206000209060050201905080600401805480602002602001604051908101604052809291908181526020016000905b8282101561177a5783829060005260206000200180546116ed906123ef565b80601f0160208091040260200160405190810160405280929190818152602001828054611719906123ef565b80156117665780601f1061173b57610100808354040283529160200191611766565b820191906000526020600020905b81548152906001019060200180831161174957829003601f168201915b5050505050815260200190600101906116ce565b50505050915050919050565b6000815183511461179a5760009050611848565b60005b8351811015611842578281815181106117b9576117b86124b2565b5b602001015160f81c60f81b7effffffffffffffffffffffffffffffffffffffffffffffffffffffffffffff19168482815181106117f9576117f86124b2565b5b602001015160f81c60f81b7effffffffffffffffffffffffffffffffffffffffffffffffffffffffffffff191614611835576000915050611848565b808060010191505061179d565b50600190505b92915050565b828054828255906000526020600020908101928215611896579160200282015b828111156118955782518290816118859190612ca8565b509160200191906001019061186e565b5b5090506118a391906118a7565b5090565b5b808211156118c757600081816118be91906118cb565b506001016118a8565b5090565b5080546118d7906123ef565b6000825580601f106118e95750611908565b601f016020900490600052602060002090810190611907919061190b565b5b50565b5b8082111561192457600081600090555060010161190c565b5090565b6000604051905090565b600080fd5b600080fd5b6000819050919050565b61194f8161193c565b811461195a57600080fd5b50565b60008135905061196c81611946565b92915050565b60006020828403121561198857611987611932565b5b60006119968482850161195d565b91505092915050565b600081519050919050565b600082825260208201905092915050565b60005b838110156119d95780820151818401526020810190506119be565b60008484015250505050565b6000601f19601f8301169050919050565b6000611a018261199f565b611a0b81856119aa565b9350611a1b8185602086016119bb565b611a24816119e5565b840191505092915050565b611a388161193c565b82525050565b60008115159050919050565b611a5381611a3e565b82525050565b60006080820190508181036000830152611a7381876119f6565b9050611a826020830186611a2f565b611a8f6040830185611a2f565b611a9c6060830184611a4a565b95945050505050565b600073ffffffffffffffffffffffffffffffffffffffff82169050919050565b6000611ad082611aa5565b9050919050565b611ae081611ac5565b8114611aeb57600080fd5b50565b600081359050611afd81611ad7565b92915050565b600060208284031215611b1957611b18611932565b5b6000611b2784828501611aee565b91505092915050565b6000819050919050565b6000611b55611b50611b4b84611aa5565b611b30565b611aa5565b9050919050565b6000611b6782611b3a565b9050919050565b6000611b7982611b5c565b9050919050565b611b8981611b6e565b82525050565b6000602082019050611ba46000830184611b80565b92915050565b60006040820190508181036000830152611bc481856119f6565b90508181036020830152611bd881846119f6565b90509392505050565b600081519050919050565b600082825260208201905092915050565b6000819050602082019050919050565b611c1681611ac5565b82525050565b6000611c288383611c0d565b60208301905092915050565b6000602082019050919050565b6000611c4c82611be1565b611c568185611bec565b9350611c6183611bfd565b8060005b83811015611c92578151611c798882611c1c565b9750611c8483611c34565b925050600181019050611c65565b5085935050505092915050565b60006020820190508181036000830152611cb98184611c41565b905092915050565b600081519050919050565b600082825260208201905092915050565b6000819050602082019050919050565b600082825260208201905092915050565b6000611d098261199f565b611d138185611ced565b9350611d238185602086016119bb565b611d2c816119e5565b840191505092915050565b611d408161193c565b82525050565b611d4f81611a3e565b82525050565b600081519050919050565b600082825260208201905092915050565b6000819050602082019050919050565b6000611d8d8383611cfe565b905092915050565b6000602082019050919050565b6000611dad82611d55565b611db78185611d60565b935083602082028501611dc985611d71565b8060005b85811015611e055784840389528151611de68582611d81565b9450611df183611d95565b925060208a01995050600181019050611dcd565b50829750879550505050505092915050565b600060a0830160008301518482036000860152611e348282611cfe565b9150506020830151611e496020860182611d37565b506040830151611e5c6040860182611d37565b506060830151611e6f6060860182611d46565b5060808301518482036080860152611e878282611da2565b9150508091505092915050565b6000611ea08383611e17565b905092915050565b6000602082019050919050565b6000611ec082611cc1565b611eca8185611ccc565b935083602082028501611edc85611cdd565b8060005b85811015611f185784840389528151611ef98582611e94565b9450611f0483611ea8565b925060208a01995050600181019050611ee0565b50829750879550505050505092915050565b60006020820190508181036000830152611f448184611eb5565b905092915050565b600080fd5b600080fd5b7f4e487b7100000000000000000000000000000000000000000000000000000000600052604160045260246000fd5b611f8e826119e5565b810181811067ffffffffffffffff82111715611fad57611fac611f56565b5b80604052505050565b6000611fc0611928565b9050611fcc8282611f85565b919050565b600067ffffffffffffffff821115611fec57611feb611f56565b5b611ff5826119e5565b9050602081019050919050565b82818337600083830152505050565b600061202461201f84611fd1565b611fb6565b9050828152602081018484840111156120405761203f611f51565b5b61204b848285612002565b509392505050565b600082601f83011261206857612067611f4c565b5b8135612078848260208601612011565b91505092915050565b600067ffffffffffffffff82111561209c5761209b611f56565b5b602082029050602081019050919050565b600080fd5b60006120c56120c084612081565b611fb6565b905080838252602082019050602084028301858111156120e8576120e76120ad565b5b835b8181101561212f57803567ffffffffffffffff81111561210d5761210c611f4c565b5b80860161211a8982612053565b855260208501945050506020810190506120ea565b5050509392505050565b600082601f83011261214e5761214d611f4c565b5b813561215e8482602086016120b2565b91505092915050565b6000806040838503121561217e5761217d611932565b5b600083013567ffffffffffffffff81111561219c5761219b611937565b5b6121a885828601612053565b925050602083013567ffffffffffffffff8111156121c9576121c8611937565b5b6121d585828601612139565b9150509250929050565b6121e881611ac5565b82525050565b600060208201905061220360008301846121df565b92915050565b60008060006060848603121561222257612221611932565b5b600061223086828701611aee565b935050602084013567ffffffffffffffff81111561225157612250611937565b5b61225d86828701612053565b925050604084013567ffffffffffffffff81111561227e5761227d611937565b5b61228a86828701612053565b9150509250925092565b600080604083850312156122ab576122aa611932565b5b60006122b985828601611aee565b92505060206122ca8582860161195d565b9150509250929050565b60006020820190506122e96000830184611a4a565b92915050565b60006040820190506123046000830185611a2f565b6123116020830184611a2f565b9392505050565b600082825260208201905092915050565b600061233482611d55565b61233e8185612318565b93508360208202850161235085611d71565b8060005b8581101561238c578484038952815161236d8582611d81565b945061237883611d95565b925060208a01995050600181019050612354565b50829750879550505050505092915050565b600060208201905081810360008301526123b88184612329565b905092915050565b7f4e487b7100000000000000000000000000000000000000000000000000000000600052602260045260246000fd5b6000600282049050600182168061240757607f821691505b60208210810361241a576124196123c0565b5b50919050565b7f596f75277265206e6f74207065726d697474656420746f2072656d6f7665207360008201527f746166662e000000000000000000000000000000000000000000000000000000602082015250565b600061247c6025836119aa565b915061248782612420565b604082019050919050565b600060208201905081810360008301526124ab8161246f565b9050919050565b7f4e487b7100000000000000000000000000000000000000000000000000000000600052603260045260246000fd5b7f4e487b7100000000000000000000000000000000000000000000000000000000600052601160045260246000fd5b600061251b8261193c565b91506125268361193c565b925082820390508181111561253e5761253d6124e1565b5b92915050565b7f4e487b7100000000000000000000000000000000000000000000000000000000600052603160045260246000fd5b7f50726f706f73616c2068617320616c7265616479206265656e2065786563757460008201527f6564000000000000000000000000000000000000000000000000000000000000602082015250565b60006125cf6022836119aa565b91506125da82612573565b604082019050919050565b600060208201905081810360008301526125fe816125c2565b9050919050565b7f50726f706f73616c20686173206265656e20617070726f766564000000000000600082015250565b600061263b601a836119aa565b915061264682612605565b602082019050919050565b6000602082019050818103600083015261266a8161262e565b9050919050565b7f50726f706f73616c20686173206e6f74206265656e20617070726f766564206260008201527f79206d616a6f7269747920766f74650000000000000000000000000000000000602082015250565b60006126cd602f836119aa565b91506126d882612671565b604082019050919050565b600060208201905081810360008301526126fc816126c0565b9050919050565b600061271661271184611fd1565b611fb6565b90508281526020810184848401111561273257612731611f51565b5b61273d8482856119bb565b509392505050565b600082601f83011261275a57612759611f4c565b5b815161276a848260208601612703565b91505092915050565b60006020828403121561278957612788611932565b5b600082015167ffffffffffffffff8111156127a7576127a6611937565b5b6127b384828501612745565b91505092915050565b6000815190506127cb81611ad7565b92915050565b6000602082840312156127e7576127e6611932565b5b60006127f5848285016127bc565b91505092915050565b7f4f6e6c792073747566662063616e20766f746500000000000000000000000000600082015250565b60006128346013836119aa565b915061283f826127fe565b602082019050919050565b6000602082019050818103600083015261286381612827565b9050919050565b7f596f75206861766520616c726561647920766f74656420666f7220746869732060008201527f70726f706f73616c000000000000000000000000000000000000000000000000602082015250565b60006128c66028836119aa565b91506128d18261286a565b604082019050919050565b600060208201905081810360008301526128f5816128b9565b9050919050565b60006129078261193c565b91506129128361193c565b925082820190508082111561292a576129296124e1565b5b92915050565b7f666f720000000000000000000000000000000000000000000000000000000000600082015250565b60006129666003836119aa565b915061297182612930565b602082019050919050565b6000602082019050818103600083015261299581612959565b9050919050565b7f4f6e6c79206d656d626572732063616e20766f74650000000000000000000000600082015250565b60006129d26015836119aa565b91506129dd8261299c565b602082019050919050565b60006020820190508181036000830152612a01816129c5565b9050919050565b7f616761696e737400000000000000000000000000000000000000000000000000600082015250565b6000612a3e6007836119aa565b9150612a4982612a08565b602082019050919050565b60006020820190508181036000830152612a6d81612a31565b9050919050565b7f4e6f7420656e6f756768207065726d697373696f6e20746f206372656174652060008201527f70726f706f73616c000000000000000000000000000000000000000000000000602082015250565b6000612ad06028836119aa565b9150612adb82612a74565b604082019050919050565b60006020820190508181036000830152612aff81612ac3565b9050919050565b60008190508160005260206000209050919050565b60006020601f8301049050919050565b600082821b905092915050565b600060088302612b687fffffffffffffffffffffffffffffffffffffffffffffffffffffffffffffffff82612b2b565b612b728683612b2b565b95508019841693508086168417925050509392505050565b6000612ba5612ba0612b9b8461193c565b611b30565b61193c565b9050919050565b6000819050919050565b612bbf83612b8a565b612bd3612bcb82612bac565b848454612b38565b825550505050565b600090565b612be8612bdb565b612bf3818484612bb6565b505050565b5b81811015612c1757612c0c600082612be0565b600181019050612bf9565b5050565b601f821115612c5c57612c2d81612b06565b612c3684612b1b565b81016020851015612c45578190505b612c59612c5185612b1b565b830182612bf8565b50505b505050565b600082821c905092915050565b6000612c7f60001984600802612c61565b1980831691505092915050565b6000612c988383612c6e565b9150826002028217905092915050565b612cb18261199f565b67ffffffffffffffff811115612cca57612cc9611f56565b5b612cd482546123ef565b612cdf828285612c1b565b600060209050601f831160018114612d125760008415612d00578287015190505b612d0a8582612c8c565b865550612d72565b601f198416612d2086612b06565b60005b82811015612d4857848901518255600182019150602085019450602081019050612d23565b86831015612d655784890151612d61601f891682612c6e565b8355505b6001600288020188555050505b505050505050565b60006040820190508181036000830152612d9481856119f6565b90508181036020830152612da88184612329565b90509392505050565b7f4e6f7420656e6f756768207065726d697373696f6e2e00000000000000000000600082015250565b6000612de76016836119aa565b9150612df282612db1565b602082019050919050565b60006020820190508181036000830152612e1681612dda565b9050919050565b6000606082019050612e3260008301866121df565b8181036020830152612e4481856119f6565b90508181036040830152612e5881846119f6565b905094935050505056fea264697066735822122065fc82949083bf4942aabd1f7c7188cac1bf26beb6244d99b2bc1c5495d467e364736f6c63430008180033",
  "linkReferences": {},
  "deployedLinkReferences": {}
}