{
  "_format": "hh-sol-artifact-1",
  "contractName": "Dao",
  "sourceName": "contracts/Dao.sol",
  "abi": [
    {
      "inputs": [
        {
          "internalType": "address",
          "name": "_address",
          "type": "address"
        }
      ],
      "stateMutability": "nonpayable",
      "type": "constructor"
    },
    {
      "anonymous": false,
      "inputs": [
        {
          "indexed": false,
          "internalType": "string",
          "name": "message",
          "type": "string"
        }
      ],
      "name": "ProposalAccepted",
      "type": "event"
    },
    {
      "anonymous": false,
      "inputs": [
        {
          "indexed": true,
          "internalType": "uint256",
          "name": "proposalId",
          "type": "uint256"
        },
        {
          "indexed": false,
          "internalType": "string",
          "name": "desc",
          "type": "string"
        },
        {
          "indexed": false,
          "internalType": "string[]",
          "name": "_roles",
          "type": "string[]"
        }
      ],
      "name": "ProposalCreated",
      "type": "event"
    },
    {
      "anonymous": false,
      "inputs": [
        {
          "indexed": false,
          "internalType": "string",
          "name": "reject",
          "type": "string"
        }
      ],
      "name": "ProposalRejected",
      "type": "event"
    },
    {
      "anonymous": false,
      "inputs": [
        {
          "indexed": true,
          "internalType": "address",
          "name": "voter",
          "type": "address"
        },
        {
          "indexed": true,
          "internalType": "uint256",
          "name": "proposalId",
          "type": "uint256"
        },
        {
          "indexed": false,
          "internalType": "string",
          "name": "aim",
          "type": "string"
        }
      ],
      "name": "VoteCast",
      "type": "event"
    },
    {
      "inputs": [],
      "name": "Tokens",
      "outputs": [
        {
          "internalType": "contract DaoNFT",
          "name": "",
          "type": "address"
        }
      ],
      "stateMutability": "view",
      "type": "function"
    },
    {
      "inputs": [
        {
          "internalType": "address",
          "name": "_address",
          "type": "address"
        },
        {
          "internalType": "string",
          "name": "employeeName",
          "type": "string"
        },
        {
          "internalType": "string",
          "name": "employeeRole",
          "type": "string"
        }
      ],
      "name": "addStuff",
      "outputs": [],
      "stateMutability": "nonpayable",
      "type": "function"
    },
    {
      "inputs": [
        {
          "internalType": "string",
          "name": "_desc",
          "type": "string"
        },
        {
          "internalType": "string[]",
          "name": "_roles",
          "type": "string[]"
        }
      ],
      "name": "createProposal",
      "outputs": [],
      "stateMutability": "nonpayable",
      "type": "function"
    },
    {
      "inputs": [
        {
          "internalType": "uint256",
          "name": "_proposalId",
          "type": "uint256"
        }
      ],
      "name": "executeProposal",
      "outputs": [],
      "stateMutability": "nonpayable",
      "type": "function"
    },
    {
      "inputs": [
        {
          "internalType": "address",
          "name": "_address",
          "type": "address"
        }
      ],
      "name": "getEmployee",
      "outputs": [
        {
          "internalType": "string",
          "name": "",
          "type": "string"
        },
        {
          "internalType": "string",
          "name": "",
          "type": "string"
        }
      ],
      "stateMutability": "view",
      "type": "function"
    },
    {
      "inputs": [
        {
          "internalType": "uint256",
          "name": "_proposalId",
          "type": "uint256"
        }
      ],
      "name": "getRoles",
      "outputs": [
        {
          "internalType": "string[]",
          "name": "",
          "type": "string[]"
        }
      ],
      "stateMutability": "view",
      "type": "function"
    },
    {
      "inputs": [
        {
          "internalType": "address",
          "name": "_address",
          "type": "address"
        },
        {
          "internalType": "uint256",
          "name": "_proposalId",
          "type": "uint256"
        }
      ],
      "name": "isSuitable",
      "outputs": [
        {
          "internalType": "bool",
          "name": "",
          "type": "bool"
        }
      ],
      "stateMutability": "view",
      "type": "function"
    },
    {
      "inputs": [
        {
          "internalType": "uint256",
          "name": "",
          "type": "uint256"
        }
      ],
      "name": "proposals",
      "outputs": [
        {
          "internalType": "string",
          "name": "desc",
          "type": "string"
        },
        {
          "internalType": "uint256",
          "name": "votefor",
          "type": "uint256"
        },
        {
          "internalType": "uint256",
          "name": "voteagainst",
          "type": "uint256"
        },
        {
          "internalType": "bool",
          "name": "executed",
          "type": "bool"
        }
      ],
      "stateMutability": "view",
      "type": "function"
    },
    {
      "inputs": [
        {
          "internalType": "address",
          "name": "_employee",
          "type": "address"
        }
      ],
      "name": "removeEmployee",
      "outputs": [],
      "stateMutability": "nonpayable",
      "type": "function"
    },
    {
      "inputs": [
        {
          "internalType": "uint256",
          "name": "",
          "type": "uint256"
        }
      ],
      "name": "stuff",
      "outputs": [
        {
          "internalType": "address",
          "name": "",
          "type": "address"
        }
      ],
      "stateMutability": "view",
      "type": "function"
    },
    {
      "inputs": [
        {
          "internalType": "uint256",
          "name": "_proposalId",
          "type": "uint256"
        }
      ],
      "name": "voteagainst",
      "outputs": [],
      "stateMutability": "nonpayable",
      "type": "function"
    },
    {
      "inputs": [
        {
          "internalType": "uint256",
          "name": "_proposalId",
          "type": "uint256"
        }
      ],
      "name": "votefor",
      "outputs": [],
      "stateMutability": "nonpayable",
      "type": "function"
    },
    {
      "inputs": [
        {
          "internalType": "address",
          "name": "",
          "type": "address"
        },
        {
          "internalType": "uint256",
          "name": "",
          "type": "uint256"
        }
      ],
      "name": "votes",
      "outputs": [
        {
          "internalType": "bool",
          "name": "",
          "type": "bool"
        }
      ],
      "stateMutability": "view",
      "type": "function"
    }
  ],
  "bytecode": "0x60806040523480156200001157600080fd5b506040516200290e3803806200290e833981810160405281019062000037919062000260565b806000806101000a81548173ffffffffffffffffffffffffffffffffffffffff021916908373ffffffffffffffffffffffffffffffffffffffff160217905550620000f4336040518060400160405280600581526020017f4d757261740000000000000000000000000000000000000000000000000000008152506040518060400160405280600881526020017f4469726563746f72000000000000000000000000000000000000000000000000815250620000fb60201b60201c565b5062000388565b60008054906101000a900473ffffffffffffffffffffffffffffffffffffffff1673ffffffffffffffffffffffffffffffffffffffff1663e0b73f3f8484846040518463ffffffff1660e01b81526004016200015a939291906200033d565b600060405180830381600087803b1580156200017557600080fd5b505af11580156200018a573d6000803e3d6000fd5b505050506001839080600181540180825580915050600190039060005260206000200160009091909190916101000a81548173ffffffffffffffffffffffffffffffffffffffff021916908373ffffffffffffffffffffffffffffffffffffffff160217905550505050565b600080fd5b600073ffffffffffffffffffffffffffffffffffffffff82169050919050565b60006200022882620001fb565b9050919050565b6200023a816200021b565b81146200024657600080fd5b50565b6000815190506200025a816200022f565b92915050565b600060208284031215620002795762000278620001f6565b5b6000620002898482850162000249565b91505092915050565b6200029d816200021b565b82525050565b600081519050919050565b600082825260208201905092915050565b60005b83811015620002df578082015181840152602081019050620002c2565b60008484015250505050565b6000601f19601f8301169050919050565b60006200030982620002a3565b620003158185620002ae565b935062000327818560208601620002bf565b6200033281620002eb565b840191505092915050565b600060608201905062000354600083018662000292565b8181036020830152620003688185620002fc565b905081810360408301526200037e8184620002fc565b9050949350505050565b61257680620003986000396000f3fe608060405234801561001057600080fd5b50600436106100cf5760003560e01c80636ca912021161008c5780639617ed98116100665780639617ed98146102125780639f2524ee14610242578063d108177a14610272578063fe644b8c1461028e576100cf565b80636ca91202146101aa57806387fcff0c146101c65780638fe1f092146101f6576100cf565b8063013cf08b146100d45780630cf283b1146101075780630d61b5191461012557806332648e09146101415780635b426bbb1461017257806362131fd71461018e575b600080fd5b6100ee60048036038101906100e991906114ee565b6102be565b6040516100fe94939291906115d5565b60405180910390f35b61010f610393565b60405161011c91906116a0565b60405180910390f35b61013f600480360381019061013a91906114ee565b6103b7565b005b61015b600480360381019061015691906116f9565b610533565b604051610169929190611726565b60405180910390f35b61018c600480360381019061018791906114ee565b61067d565b005b6101a860048036038101906101a391906114ee565b610967565b005b6101c460048036038101906101bf9190611978565b610c51565b005b6101e060048036038101906101db91906114ee565b610d60565b6040516101ed91906119ff565b60405180910390f35b610210600480360381019061020b9190611a1a565b610d9f565b005b61022c60048036038101906102279190611aa5565b610e96565b6040516102399190611ae5565b60405180910390f35b61025c60048036038101906102579190611aa5565b610fa3565b6040516102699190611ae5565b60405180910390f35b61028c600480360381019061028791906116f9565b610fd2565b005b6102a860048036038101906102a391906114ee565b6111fe565b6040516102b59190611c0c565b60405180910390f35b600381815481106102ce57600080fd5b90600052602060002090600502016000915090508060000180546102f190611c5d565b80601f016020809104026020016040519081016040528092919081815260200182805461031d90611c5d565b801561036a5780601f1061033f5761010080835404028352916020019161036a565b820191906000526020600020905b81548152906001019060200180831161034d57829003601f168201915b5050505050908060010154908060020154908060030160009054906101000a900460ff16905084565b60008054906101000a900473ffffffffffffffffffffffffffffffffffffffff1681565b60001515600382815481106103cf576103ce611c8e565b5b906000526020600020906005020160030160009054906101000a900460ff16151514610430576040517f08c379a000000000000000000000000000000000000000000000000000000000815260040161042790611d2f565b60405180910390fd5b6003818154811061044457610443611c8e565b5b9060005260206000209060050201600201546003828154811061046a57610469611c8e565b5b90600052602060002090600502016001015411156104fa5760016003828154811061049857610497611c8e565b5b906000526020600020906005020160030160006101000a81548160ff0219169083151502179055507f19cf08368c3c86aacb1be12c902a304c3b1d64e4f72e1aa33789a01f68ecab056040516104ed90611d9b565b60405180910390a1610530565b7f276f61830e554c29810d2d21d6523c691bef4a9634206a55fee98c24e62c9a0560405161052790611e2d565b60405180910390a15b50565b60608060008054906101000a900473ffffffffffffffffffffffffffffffffffffffff1673ffffffffffffffffffffffffffffffffffffffff1663a0b9009b846040518263ffffffff1660e01b815260040161058f91906119ff565b600060405180830381865afa1580156105ac573d6000803e3d6000fd5b505050506040513d6000823e3d601f19601f820116820180604052508101906105d59190611ebd565b60008054906101000a900473ffffffffffffffffffffffffffffffffffffffff1673ffffffffffffffffffffffffffffffffffffffff16633b622fa0856040518263ffffffff1660e01b815260040161062e91906119ff565b600060405180830381865afa15801561064b573d6000803e3d6000fd5b505050506040513d6000823e3d601f19601f820116820180604052508101906106749190611ebd565b91509150915091565b3373ffffffffffffffffffffffffffffffffffffffff1660008054906101000a900473ffffffffffffffffffffffffffffffffffffffff1673ffffffffffffffffffffffffffffffffffffffff16630d2425ae336040518263ffffffff1660e01b81526004016106ed91906119ff565b602060405180830381865afa15801561070a573d6000803e3d6000fd5b505050506040513d601f19601f8201168201806040525081019061072e9190611f1b565b73ffffffffffffffffffffffffffffffffffffffff1614610784576040517f08c379a000000000000000000000000000000000000000000000000000000000815260040161077b90611f94565b60405180910390fd5b60001515600260003373ffffffffffffffffffffffffffffffffffffffff1673ffffffffffffffffffffffffffffffffffffffff168152602001908152602001600020600083815260200190815260200160002060009054906101000a900460ff16151514610828576040517f08c379a000000000000000000000000000000000000000000000000000000000815260040161081f90612026565b60405180910390fd5b6108323382610e96565b610871576040517f08c379a000000000000000000000000000000000000000000000000000000000815260040161086890612092565b60405180910390fd5b6001600260003373ffffffffffffffffffffffffffffffffffffffff1673ffffffffffffffffffffffffffffffffffffffff168152602001908152602001600020600083815260200190815260200160002060006101000a81548160ff0219169083151502179055506001600382815481106108f0576108ef611c8e565b5b9060005260206000209060050201600101600082825461091091906120e1565b92505081905550803373ffffffffffffffffffffffffffffffffffffffff167f41aeb55eef25a94e94aeac300a628610ffa8099eb2bf991b3ae640d42233467d60405161095c90612161565b60405180910390a350565b3373ffffffffffffffffffffffffffffffffffffffff1660008054906101000a900473ffffffffffffffffffffffffffffffffffffffff1673ffffffffffffffffffffffffffffffffffffffff16630d2425ae336040518263ffffffff1660e01b81526004016109d791906119ff565b602060405180830381865afa1580156109f4573d6000803e3d6000fd5b505050506040513d601f19601f82011682018060405250810190610a189190611f1b565b73ffffffffffffffffffffffffffffffffffffffff1614610a6e576040517f08c379a0000000000000000000000000000000000000000000000000000000008152600401610a6590611f94565b60405180910390fd5b60001515600260003373ffffffffffffffffffffffffffffffffffffffff1673ffffffffffffffffffffffffffffffffffffffff168152602001908152602001600020600083815260200190815260200160002060009054906101000a900460ff16151514610b12576040517f08c379a0000000000000000000000000000000000000000000000000000000008152600401610b0990612026565b60405180910390fd5b610b1c3382610e96565b610b5b576040517f08c379a0000000000000000000000000000000000000000000000000000000008152600401610b5290612092565b60405180910390fd5b6001600260003373ffffffffffffffffffffffffffffffffffffffff1673ffffffffffffffffffffffffffffffffffffffff168152602001908152602001600020600083815260200190815260200160002060006101000a81548160ff021916908315150217905550600160038281548110610bda57610bd9611c8e565b5b90600052602060002090600502016002016000828254610bfa91906120e1565b92505081905550803373ffffffffffffffffffffffffffffffffffffffff167f41aeb55eef25a94e94aeac300a628610ffa8099eb2bf991b3ae640d42233467d604051610c46906121cd565b60405180910390a350565b60036040518060a0016040528084815260200160008152602001600081526020016000151581526020018381525090806001815401808255809150506001900390600052602060002090600502016000909190919091506000820151816000019081610cbd919061238f565b50602082015181600101556040820151816002015560608201518160030160006101000a81548160ff0219169083151502179055506080820151816004019080519060200190610d0e9291906113ca565b5050506001600380549050610d239190612461565b7f8956532d922732460ff2d895ae5e6ce4f8f166bc687aa580fa00a8ae14cb82038383604051610d54929190612495565b60405180910390a25050565b60018181548110610d7057600080fd5b906000526020600020016000915054906101000a900473ffffffffffffffffffffffffffffffffffffffff1681565b60008054906101000a900473ffffffffffffffffffffffffffffffffffffffff1673ffffffffffffffffffffffffffffffffffffffff1663e0b73f3f8484846040518463ffffffff1660e01b8152600401610dfc939291906124cc565b600060405180830381600087803b158015610e1657600080fd5b505af1158015610e2a573d6000803e3d6000fd5b505050506001839080600181540180825580915050600190039060005260206000200160009091909190916101000a81548173ffffffffffffffffffffffffffffffffffffffff021916908373ffffffffffffffffffffffffffffffffffffffff160217905550505050565b60008060008054906101000a900473ffffffffffffffffffffffffffffffffffffffff1673ffffffffffffffffffffffffffffffffffffffff16633b622fa0856040518263ffffffff1660e01b8152600401610ef291906119ff565b600060405180830381865afa158015610f0f573d6000803e3d6000fd5b505050506040513d6000823e3d601f19601f82011682018060405250810190610f389190611ebd565b90506000610f45846111fe565b905060005b8151811015610f9557610f77828281518110610f6957610f68611c8e565b5b602002602001015184611302565b15610f885760019350505050610f9d565b8080600101915050610f4a565b506000925050505b92915050565b60026020528160005260406000206020528060005260406000206000915091509054906101000a900460ff1681565b60008054906101000a900473ffffffffffffffffffffffffffffffffffffffff1673ffffffffffffffffffffffffffffffffffffffff16630a55cd02826040518263ffffffff1660e01b815260040161102b91906119ff565b600060405180830381600087803b15801561104557600080fd5b505af1158015611059573d6000803e3d6000fd5b5050505060005b6001805490508110156111fa578173ffffffffffffffffffffffffffffffffffffffff166001828154811061109857611097611c8e565b5b9060005260206000200160009054906101000a900473ffffffffffffffffffffffffffffffffffffffff1673ffffffffffffffffffffffffffffffffffffffff16036111ed5760008190505b6001805490508110156111a457600180826110ff91906120e1565b815481106111105761110f611c8e565b5b9060005260206000200160009054906101000a900473ffffffffffffffffffffffffffffffffffffffff166001828154811061114f5761114e611c8e565b5b9060005260206000200160006101000a81548173ffffffffffffffffffffffffffffffffffffffff021916908373ffffffffffffffffffffffffffffffffffffffff16021790555080806001019150506110e4565b5060018054806111b7576111b6612511565b5b6001900381819060005260206000200160006101000a81549073ffffffffffffffffffffffffffffffffffffffff021916905590555b8080600101915050611060565b5050565b606060006003838154811061121657611215611c8e565b5b9060005260206000209060050201905080600401805480602002602001604051908101604052809291908181526020016000905b828210156112f657838290600052602060002001805461126990611c5d565b80601f016020809104026020016040519081016040528092919081815260200182805461129590611c5d565b80156112e25780601f106112b7576101008083540402835291602001916112e2565b820191906000526020600020905b8154815290600101906020018083116112c557829003601f168201915b50505050508152602001906001019061124a565b50505050915050919050565b6000815183511461131657600090506113c4565b60005b83518110156113be5782818151811061133557611334611c8e565b5b602001015160f81c60f81b7effffffffffffffffffffffffffffffffffffffffffffffffffffffffffffff191684828151811061137557611374611c8e565b5b602001015160f81c60f81b7effffffffffffffffffffffffffffffffffffffffffffffffffffffffffffff1916146113b15760009150506113c4565b8080600101915050611319565b50600190505b92915050565b828054828255906000526020600020908101928215611412579160200282015b82811115611411578251829081611401919061238f565b50916020019190600101906113ea565b5b50905061141f9190611423565b5090565b5b80821115611443576000818161143a9190611447565b50600101611424565b5090565b50805461145390611c5d565b6000825580601f106114655750611484565b601f0160209004906000526020600020908101906114839190611487565b5b50565b5b808211156114a0576000816000905550600101611488565b5090565b6000604051905090565b600080fd5b600080fd5b6000819050919050565b6114cb816114b8565b81146114d657600080fd5b50565b6000813590506114e8816114c2565b92915050565b600060208284031215611504576115036114ae565b5b6000611512848285016114d9565b91505092915050565b600081519050919050565b600082825260208201905092915050565b60005b8381101561155557808201518184015260208101905061153a565b60008484015250505050565b6000601f19601f8301169050919050565b600061157d8261151b565b6115878185611526565b9350611597818560208601611537565b6115a081611561565b840191505092915050565b6115b4816114b8565b82525050565b60008115159050919050565b6115cf816115ba565b82525050565b600060808201905081810360008301526115ef8187611572565b90506115fe60208301866115ab565b61160b60408301856115ab565b61161860608301846115c6565b95945050505050565b600073ffffffffffffffffffffffffffffffffffffffff82169050919050565b6000819050919050565b600061166661166161165c84611621565b611641565b611621565b9050919050565b60006116788261164b565b9050919050565b600061168a8261166d565b9050919050565b61169a8161167f565b82525050565b60006020820190506116b56000830184611691565b92915050565b60006116c682611621565b9050919050565b6116d6816116bb565b81146116e157600080fd5b50565b6000813590506116f3816116cd565b92915050565b60006020828403121561170f5761170e6114ae565b5b600061171d848285016116e4565b91505092915050565b600060408201905081810360008301526117408185611572565b905081810360208301526117548184611572565b90509392505050565b600080fd5b600080fd5b7f4e487b7100000000000000000000000000000000000000000000000000000000600052604160045260246000fd5b61179f82611561565b810181811067ffffffffffffffff821117156117be576117bd611767565b5b80604052505050565b60006117d16114a4565b90506117dd8282611796565b919050565b600067ffffffffffffffff8211156117fd576117fc611767565b5b61180682611561565b9050602081019050919050565b82818337600083830152505050565b6000611835611830846117e2565b6117c7565b90508281526020810184848401111561185157611850611762565b5b61185c848285611813565b509392505050565b600082601f8301126118795761187861175d565b5b8135611889848260208601611822565b91505092915050565b600067ffffffffffffffff8211156118ad576118ac611767565b5b602082029050602081019050919050565b600080fd5b60006118d66118d184611892565b6117c7565b905080838252602082019050602084028301858111156118f9576118f86118be565b5b835b8181101561194057803567ffffffffffffffff81111561191e5761191d61175d565b5b80860161192b8982611864565b855260208501945050506020810190506118fb565b5050509392505050565b600082601f83011261195f5761195e61175d565b5b813561196f8482602086016118c3565b91505092915050565b6000806040838503121561198f5761198e6114ae565b5b600083013567ffffffffffffffff8111156119ad576119ac6114b3565b5b6119b985828601611864565b925050602083013567ffffffffffffffff8111156119da576119d96114b3565b5b6119e68582860161194a565b9150509250929050565b6119f9816116bb565b82525050565b6000602082019050611a1460008301846119f0565b92915050565b600080600060608486031215611a3357611a326114ae565b5b6000611a41868287016116e4565b935050602084013567ffffffffffffffff811115611a6257611a616114b3565b5b611a6e86828701611864565b925050604084013567ffffffffffffffff811115611a8f57611a8e6114b3565b5b611a9b86828701611864565b9150509250925092565b60008060408385031215611abc57611abb6114ae565b5b6000611aca858286016116e4565b9250506020611adb858286016114d9565b9150509250929050565b6000602082019050611afa60008301846115c6565b92915050565b600081519050919050565b600082825260208201905092915050565b6000819050602082019050919050565b600082825260208201905092915050565b6000611b488261151b565b611b528185611b2c565b9350611b62818560208601611537565b611b6b81611561565b840191505092915050565b6000611b828383611b3d565b905092915050565b6000602082019050919050565b6000611ba282611b00565b611bac8185611b0b565b935083602082028501611bbe85611b1c565b8060005b85811015611bfa5784840389528151611bdb8582611b76565b9450611be683611b8a565b925060208a01995050600181019050611bc2565b50829750879550505050505092915050565b60006020820190508181036000830152611c268184611b97565b905092915050565b7f4e487b7100000000000000000000000000000000000000000000000000000000600052602260045260246000fd5b60006002820490506001821680611c7557607f821691505b602082108103611c8857611c87611c2e565b5b50919050565b7f4e487b7100000000000000000000000000000000000000000000000000000000600052603260045260246000fd5b7f50726f706f73616c2068617320616c7265616479206265656e2065786563757460008201527f6564000000000000000000000000000000000000000000000000000000000000602082015250565b6000611d19602283611526565b9150611d2482611cbd565b604082019050919050565b60006020820190508181036000830152611d4881611d0c565b9050919050565b7f50726f706f73616c20686173206265656e20617070726f766564000000000000600082015250565b6000611d85601a83611526565b9150611d9082611d4f565b602082019050919050565b60006020820190508181036000830152611db481611d78565b9050919050565b7f50726f706f73616c20686173206e6f74206265656e20617070726f766564206260008201527f79206d616a6f7269747920766f74650000000000000000000000000000000000602082015250565b6000611e17602f83611526565b9150611e2282611dbb565b604082019050919050565b60006020820190508181036000830152611e4681611e0a565b9050919050565b6000611e60611e5b846117e2565b6117c7565b905082815260208101848484011115611e7c57611e7b611762565b5b611e87848285611537565b509392505050565b600082601f830112611ea457611ea361175d565b5b8151611eb4848260208601611e4d565b91505092915050565b600060208284031215611ed357611ed26114ae565b5b600082015167ffffffffffffffff811115611ef157611ef06114b3565b5b611efd84828501611e8f565b91505092915050565b600081519050611f15816116cd565b92915050565b600060208284031215611f3157611f306114ae565b5b6000611f3f84828501611f06565b91505092915050565b7f4f6e6c79206d656d626572732063616e20766f74650000000000000000000000600082015250565b6000611f7e601583611526565b9150611f8982611f48565b602082019050919050565b60006020820190508181036000830152611fad81611f71565b9050919050565b7f596f75206861766520616c726561647920766f74656420666f7220746869732060008201527f70726f706f73616c000000000000000000000000000000000000000000000000602082015250565b6000612010602883611526565b915061201b82611fb4565b604082019050919050565b6000602082019050818103600083015261203f81612003565b9050919050565b7f596f75277265206e6f7420706572746d697474656420746f20766f74652e0000600082015250565b600061207c601e83611526565b915061208782612046565b602082019050919050565b600060208201905081810360008301526120ab8161206f565b9050919050565b7f4e487b7100000000000000000000000000000000000000000000000000000000600052601160045260246000fd5b60006120ec826114b8565b91506120f7836114b8565b925082820190508082111561210f5761210e6120b2565b5b92915050565b7f666f720000000000000000000000000000000000000000000000000000000000600082015250565b600061214b600383611526565b915061215682612115565b602082019050919050565b6000602082019050818103600083015261217a8161213e565b9050919050565b7f616761696e737400000000000000000000000000000000000000000000000000600082015250565b60006121b7600783611526565b91506121c282612181565b602082019050919050565b600060208201905081810360008301526121e6816121aa565b9050919050565b60008190508160005260206000209050919050565b60006020601f8301049050919050565b600082821b905092915050565b60006008830261224f7fffffffffffffffffffffffffffffffffffffffffffffffffffffffffffffffff82612212565b6122598683612212565b95508019841693508086168417925050509392505050565b600061228c612287612282846114b8565b611641565b6114b8565b9050919050565b6000819050919050565b6122a683612271565b6122ba6122b282612293565b84845461221f565b825550505050565b600090565b6122cf6122c2565b6122da81848461229d565b505050565b5b818110156122fe576122f36000826122c7565b6001810190506122e0565b5050565b601f82111561234357612314816121ed565b61231d84612202565b8101602085101561232c578190505b61234061233885612202565b8301826122df565b50505b505050565b600082821c905092915050565b600061236660001984600802612348565b1980831691505092915050565b600061237f8383612355565b9150826002028217905092915050565b6123988261151b565b67ffffffffffffffff8111156123b1576123b0611767565b5b6123bb8254611c5d565b6123c6828285612302565b600060209050601f8311600181146123f957600084156123e7578287015190505b6123f18582612373565b865550612459565b601f198416612407866121ed565b60005b8281101561242f5784890151825560018201915060208501945060208101905061240a565b8683101561244c5784890151612448601f891682612355565b8355505b6001600288020188555050505b505050505050565b600061246c826114b8565b9150612477836114b8565b925082820390508181111561248f5761248e6120b2565b5b92915050565b600060408201905081810360008301526124af8185611572565b905081810360208301526124c38184611b97565b90509392505050565b60006060820190506124e160008301866119f0565b81810360208301526124f38185611572565b905081810360408301526125078184611572565b9050949350505050565b7f4e487b7100000000000000000000000000000000000000000000000000000000600052603160045260246000fdfea26469706673582212208aed1cb13930b674d8ecc31de2bb2d1d3db2e004e825ad13fd0afc1978ecdd8e64736f6c63430008180033",
  "linkReferences": {},
  "deployedLinkReferences": {}
}