{
  "_format": "hh-sol-artifact-1",
  "contractName": "Dao",
  "sourceName": "contracts/Dao.sol",
  "abi": [
    {
      "inputs": [
        {
          "internalType": "address",
          "name": "_address",
          "type": "address"
        }
      ],
      "stateMutability": "nonpayable",
      "type": "constructor"
    },
    {
      "anonymous": false,
      "inputs": [
        {
          "indexed": false,
          "internalType": "string",
          "name": "message",
          "type": "string"
        }
      ],
      "name": "ProposalAccepted",
      "type": "event"
    },
    {
      "anonymous": false,
      "inputs": [
        {
          "indexed": true,
          "internalType": "uint256",
          "name": "proposalId",
          "type": "uint256"
        },
        {
          "indexed": false,
          "internalType": "string",
          "name": "desc",
          "type": "string"
        },
        {
          "indexed": false,
          "internalType": "string[]",
          "name": "_roles",
          "type": "string[]"
        }
      ],
      "name": "ProposalCreated",
      "type": "event"
    },
    {
      "anonymous": false,
      "inputs": [
        {
          "indexed": false,
          "internalType": "string",
          "name": "reject",
          "type": "string"
        }
      ],
      "name": "ProposalRejected",
      "type": "event"
    },
    {
      "anonymous": false,
      "inputs": [
        {
          "indexed": true,
          "internalType": "address",
          "name": "voter",
          "type": "address"
        },
        {
          "indexed": true,
          "internalType": "uint256",
          "name": "proposalId",
          "type": "uint256"
        },
        {
          "indexed": false,
          "internalType": "string",
          "name": "aim",
          "type": "string"
        }
      ],
      "name": "VoteCast",
      "type": "event"
    },
    {
      "inputs": [],
      "name": "Tokens",
      "outputs": [
        {
          "internalType": "contract DaoNFT",
          "name": "",
          "type": "address"
        }
      ],
      "stateMutability": "view",
      "type": "function"
    },
    {
      "inputs": [
        {
          "internalType": "address",
          "name": "_address",
          "type": "address"
        },
        {
          "internalType": "string",
          "name": "employeeName",
          "type": "string"
        },
        {
          "internalType": "string",
          "name": "employeeRole",
          "type": "string"
        }
      ],
      "name": "addStuff",
      "outputs": [],
      "stateMutability": "nonpayable",
      "type": "function"
    },
    {
      "inputs": [
        {
          "internalType": "string",
          "name": "_desc",
          "type": "string"
        },
        {
          "internalType": "string[]",
          "name": "_roles",
          "type": "string[]"
        }
      ],
      "name": "createProposal",
      "outputs": [],
      "stateMutability": "nonpayable",
      "type": "function"
    },
    {
      "inputs": [
        {
          "internalType": "uint256",
          "name": "_proposalId",
          "type": "uint256"
        }
      ],
      "name": "executeProposal",
      "outputs": [],
      "stateMutability": "nonpayable",
      "type": "function"
    },
    {
      "inputs": [
        {
          "internalType": "address",
          "name": "_address",
          "type": "address"
        }
      ],
      "name": "getEmployee",
      "outputs": [
        {
          "internalType": "string",
          "name": "",
          "type": "string"
        },
        {
          "internalType": "string",
          "name": "",
          "type": "string"
        }
      ],
      "stateMutability": "view",
      "type": "function"
    },
    {
      "inputs": [],
      "name": "getEmployees",
      "outputs": [
        {
          "internalType": "address[]",
          "name": "",
          "type": "address[]"
        }
      ],
      "stateMutability": "view",
      "type": "function"
    },
    {
      "inputs": [
        {
          "internalType": "uint256",
          "name": "_proposalId",
          "type": "uint256"
        }
      ],
      "name": "getRoles",
      "outputs": [
        {
          "internalType": "string[]",
          "name": "",
          "type": "string[]"
        }
      ],
      "stateMutability": "view",
      "type": "function"
    },
    {
      "inputs": [
        {
          "internalType": "address",
          "name": "_address",
          "type": "address"
        },
        {
          "internalType": "uint256",
          "name": "_proposalId",
          "type": "uint256"
        }
      ],
      "name": "isSuitable",
      "outputs": [
        {
          "internalType": "bool",
          "name": "",
          "type": "bool"
        }
      ],
      "stateMutability": "view",
      "type": "function"
    },
    {
      "inputs": [
        {
          "internalType": "uint256",
          "name": "",
          "type": "uint256"
        }
      ],
      "name": "proposals",
      "outputs": [
        {
          "internalType": "string",
          "name": "desc",
          "type": "string"
        },
        {
          "internalType": "uint256",
          "name": "votefor",
          "type": "uint256"
        },
        {
          "internalType": "uint256",
          "name": "voteagainst",
          "type": "uint256"
        },
        {
          "internalType": "bool",
          "name": "executed",
          "type": "bool"
        }
      ],
      "stateMutability": "view",
      "type": "function"
    },
    {
      "inputs": [
        {
          "internalType": "address",
          "name": "_employee",
          "type": "address"
        }
      ],
      "name": "removeStuff",
      "outputs": [],
      "stateMutability": "nonpayable",
      "type": "function"
    },
    {
      "inputs": [
        {
          "internalType": "uint256",
          "name": "",
          "type": "uint256"
        }
      ],
      "name": "stuff",
      "outputs": [
        {
          "internalType": "address",
          "name": "",
          "type": "address"
        }
      ],
      "stateMutability": "view",
      "type": "function"
    },
    {
      "inputs": [
        {
          "internalType": "uint256",
          "name": "_proposalId",
          "type": "uint256"
        }
      ],
      "name": "voteagainst",
      "outputs": [],
      "stateMutability": "nonpayable",
      "type": "function"
    },
    {
      "inputs": [
        {
          "internalType": "uint256",
          "name": "_proposalId",
          "type": "uint256"
        }
      ],
      "name": "votefor",
      "outputs": [],
      "stateMutability": "nonpayable",
      "type": "function"
    },
    {
      "inputs": [
        {
          "internalType": "address",
          "name": "",
          "type": "address"
        },
        {
          "internalType": "uint256",
          "name": "",
          "type": "uint256"
        }
      ],
      "name": "votes",
      "outputs": [
        {
          "internalType": "bool",
          "name": "",
          "type": "bool"
        }
      ],
      "stateMutability": "view",
      "type": "function"
    }
  ],
  "bytecode": "0x60806040523480156200001157600080fd5b506040516200302e3803806200302e83398181016040528101906200003791906200048b565b6200007e6040518060400160405280601781526020017f44616f206465706c6f796572277320616464726573733a000000000000000000815250336200018360201b60201c565b806000806101000a81548173ffffffffffffffffffffffffffffffffffffffff021916908373ffffffffffffffffffffffffffffffffffffffff16021790555033600160006101000a81548173ffffffffffffffffffffffffffffffffffffffff021916908373ffffffffffffffffffffffffffffffffffffffff1602179055506200017c336040518060400160405280600581526020017f4d757261740000000000000000000000000000000000000000000000000000008152506040518060400160405280600881526020017f4469726563746f720000000000000000000000000000000000000000000000008152506200022960201b60201c565b5062000688565b6200022582826040516024016200019c92919062000568565b6040516020818303038152906040527f319af333000000000000000000000000000000000000000000000000000000007bffffffffffffffffffffffffffffffffffffffffffffffffffffffff19166020820180517bffffffffffffffffffffffffffffffffffffffffffffffffffffffff8381831617835250505050620003b760201b60201c565b5050565b600160009054906101000a900473ffffffffffffffffffffffffffffffffffffffff1673ffffffffffffffffffffffffffffffffffffffff163373ffffffffffffffffffffffffffffffffffffffff1614620002bc576040517f08c379a0000000000000000000000000000000000000000000000000000000008152600401620002b390620005ec565b60405180910390fd5b60008054906101000a900473ffffffffffffffffffffffffffffffffffffffff1673ffffffffffffffffffffffffffffffffffffffff1663e0b73f3f8484846040518463ffffffff1660e01b81526004016200031b939291906200060e565b600060405180830381600087803b1580156200033657600080fd5b505af11580156200034b573d6000803e3d6000fd5b505050506002839080600181540180825580915050600190039060005260206000200160009091909190916101000a81548173ffffffffffffffffffffffffffffffffffffffff021916908373ffffffffffffffffffffffffffffffffffffffff160217905550505050565b620003dd81620003d8620003e060201b620014ea176200040160201b60201c565b60201c565b50565b60006a636f6e736f6c652e6c6f679050600080835160208501845afa505050565b6200041560201b620015d317819050919050565b6200041f62000659565b565b600080fd5b600073ffffffffffffffffffffffffffffffffffffffff82169050919050565b6000620004538262000426565b9050919050565b620004658162000446565b81146200047157600080fd5b50565b60008151905062000485816200045a565b92915050565b600060208284031215620004a457620004a362000421565b5b6000620004b48482850162000474565b91505092915050565b600081519050919050565b600082825260208201905092915050565b60005b83811015620004f9578082015181840152602081019050620004dc565b60008484015250505050565b6000601f19601f8301169050919050565b60006200052382620004bd565b6200052f8185620004c8565b935062000541818560208601620004d9565b6200054c8162000505565b840191505092915050565b620005628162000446565b82525050565b6000604082019050818103600083015262000584818562000516565b905062000595602083018462000557565b9392505050565b7f4e6f7420656e6f756768207065726d697373696f6e2e00000000000000000000600082015250565b6000620005d4601683620004c8565b9150620005e1826200059c565b602082019050919050565b600060208201905081810360008301526200060781620005c5565b9050919050565b600060608201905062000625600083018662000557565b818103602083015262000639818562000516565b905081810360408301526200064f818462000516565b9050949350505050565b7f4e487b7100000000000000000000000000000000000000000000000000000000600052605160045260246000fd5b61299680620006986000396000f3fe608060405234801561001057600080fd5b50600436106100ea5760003560e01c806362131fd71161008c5780638fe1f092116100665780638fe1f0921461024b5780639617ed98146102675780639f2524ee14610297578063fe644b8c146102c7576100ea565b806362131fd7146101e35780636ca91202146101ff57806387fcff0c1461021b576100ea565b80630d61b519116100c85780630d61b5191461015c57806332648e09146101785780634abefa36146101a95780635b426bbb146101c7576100ea565b8063013cf08b146100ef5780630a55cd02146101225780630cf283b11461013e575b600080fd5b61010960048036038101906101049190611701565b6102f7565b60405161011994939291906117e8565b60405180910390f35b61013c60048036038101906101379190611892565b6103cc565b005b610146610689565b604051610153919061191e565b60405180910390f35b61017660048036038101906101719190611701565b6106ad565b005b610192600480360381019061018d9190611892565b610829565b6040516101a0929190611939565b60405180910390f35b6101b1610973565b6040516101be9190611a2e565b60405180910390f35b6101e160048036038101906101dc9190611701565b610a01565b005b6101fd60048036038101906101f89190611701565b610ceb565b005b61021960048036038101906102149190611c6b565b610fd5565b005b61023560048036038101906102309190611701565b6110e4565b6040516102429190611cf2565b60405180910390f35b61026560048036038101906102609190611d0d565b611123565b005b610281600480360381019061027c9190611d98565b6112aa565b60405161028e9190611dd8565b60405180910390f35b6102b160048036038101906102ac9190611d98565b6113b7565b6040516102be9190611dd8565b60405180910390f35b6102e160048036038101906102dc9190611701565b6113e6565b6040516102ee9190611eff565b60405180910390f35b6004818154811061030757600080fd5b906000526020600020906005020160009150905080600001805461032a90611f50565b80601f016020809104026020016040519081016040528092919081815260200182805461035690611f50565b80156103a35780601f10610378576101008083540402835291602001916103a3565b820191906000526020600020905b81548152906001019060200180831161038657829003601f168201915b5050505050908060010154908060020154908060030160009054906101000a900460ff16905084565b600160009054906101000a900473ffffffffffffffffffffffffffffffffffffffff1673ffffffffffffffffffffffffffffffffffffffff163373ffffffffffffffffffffffffffffffffffffffff161461045c576040517f08c379a000000000000000000000000000000000000000000000000000000000815260040161045390611ff3565b60405180910390fd5b60008054906101000a900473ffffffffffffffffffffffffffffffffffffffff1673ffffffffffffffffffffffffffffffffffffffff16630a55cd02826040518263ffffffff1660e01b81526004016104b59190611cf2565b600060405180830381600087803b1580156104cf57600080fd5b505af11580156104e3573d6000803e3d6000fd5b5050505060005b600280549050811015610685578173ffffffffffffffffffffffffffffffffffffffff166002828154811061052257610521612013565b5b9060005260206000200160009054906101000a900473ffffffffffffffffffffffffffffffffffffffff1673ffffffffffffffffffffffffffffffffffffffff16036106785760008190505b60028054905081101561062f57600260018261058a9190612071565b8154811061059b5761059a612013565b5b9060005260206000200160009054906101000a900473ffffffffffffffffffffffffffffffffffffffff16600282815481106105da576105d9612013565b5b9060005260206000200160006101000a81548173ffffffffffffffffffffffffffffffffffffffff021916908373ffffffffffffffffffffffffffffffffffffffff160217905550808060010191505061056e565b506002805480610642576106416120a5565b5b6001900381819060005260206000200160006101000a81549073ffffffffffffffffffffffffffffffffffffffff021916905590555b80806001019150506104ea565b5050565b60008054906101000a900473ffffffffffffffffffffffffffffffffffffffff1681565b60001515600482815481106106c5576106c4612013565b5b906000526020600020906005020160030160009054906101000a900460ff16151514610726576040517f08c379a000000000000000000000000000000000000000000000000000000000815260040161071d90612146565b60405180910390fd5b6004818154811061073a57610739612013565b5b906000526020600020906005020160020154600482815481106107605761075f612013565b5b90600052602060002090600502016001015411156107f05760016004828154811061078e5761078d612013565b5b906000526020600020906005020160030160006101000a81548160ff0219169083151502179055507f19cf08368c3c86aacb1be12c902a304c3b1d64e4f72e1aa33789a01f68ecab056040516107e3906121b2565b60405180910390a1610826565b7f276f61830e554c29810d2d21d6523c691bef4a9634206a55fee98c24e62c9a0560405161081d90612244565b60405180910390a15b50565b60608060008054906101000a900473ffffffffffffffffffffffffffffffffffffffff1673ffffffffffffffffffffffffffffffffffffffff1663a0b9009b846040518263ffffffff1660e01b81526004016108859190611cf2565b600060405180830381865afa1580156108a2573d6000803e3d6000fd5b505050506040513d6000823e3d601f19601f820116820180604052508101906108cb91906122d4565b60008054906101000a900473ffffffffffffffffffffffffffffffffffffffff1673ffffffffffffffffffffffffffffffffffffffff16633b622fa0856040518263ffffffff1660e01b81526004016109249190611cf2565b600060405180830381865afa158015610941573d6000803e3d6000fd5b505050506040513d6000823e3d601f19601f8201168201806040525081019061096a91906122d4565b91509150915091565b606060028054806020026020016040519081016040528092919081815260200182805480156109f757602002820191906000526020600020905b8160009054906101000a900473ffffffffffffffffffffffffffffffffffffffff1673ffffffffffffffffffffffffffffffffffffffff16815260200190600101908083116109ad575b5050505050905090565b3373ffffffffffffffffffffffffffffffffffffffff1660008054906101000a900473ffffffffffffffffffffffffffffffffffffffff1673ffffffffffffffffffffffffffffffffffffffff16630d2425ae336040518263ffffffff1660e01b8152600401610a719190611cf2565b602060405180830381865afa158015610a8e573d6000803e3d6000fd5b505050506040513d601f19601f82011682018060405250810190610ab29190612332565b73ffffffffffffffffffffffffffffffffffffffff1614610b08576040517f08c379a0000000000000000000000000000000000000000000000000000000008152600401610aff906123ab565b60405180910390fd5b60001515600360003373ffffffffffffffffffffffffffffffffffffffff1673ffffffffffffffffffffffffffffffffffffffff168152602001908152602001600020600083815260200190815260200160002060009054906101000a900460ff16151514610bac576040517f08c379a0000000000000000000000000000000000000000000000000000000008152600401610ba39061243d565b60405180910390fd5b610bb633826112aa565b610bf5576040517f08c379a0000000000000000000000000000000000000000000000000000000008152600401610bec906124a9565b60405180910390fd5b6001600360003373ffffffffffffffffffffffffffffffffffffffff1673ffffffffffffffffffffffffffffffffffffffff168152602001908152602001600020600083815260200190815260200160002060006101000a81548160ff021916908315150217905550600160048281548110610c7457610c73612013565b5b90600052602060002090600502016001016000828254610c949190612071565b92505081905550803373ffffffffffffffffffffffffffffffffffffffff167f41aeb55eef25a94e94aeac300a628610ffa8099eb2bf991b3ae640d42233467d604051610ce090612515565b60405180910390a350565b3373ffffffffffffffffffffffffffffffffffffffff1660008054906101000a900473ffffffffffffffffffffffffffffffffffffffff1673ffffffffffffffffffffffffffffffffffffffff16630d2425ae336040518263ffffffff1660e01b8152600401610d5b9190611cf2565b602060405180830381865afa158015610d78573d6000803e3d6000fd5b505050506040513d601f19601f82011682018060405250810190610d9c9190612332565b73ffffffffffffffffffffffffffffffffffffffff1614610df2576040517f08c379a0000000000000000000000000000000000000000000000000000000008152600401610de9906123ab565b60405180910390fd5b60001515600360003373ffffffffffffffffffffffffffffffffffffffff1673ffffffffffffffffffffffffffffffffffffffff168152602001908152602001600020600083815260200190815260200160002060009054906101000a900460ff16151514610e96576040517f08c379a0000000000000000000000000000000000000000000000000000000008152600401610e8d9061243d565b60405180910390fd5b610ea033826112aa565b610edf576040517f08c379a0000000000000000000000000000000000000000000000000000000008152600401610ed6906124a9565b60405180910390fd5b6001600360003373ffffffffffffffffffffffffffffffffffffffff1673ffffffffffffffffffffffffffffffffffffffff168152602001908152602001600020600083815260200190815260200160002060006101000a81548160ff021916908315150217905550600160048281548110610f5e57610f5d612013565b5b90600052602060002090600502016002016000828254610f7e9190612071565b92505081905550803373ffffffffffffffffffffffffffffffffffffffff167f41aeb55eef25a94e94aeac300a628610ffa8099eb2bf991b3ae640d42233467d604051610fca90612581565b60405180910390a350565b60046040518060a00160405280848152602001600081526020016000815260200160001515815260200183815250908060018154018082558091505060019003906000526020600020906005020160009091909190915060008201518160000190816110419190612743565b50602082015181600101556040820151816002015560608201518160030160006101000a81548160ff02191690831515021790555060808201518160040190805190602001906110929291906115dd565b50505060016004805490506110a79190612815565b7f8956532d922732460ff2d895ae5e6ce4f8f166bc687aa580fa00a8ae14cb820383836040516110d8929190612849565b60405180910390a25050565b600281815481106110f457600080fd5b906000526020600020016000915054906101000a900473ffffffffffffffffffffffffffffffffffffffff1681565b600160009054906101000a900473ffffffffffffffffffffffffffffffffffffffff1673ffffffffffffffffffffffffffffffffffffffff163373ffffffffffffffffffffffffffffffffffffffff16146111b3576040517f08c379a00000000000000000000000000000000000000000000000000000000081526004016111aa906128cc565b60405180910390fd5b60008054906101000a900473ffffffffffffffffffffffffffffffffffffffff1673ffffffffffffffffffffffffffffffffffffffff1663e0b73f3f8484846040518463ffffffff1660e01b8152600401611210939291906128ec565b600060405180830381600087803b15801561122a57600080fd5b505af115801561123e573d6000803e3d6000fd5b505050506002839080600181540180825580915050600190039060005260206000200160009091909190916101000a81548173ffffffffffffffffffffffffffffffffffffffff021916908373ffffffffffffffffffffffffffffffffffffffff160217905550505050565b60008060008054906101000a900473ffffffffffffffffffffffffffffffffffffffff1673ffffffffffffffffffffffffffffffffffffffff16633b622fa0856040518263ffffffff1660e01b81526004016113069190611cf2565b600060405180830381865afa158015611323573d6000803e3d6000fd5b505050506040513d6000823e3d601f19601f8201168201806040525081019061134c91906122d4565b90506000611359846113e6565b905060005b81518110156113a95761138b82828151811061137d5761137c612013565b5b60200260200101518461150b565b1561139c57600193505050506113b1565b808060010191505061135e565b506000925050505b92915050565b60036020528160005260406000206020528060005260406000206000915091509054906101000a900460ff1681565b60606000600483815481106113fe576113fd612013565b5b9060005260206000209060050201905080600401805480602002602001604051908101604052809291908181526020016000905b828210156114de57838290600052602060002001805461145190611f50565b80601f016020809104026020016040519081016040528092919081815260200182805461147d90611f50565b80156114ca5780601f1061149f576101008083540402835291602001916114ca565b820191906000526020600020905b8154815290600101906020018083116114ad57829003601f168201915b505050505081526020019060010190611432565b50505050915050919050565b60006a636f6e736f6c652e6c6f679050600080835160208501845afa505050565b6000815183511461151f57600090506115cd565b60005b83518110156115c75782818151811061153e5761153d612013565b5b602001015160f81c60f81b7effffffffffffffffffffffffffffffffffffffffffffffffffffffffffffff191684828151811061157e5761157d612013565b5b602001015160f81c60f81b7effffffffffffffffffffffffffffffffffffffffffffffffffffffffffffff1916146115ba5760009150506115cd565b8080600101915050611522565b50600190505b92915050565b6115db612931565b565b828054828255906000526020600020908101928215611625579160200282015b828111156116245782518290816116149190612743565b50916020019190600101906115fd565b5b5090506116329190611636565b5090565b5b80821115611656576000818161164d919061165a565b50600101611637565b5090565b50805461166690611f50565b6000825580601f106116785750611697565b601f016020900490600052602060002090810190611696919061169a565b5b50565b5b808211156116b357600081600090555060010161169b565b5090565b6000604051905090565b600080fd5b600080fd5b6000819050919050565b6116de816116cb565b81146116e957600080fd5b50565b6000813590506116fb816116d5565b92915050565b600060208284031215611717576117166116c1565b5b6000611725848285016116ec565b91505092915050565b600081519050919050565b600082825260208201905092915050565b60005b8381101561176857808201518184015260208101905061174d565b60008484015250505050565b6000601f19601f8301169050919050565b60006117908261172e565b61179a8185611739565b93506117aa81856020860161174a565b6117b381611774565b840191505092915050565b6117c7816116cb565b82525050565b60008115159050919050565b6117e2816117cd565b82525050565b600060808201905081810360008301526118028187611785565b905061181160208301866117be565b61181e60408301856117be565b61182b60608301846117d9565b95945050505050565b600073ffffffffffffffffffffffffffffffffffffffff82169050919050565b600061185f82611834565b9050919050565b61186f81611854565b811461187a57600080fd5b50565b60008135905061188c81611866565b92915050565b6000602082840312156118a8576118a76116c1565b5b60006118b68482850161187d565b91505092915050565b6000819050919050565b60006118e46118df6118da84611834565b6118bf565b611834565b9050919050565b60006118f6826118c9565b9050919050565b6000611908826118eb565b9050919050565b611918816118fd565b82525050565b6000602082019050611933600083018461190f565b92915050565b600060408201905081810360008301526119538185611785565b905081810360208301526119678184611785565b90509392505050565b600081519050919050565b600082825260208201905092915050565b6000819050602082019050919050565b6119a581611854565b82525050565b60006119b7838361199c565b60208301905092915050565b6000602082019050919050565b60006119db82611970565b6119e5818561197b565b93506119f08361198c565b8060005b83811015611a21578151611a0888826119ab565b9750611a13836119c3565b9250506001810190506119f4565b5085935050505092915050565b60006020820190508181036000830152611a4881846119d0565b905092915050565b600080fd5b600080fd5b7f4e487b7100000000000000000000000000000000000000000000000000000000600052604160045260246000fd5b611a9282611774565b810181811067ffffffffffffffff82111715611ab157611ab0611a5a565b5b80604052505050565b6000611ac46116b7565b9050611ad08282611a89565b919050565b600067ffffffffffffffff821115611af057611aef611a5a565b5b611af982611774565b9050602081019050919050565b82818337600083830152505050565b6000611b28611b2384611ad5565b611aba565b905082815260208101848484011115611b4457611b43611a55565b5b611b4f848285611b06565b509392505050565b600082601f830112611b6c57611b6b611a50565b5b8135611b7c848260208601611b15565b91505092915050565b600067ffffffffffffffff821115611ba057611b9f611a5a565b5b602082029050602081019050919050565b600080fd5b6000611bc9611bc484611b85565b611aba565b90508083825260208201905060208402830185811115611bec57611beb611bb1565b5b835b81811015611c3357803567ffffffffffffffff811115611c1157611c10611a50565b5b808601611c1e8982611b57565b85526020850194505050602081019050611bee565b5050509392505050565b600082601f830112611c5257611c51611a50565b5b8135611c62848260208601611bb6565b91505092915050565b60008060408385031215611c8257611c816116c1565b5b600083013567ffffffffffffffff811115611ca057611c9f6116c6565b5b611cac85828601611b57565b925050602083013567ffffffffffffffff811115611ccd57611ccc6116c6565b5b611cd985828601611c3d565b9150509250929050565b611cec81611854565b82525050565b6000602082019050611d076000830184611ce3565b92915050565b600080600060608486031215611d2657611d256116c1565b5b6000611d348682870161187d565b935050602084013567ffffffffffffffff811115611d5557611d546116c6565b5b611d6186828701611b57565b925050604084013567ffffffffffffffff811115611d8257611d816116c6565b5b611d8e86828701611b57565b9150509250925092565b60008060408385031215611daf57611dae6116c1565b5b6000611dbd8582860161187d565b9250506020611dce858286016116ec565b9150509250929050565b6000602082019050611ded60008301846117d9565b92915050565b600081519050919050565b600082825260208201905092915050565b6000819050602082019050919050565b600082825260208201905092915050565b6000611e3b8261172e565b611e458185611e1f565b9350611e5581856020860161174a565b611e5e81611774565b840191505092915050565b6000611e758383611e30565b905092915050565b6000602082019050919050565b6000611e9582611df3565b611e9f8185611dfe565b935083602082028501611eb185611e0f565b8060005b85811015611eed5784840389528151611ece8582611e69565b9450611ed983611e7d565b925060208a01995050600181019050611eb5565b50829750879550505050505092915050565b60006020820190508181036000830152611f198184611e8a565b905092915050565b7f4e487b7100000000000000000000000000000000000000000000000000000000600052602260045260246000fd5b60006002820490506001821680611f6857607f821691505b602082108103611f7b57611f7a611f21565b5b50919050565b7f596f75277265206e6f74207065726d697474656420746f2072656d6f7665207360008201527f746166662e000000000000000000000000000000000000000000000000000000602082015250565b6000611fdd602583611739565b9150611fe882611f81565b604082019050919050565b6000602082019050818103600083015261200c81611fd0565b9050919050565b7f4e487b7100000000000000000000000000000000000000000000000000000000600052603260045260246000fd5b7f4e487b7100000000000000000000000000000000000000000000000000000000600052601160045260246000fd5b600061207c826116cb565b9150612087836116cb565b925082820190508082111561209f5761209e612042565b5b92915050565b7f4e487b7100000000000000000000000000000000000000000000000000000000600052603160045260246000fd5b7f50726f706f73616c2068617320616c7265616479206265656e2065786563757460008201527f6564000000000000000000000000000000000000000000000000000000000000602082015250565b6000612130602283611739565b915061213b826120d4565b604082019050919050565b6000602082019050818103600083015261215f81612123565b9050919050565b7f50726f706f73616c20686173206265656e20617070726f766564000000000000600082015250565b600061219c601a83611739565b91506121a782612166565b602082019050919050565b600060208201905081810360008301526121cb8161218f565b9050919050565b7f50726f706f73616c20686173206e6f74206265656e20617070726f766564206260008201527f79206d616a6f7269747920766f74650000000000000000000000000000000000602082015250565b600061222e602f83611739565b9150612239826121d2565b604082019050919050565b6000602082019050818103600083015261225d81612221565b9050919050565b600061227761227284611ad5565b611aba565b90508281526020810184848401111561229357612292611a55565b5b61229e84828561174a565b509392505050565b600082601f8301126122bb576122ba611a50565b5b81516122cb848260208601612264565b91505092915050565b6000602082840312156122ea576122e96116c1565b5b600082015167ffffffffffffffff811115612308576123076116c6565b5b612314848285016122a6565b91505092915050565b60008151905061232c81611866565b92915050565b600060208284031215612348576123476116c1565b5b60006123568482850161231d565b91505092915050565b7f4f6e6c79206d656d626572732063616e20766f74650000000000000000000000600082015250565b6000612395601583611739565b91506123a08261235f565b602082019050919050565b600060208201905081810360008301526123c481612388565b9050919050565b7f596f75206861766520616c726561647920766f74656420666f7220746869732060008201527f70726f706f73616c000000000000000000000000000000000000000000000000602082015250565b6000612427602883611739565b9150612432826123cb565b604082019050919050565b600060208201905081810360008301526124568161241a565b9050919050565b7f596f75277265206e6f7420706572746d697474656420746f20766f74652e0000600082015250565b6000612493601e83611739565b915061249e8261245d565b602082019050919050565b600060208201905081810360008301526124c281612486565b9050919050565b7f666f720000000000000000000000000000000000000000000000000000000000600082015250565b60006124ff600383611739565b915061250a826124c9565b602082019050919050565b6000602082019050818103600083015261252e816124f2565b9050919050565b7f616761696e737400000000000000000000000000000000000000000000000000600082015250565b600061256b600783611739565b915061257682612535565b602082019050919050565b6000602082019050818103600083015261259a8161255e565b9050919050565b60008190508160005260206000209050919050565b60006020601f8301049050919050565b600082821b905092915050565b6000600883026126037fffffffffffffffffffffffffffffffffffffffffffffffffffffffffffffffff826125c6565b61260d86836125c6565b95508019841693508086168417925050509392505050565b600061264061263b612636846116cb565b6118bf565b6116cb565b9050919050565b6000819050919050565b61265a83612625565b61266e61266682612647565b8484546125d3565b825550505050565b600090565b612683612676565b61268e818484612651565b505050565b5b818110156126b2576126a760008261267b565b600181019050612694565b5050565b601f8211156126f7576126c8816125a1565b6126d1846125b6565b810160208510156126e0578190505b6126f46126ec856125b6565b830182612693565b50505b505050565b600082821c905092915050565b600061271a600019846008026126fc565b1980831691505092915050565b60006127338383612709565b9150826002028217905092915050565b61274c8261172e565b67ffffffffffffffff81111561276557612764611a5a565b5b61276f8254611f50565b61277a8282856126b6565b600060209050601f8311600181146127ad576000841561279b578287015190505b6127a58582612727565b86555061280d565b601f1984166127bb866125a1565b60005b828110156127e3578489015182556001820191506020850194506020810190506127be565b8683101561280057848901516127fc601f891682612709565b8355505b6001600288020188555050505b505050505050565b6000612820826116cb565b915061282b836116cb565b925082820390508181111561284357612842612042565b5b92915050565b600060408201905081810360008301526128638185611785565b905081810360208301526128778184611e8a565b90509392505050565b7f4e6f7420656e6f756768207065726d697373696f6e2e00000000000000000000600082015250565b60006128b6601683611739565b91506128c182612880565b602082019050919050565b600060208201905081810360008301526128e5816128a9565b9050919050565b60006060820190506129016000830186611ce3565b81810360208301526129138185611785565b905081810360408301526129278184611785565b9050949350505050565b7f4e487b7100000000000000000000000000000000000000000000000000000000600052605160045260246000fdfea2646970667358221220b01964ed23a18177171fdd221be6dcf2df3ad6ebaaa8be038da396f546ac4bed64736f6c63430008180033",
  "linkReferences": {},
  "deployedLinkReferences": {}
}