{
  "_format": "hh-sol-artifact-1",
  "contractName": "DaoNFT",
  "sourceName": "contracts/DaoNFT.sol",
  "abi": [
    {
      "inputs": [
        {
          "internalType": "string",
          "name": "DAOname",
          "type": "string"
        },
        {
          "internalType": "string",
          "name": "symbol",
          "type": "string"
        }
      ],
      "stateMutability": "nonpayable",
      "type": "constructor"
    },
    {
      "inputs": [
        {
          "internalType": "address",
          "name": "sender",
          "type": "address"
        },
        {
          "internalType": "uint256",
          "name": "tokenId",
          "type": "uint256"
        },
        {
          "internalType": "address",
          "name": "owner",
          "type": "address"
        }
      ],
      "name": "ERC721IncorrectOwner",
      "type": "error"
    },
    {
      "inputs": [
        {
          "internalType": "address",
          "name": "operator",
          "type": "address"
        },
        {
          "internalType": "uint256",
          "name": "tokenId",
          "type": "uint256"
        }
      ],
      "name": "ERC721InsufficientApproval",
      "type": "error"
    },
    {
      "inputs": [
        {
          "internalType": "address",
          "name": "approver",
          "type": "address"
        }
      ],
      "name": "ERC721InvalidApprover",
      "type": "error"
    },
    {
      "inputs": [
        {
          "internalType": "address",
          "name": "operator",
          "type": "address"
        }
      ],
      "name": "ERC721InvalidOperator",
      "type": "error"
    },
    {
      "inputs": [
        {
          "internalType": "address",
          "name": "owner",
          "type": "address"
        }
      ],
      "name": "ERC721InvalidOwner",
      "type": "error"
    },
    {
      "inputs": [
        {
          "internalType": "address",
          "name": "receiver",
          "type": "address"
        }
      ],
      "name": "ERC721InvalidReceiver",
      "type": "error"
    },
    {
      "inputs": [
        {
          "internalType": "address",
          "name": "sender",
          "type": "address"
        }
      ],
      "name": "ERC721InvalidSender",
      "type": "error"
    },
    {
      "inputs": [
        {
          "internalType": "uint256",
          "name": "tokenId",
          "type": "uint256"
        }
      ],
      "name": "ERC721NonexistentToken",
      "type": "error"
    },
    {
      "inputs": [
        {
          "internalType": "address",
          "name": "owner",
          "type": "address"
        }
      ],
      "name": "OwnableInvalidOwner",
      "type": "error"
    },
    {
      "inputs": [
        {
          "internalType": "address",
          "name": "account",
          "type": "address"
        }
      ],
      "name": "OwnableUnauthorizedAccount",
      "type": "error"
    },
    {
      "anonymous": false,
      "inputs": [
        {
          "indexed": true,
          "internalType": "address",
          "name": "owner",
          "type": "address"
        },
        {
          "indexed": true,
          "internalType": "address",
          "name": "approved",
          "type": "address"
        },
        {
          "indexed": true,
          "internalType": "uint256",
          "name": "tokenId",
          "type": "uint256"
        }
      ],
      "name": "Approval",
      "type": "event"
    },
    {
      "anonymous": false,
      "inputs": [
        {
          "indexed": true,
          "internalType": "address",
          "name": "owner",
          "type": "address"
        },
        {
          "indexed": true,
          "internalType": "address",
          "name": "operator",
          "type": "address"
        },
        {
          "indexed": false,
          "internalType": "bool",
          "name": "approved",
          "type": "bool"
        }
      ],
      "name": "ApprovalForAll",
      "type": "event"
    },
    {
      "anonymous": false,
      "inputs": [
        {
          "indexed": true,
          "internalType": "address",
          "name": "previousOwner",
          "type": "address"
        },
        {
          "indexed": true,
          "internalType": "address",
          "name": "newOwner",
          "type": "address"
        }
      ],
      "name": "OwnershipTransferred",
      "type": "event"
    },
    {
      "anonymous": false,
      "inputs": [
        {
          "indexed": true,
          "internalType": "address",
          "name": "from",
          "type": "address"
        },
        {
          "indexed": true,
          "internalType": "address",
          "name": "to",
          "type": "address"
        },
        {
          "indexed": true,
          "internalType": "uint256",
          "name": "tokenId",
          "type": "uint256"
        }
      ],
      "name": "Transfer",
      "type": "event"
    },
    {
      "inputs": [
        {
          "internalType": "address",
          "name": "to",
          "type": "address"
        },
        {
          "internalType": "uint256",
          "name": "tokenId",
          "type": "uint256"
        }
      ],
      "name": "approve",
      "outputs": [],
      "stateMutability": "nonpayable",
      "type": "function"
    },
    {
      "inputs": [
        {
          "internalType": "address",
          "name": "owner",
          "type": "address"
        }
      ],
      "name": "balanceOf",
      "outputs": [
        {
          "internalType": "uint256",
          "name": "",
          "type": "uint256"
        }
      ],
      "stateMutability": "view",
      "type": "function"
    },
    {
      "inputs": [
        {
          "internalType": "uint256",
          "name": "tokenId",
          "type": "uint256"
        }
      ],
      "name": "getApproved",
      "outputs": [
        {
          "internalType": "address",
          "name": "",
          "type": "address"
        }
      ],
      "stateMutability": "view",
      "type": "function"
    },
    {
      "inputs": [
        {
          "internalType": "address",
          "name": "_address",
          "type": "address"
        }
      ],
      "name": "getEmployeeAddress",
      "outputs": [
        {
          "internalType": "address",
          "name": "",
          "type": "address"
        }
      ],
      "stateMutability": "view",
      "type": "function"
    },
    {
      "inputs": [
        {
          "internalType": "address",
          "name": "_address",
          "type": "address"
        }
      ],
      "name": "getEmployeeName",
      "outputs": [
        {
          "internalType": "string",
          "name": "",
          "type": "string"
        }
      ],
      "stateMutability": "view",
      "type": "function"
    },
    {
      "inputs": [
        {
          "internalType": "address",
          "name": "_address",
          "type": "address"
        }
      ],
      "name": "getEmployeeRole",
      "outputs": [
        {
          "internalType": "string",
          "name": "",
          "type": "string"
        }
      ],
      "stateMutability": "view",
      "type": "function"
    },
    {
      "inputs": [
        {
          "internalType": "address",
          "name": "owner",
          "type": "address"
        },
        {
          "internalType": "address",
          "name": "operator",
          "type": "address"
        }
      ],
      "name": "isApprovedForAll",
      "outputs": [
        {
          "internalType": "bool",
          "name": "",
          "type": "bool"
        }
      ],
      "stateMutability": "view",
      "type": "function"
    },
    {
      "inputs": [],
      "name": "maxSupply_",
      "outputs": [
        {
          "internalType": "uint256",
          "name": "",
          "type": "uint256"
        }
      ],
      "stateMutability": "view",
      "type": "function"
    },
    {
      "inputs": [],
      "name": "name",
      "outputs": [
        {
          "internalType": "string",
          "name": "",
          "type": "string"
        }
      ],
      "stateMutability": "view",
      "type": "function"
    },
    {
      "inputs": [],
      "name": "owner",
      "outputs": [
        {
          "internalType": "address",
          "name": "",
          "type": "address"
        }
      ],
      "stateMutability": "view",
      "type": "function"
    },
    {
      "inputs": [
        {
          "internalType": "uint256",
          "name": "tokenId",
          "type": "uint256"
        }
      ],
      "name": "ownerOf",
      "outputs": [
        {
          "internalType": "address",
          "name": "",
          "type": "address"
        }
      ],
      "stateMutability": "view",
      "type": "function"
    },
    {
      "inputs": [
        {
          "internalType": "address",
          "name": "employee_",
          "type": "address"
        }
      ],
      "name": "removeStuff",
      "outputs": [],
      "stateMutability": "nonpayable",
      "type": "function"
    },
    {
      "inputs": [],
      "name": "renounceOwnership",
      "outputs": [],
      "stateMutability": "nonpayable",
      "type": "function"
    },
    {
      "inputs": [
        {
          "internalType": "address",
          "name": "from",
          "type": "address"
        },
        {
          "internalType": "address",
          "name": "to",
          "type": "address"
        },
        {
          "internalType": "uint256",
          "name": "tokenId",
          "type": "uint256"
        }
      ],
      "name": "safeTransferFrom",
      "outputs": [],
      "stateMutability": "nonpayable",
      "type": "function"
    },
    {
      "inputs": [
        {
          "internalType": "address",
          "name": "from",
          "type": "address"
        },
        {
          "internalType": "address",
          "name": "to",
          "type": "address"
        },
        {
          "internalType": "uint256",
          "name": "tokenId",
          "type": "uint256"
        },
        {
          "internalType": "bytes",
          "name": "data",
          "type": "bytes"
        }
      ],
      "name": "safeTransferFrom",
      "outputs": [],
      "stateMutability": "nonpayable",
      "type": "function"
    },
    {
      "inputs": [
        {
          "internalType": "address",
          "name": "operator",
          "type": "address"
        },
        {
          "internalType": "bool",
          "name": "approved",
          "type": "bool"
        }
      ],
      "name": "setApprovalForAll",
      "outputs": [],
      "stateMutability": "nonpayable",
      "type": "function"
    },
    {
      "inputs": [
        {
          "internalType": "address",
          "name": "employeeAddress_",
          "type": "address"
        },
        {
          "internalType": "string",
          "name": "_name",
          "type": "string"
        },
        {
          "internalType": "string",
          "name": "_role",
          "type": "string"
        }
      ],
      "name": "setTokenForStaff",
      "outputs": [],
      "stateMutability": "nonpayable",
      "type": "function"
    },
    {
      "inputs": [
        {
          "internalType": "bytes4",
          "name": "interfaceId",
          "type": "bytes4"
        }
      ],
      "name": "supportsInterface",
      "outputs": [
        {
          "internalType": "bool",
          "name": "",
          "type": "bool"
        }
      ],
      "stateMutability": "view",
      "type": "function"
    },
    {
      "inputs": [],
      "name": "symbol",
      "outputs": [
        {
          "internalType": "string",
          "name": "",
          "type": "string"
        }
      ],
      "stateMutability": "view",
      "type": "function"
    },
    {
      "inputs": [
        {
          "internalType": "uint256",
          "name": "tokenId",
          "type": "uint256"
        }
      ],
      "name": "tokenURI",
      "outputs": [
        {
          "internalType": "string",
          "name": "",
          "type": "string"
        }
      ],
      "stateMutability": "view",
      "type": "function"
    },
    {
      "inputs": [],
      "name": "totalSupply_",
      "outputs": [
        {
          "internalType": "uint256",
          "name": "",
          "type": "uint256"
        }
      ],
      "stateMutability": "view",
      "type": "function"
    },
    {
      "inputs": [
        {
          "internalType": "address",
          "name": "from",
          "type": "address"
        },
        {
          "internalType": "address",
          "name": "to",
          "type": "address"
        },
        {
          "internalType": "uint256",
          "name": "tokenId",
          "type": "uint256"
        }
      ],
      "name": "transferFrom",
      "outputs": [],
      "stateMutability": "nonpayable",
      "type": "function"
    },
    {
      "inputs": [
        {
          "internalType": "address",
          "name": "newOwner",
          "type": "address"
        }
      ],
      "name": "transferOwnership",
      "outputs": [],
      "stateMutability": "nonpayable",
      "type": "function"
    }
  ],
  "bytecode": "0x6080604052606460075560006008553480156200001b57600080fd5b50604051620032fe380380620032fe833981810160405281019062000041919062000393565b338282816000908162000055919062000663565b50806001908162000067919062000663565b505050600073ffffffffffffffffffffffffffffffffffffffff168173ffffffffffffffffffffffffffffffffffffffff1603620000df5760006040517f1e4fbdf7000000000000000000000000000000000000000000000000000000008152600401620000d691906200078f565b60405180910390fd5b620000f0816200013a60201b60201c565b5033600960006101000a81548173ffffffffffffffffffffffffffffffffffffffff021916908373ffffffffffffffffffffffffffffffffffffffff1602179055505050620007ac565b6000600660009054906101000a900473ffffffffffffffffffffffffffffffffffffffff16905081600660006101000a81548173ffffffffffffffffffffffffffffffffffffffff021916908373ffffffffffffffffffffffffffffffffffffffff1602179055508173ffffffffffffffffffffffffffffffffffffffff168173ffffffffffffffffffffffffffffffffffffffff167f8be0079c531659141344cd1fd0a4f28419497f9722a3daafe3b4186f6b6457e060405160405180910390a35050565b6000604051905090565b600080fd5b600080fd5b600080fd5b600080fd5b6000601f19601f8301169050919050565b7f4e487b7100000000000000000000000000000000000000000000000000000000600052604160045260246000fd5b62000269826200021e565b810181811067ffffffffffffffff821117156200028b576200028a6200022f565b5b80604052505050565b6000620002a062000200565b9050620002ae82826200025e565b919050565b600067ffffffffffffffff821115620002d157620002d06200022f565b5b620002dc826200021e565b9050602081019050919050565b60005b8381101562000309578082015181840152602081019050620002ec565b60008484015250505050565b60006200032c6200032684620002b3565b62000294565b9050828152602081018484840111156200034b576200034a62000219565b5b62000358848285620002e9565b509392505050565b600082601f83011262000378576200037762000214565b5b81516200038a84826020860162000315565b91505092915050565b60008060408385031215620003ad57620003ac6200020a565b5b600083015167ffffffffffffffff811115620003ce57620003cd6200020f565b5b620003dc8582860162000360565b925050602083015167ffffffffffffffff8111156200040057620003ff6200020f565b5b6200040e8582860162000360565b9150509250929050565b600081519050919050565b7f4e487b7100000000000000000000000000000000000000000000000000000000600052602260045260246000fd5b600060028204905060018216806200046b57607f821691505b60208210810362000481576200048062000423565b5b50919050565b60008190508160005260206000209050919050565b60006020601f8301049050919050565b600082821b905092915050565b600060088302620004eb7fffffffffffffffffffffffffffffffffffffffffffffffffffffffffffffffff82620004ac565b620004f78683620004ac565b95508019841693508086168417925050509392505050565b6000819050919050565b6000819050919050565b6000620005446200053e62000538846200050f565b62000519565b6200050f565b9050919050565b6000819050919050565b620005608362000523565b620005786200056f826200054b565b848454620004b9565b825550505050565b600090565b6200058f62000580565b6200059c81848462000555565b505050565b5b81811015620005c457620005b860008262000585565b600181019050620005a2565b5050565b601f8211156200061357620005dd8162000487565b620005e8846200049c565b81016020851015620005f8578190505b6200061062000607856200049c565b830182620005a1565b50505b505050565b600082821c905092915050565b6000620006386000198460080262000618565b1980831691505092915050565b600062000653838362000625565b9150826002028217905092915050565b6200066e8262000418565b67ffffffffffffffff8111156200068a57620006896200022f565b5b62000696825462000452565b620006a3828285620005c8565b600060209050601f831160018114620006db5760008415620006c6578287015190505b620006d2858262000645565b86555062000742565b601f198416620006eb8662000487565b60005b828110156200071557848901518255600182019150602085019450602081019050620006ee565b8683101562000735578489015162000731601f89168262000625565b8355505b6001600288020188555050505b505050505050565b600073ffffffffffffffffffffffffffffffffffffffff82169050919050565b600062000777826200074a565b9050919050565b62000789816200076a565b82525050565b6000602082019050620007a660008301846200077e565b92915050565b612b4280620007bc6000396000f3fe608060405234801561001057600080fd5b506004361061014d5760003560e01c80636352211e116100c3578063a22cb4651161007c578063a22cb465146103b2578063b88d4fde146103ce578063c87b56dd146103ea578063e0b73f3f1461041a578063e985e9c514610436578063f2fde38b146104665761014d565b80636352211e146102dc57806370a082311461030c578063715018a61461033c5780638da5cb5b1461034657806395d89b4114610364578063a0b9009b146103825761014d565b80630a55cd02116101155780630a55cd021461020a5780630d2425ae1461022657806323b872dd14610256578063324536eb146102725780633b622fa01461029057806342842e0e146102c05761014d565b806301ffc9a71461015257806306fdde0314610182578063081812fc146101a0578063095ea7b3146101d0578063097284b2146101ec575b600080fd5b61016c60048036038101906101679190611e81565b610482565b6040516101799190611ec9565b60405180910390f35b61018a610564565b6040516101979190611f74565b60405180910390f35b6101ba60048036038101906101b59190611fcc565b6105f6565b6040516101c7919061203a565b60405180910390f35b6101ea60048036038101906101e59190612081565b610612565b005b6101f4610628565b60405161020191906120d0565b60405180910390f35b610224600480360381019061021f91906120eb565b61062e565b005b610240600480360381019061023b91906120eb565b610761565b60405161024d919061203a565b60405180910390f35b610270600480360381019061026b9190612118565b6107cd565b005b61027a6108cf565b60405161028791906120d0565b60405180910390f35b6102aa60048036038101906102a591906120eb565b6108d5565b6040516102b79190611f74565b60405180910390f35b6102da60048036038101906102d59190612118565b6109a9565b005b6102f660048036038101906102f19190611fcc565b6109c9565b604051610303919061203a565b60405180910390f35b610326600480360381019061032191906120eb565b6109db565b60405161033391906120d0565b60405180910390f35b610344610a95565b005b61034e610aa9565b60405161035b919061203a565b60405180910390f35b61036c610ad3565b6040516103799190611f74565b60405180910390f35b61039c600480360381019061039791906120eb565b610b65565b6040516103a99190611f74565b60405180910390f35b6103cc60048036038101906103c79190612197565b610c39565b005b6103e860048036038101906103e3919061230c565b610c4f565b005b61040460048036038101906103ff9190611fcc565b610c6c565b6040516104119190611f74565b60405180910390f35b610434600480360381019061042f9190612430565b610cd5565b005b610450600480360381019061044b91906124bb565b610f28565b60405161045d9190611ec9565b60405180910390f35b610480600480360381019061047b91906120eb565b610fbc565b005b60007f80ac58cd000000000000000000000000000000000000000000000000000000007bffffffffffffffffffffffffffffffffffffffffffffffffffffffff1916827bffffffffffffffffffffffffffffffffffffffffffffffffffffffff1916148061054d57507f5b5e139f000000000000000000000000000000000000000000000000000000007bffffffffffffffffffffffffffffffffffffffffffffffffffffffff1916827bffffffffffffffffffffffffffffffffffffffffffffffffffffffff1916145b8061055d575061055c82611042565b5b9050919050565b6060600080546105739061252a565b80601f016020809104026020016040519081016040528092919081815260200182805461059f9061252a565b80156105ec5780601f106105c1576101008083540402835291602001916105ec565b820191906000526020600020905b8154815290600101906020018083116105cf57829003601f168201915b5050505050905090565b6000610601826110ac565b5061060b82611134565b9050919050565b610624828261061f611171565b611179565b5050565b60075481565b6040518060800160405280604051806020016040528060008152508152602001604051806020016040528060008152508152602001600073ffffffffffffffffffffffffffffffffffffffff1681526020016000815250600a60008373ffffffffffffffffffffffffffffffffffffffff1673ffffffffffffffffffffffffffffffffffffffff16815260200190815260200160002060008201518160000190816106d99190612707565b5060208201518160010190816106ef9190612707565b5060408201518160020160006101000a81548173ffffffffffffffffffffffffffffffffffffffff021916908373ffffffffffffffffffffffffffffffffffffffff160217905550606082015181600301559050506001600860008282546107579190612808565b9250508190555050565b6000600a60008373ffffffffffffffffffffffffffffffffffffffff1673ffffffffffffffffffffffffffffffffffffffff16815260200190815260200160002060020160009054906101000a900473ffffffffffffffffffffffffffffffffffffffff169050919050565b600073ffffffffffffffffffffffffffffffffffffffff168273ffffffffffffffffffffffffffffffffffffffff160361083f5760006040517f64a0ae92000000000000000000000000000000000000000000000000000000008152600401610836919061203a565b60405180910390fd5b6000610853838361084e611171565b61118b565b90508373ffffffffffffffffffffffffffffffffffffffff168173ffffffffffffffffffffffffffffffffffffffff16146108c9578382826040517f64283d7b0000000000000000000000000000000000000000000000000000000081526004016108c09392919061283c565b60405180910390fd5b50505050565b60085481565b6060600a60008373ffffffffffffffffffffffffffffffffffffffff1673ffffffffffffffffffffffffffffffffffffffff16815260200190815260200160002060010180546109249061252a565b80601f01602080910402602001604051908101604052809291908181526020018280546109509061252a565b801561099d5780601f106109725761010080835404028352916020019161099d565b820191906000526020600020905b81548152906001019060200180831161098057829003601f168201915b50505050509050919050565b6109c483838360405180602001604052806000815250610c4f565b505050565b60006109d4826110ac565b9050919050565b60008073ffffffffffffffffffffffffffffffffffffffff168273ffffffffffffffffffffffffffffffffffffffff1603610a4e5760006040517f89c62b64000000000000000000000000000000000000000000000000000000008152600401610a45919061203a565b60405180910390fd5b600360008373ffffffffffffffffffffffffffffffffffffffff1673ffffffffffffffffffffffffffffffffffffffff168152602001908152602001600020549050919050565b610a9d6113a5565b610aa7600061142c565b565b6000600660009054906101000a900473ffffffffffffffffffffffffffffffffffffffff16905090565b606060018054610ae29061252a565b80601f0160208091040260200160405190810160405280929190818152602001828054610b0e9061252a565b8015610b5b5780601f10610b3057610100808354040283529160200191610b5b565b820191906000526020600020905b815481529060010190602001808311610b3e57829003601f168201915b5050505050905090565b6060600a60008373ffffffffffffffffffffffffffffffffffffffff1673ffffffffffffffffffffffffffffffffffffffff1681526020019081526020016000206000018054610bb49061252a565b80601f0160208091040260200160405190810160405280929190818152602001828054610be09061252a565b8015610c2d5780601f10610c0257610100808354040283529160200191610c2d565b820191906000526020600020905b815481529060010190602001808311610c1057829003601f168201915b50505050509050919050565b610c4b610c44611171565b83836114f2565b5050565b610c5a8484846107cd565b610c6684848484611661565b50505050565b6060610c77826110ac565b506000610c82611818565b90506000815111610ca25760405180602001604052806000815250610ccd565b80610cac8461182f565b604051602001610cbd9291906128af565b6040516020818303038152906040525b915050919050565b6000600a60008573ffffffffffffffffffffffffffffffffffffffff1673ffffffffffffffffffffffffffffffffffffffff1681526020019081526020016000206000018054610d249061252a565b9050148015610d8157506000600a60008573ffffffffffffffffffffffffffffffffffffffff1673ffffffffffffffffffffffffffffffffffffffff1681526020019081526020016000206001018054610d7d9061252a565b9050145b610dc0576040517f08c379a0000000000000000000000000000000000000000000000000000000008152600401610db79061291f565b60405180910390fd5b60075460085410610e06576040517f08c379a0000000000000000000000000000000000000000000000000000000008152600401610dfd906129b1565b60405180910390fd5b610e0e611dd7565b8281600001819052508181602001819052504281606001818152505083816040019073ffffffffffffffffffffffffffffffffffffffff16908173ffffffffffffffffffffffffffffffffffffffff168152505080600a60008673ffffffffffffffffffffffffffffffffffffffff1673ffffffffffffffffffffffffffffffffffffffff1681526020019081526020016000206000820151816000019081610eb79190612707565b506020820151816001019081610ecd9190612707565b5060408201518160020160006101000a81548173ffffffffffffffffffffffffffffffffffffffff021916908373ffffffffffffffffffffffffffffffffffffffff1602179055506060820151816003015590505050505050565b6000600560008473ffffffffffffffffffffffffffffffffffffffff1673ffffffffffffffffffffffffffffffffffffffff16815260200190815260200160002060008373ffffffffffffffffffffffffffffffffffffffff1673ffffffffffffffffffffffffffffffffffffffff16815260200190815260200160002060009054906101000a900460ff16905092915050565b610fc46113a5565b600073ffffffffffffffffffffffffffffffffffffffff168173ffffffffffffffffffffffffffffffffffffffff16036110365760006040517f1e4fbdf700000000000000000000000000000000000000000000000000000000815260040161102d919061203a565b60405180910390fd5b61103f8161142c565b50565b60007f01ffc9a7000000000000000000000000000000000000000000000000000000007bffffffffffffffffffffffffffffffffffffffffffffffffffffffff1916827bffffffffffffffffffffffffffffffffffffffffffffffffffffffff1916149050919050565b6000806110b8836118fd565b9050600073ffffffffffffffffffffffffffffffffffffffff168173ffffffffffffffffffffffffffffffffffffffff160361112b57826040517f7e27328900000000000000000000000000000000000000000000000000000000815260040161112291906120d0565b60405180910390fd5b80915050919050565b60006004600083815260200190815260200160002060009054906101000a900473ffffffffffffffffffffffffffffffffffffffff169050919050565b600033905090565b611186838383600161193a565b505050565b600080611197846118fd565b9050600073ffffffffffffffffffffffffffffffffffffffff168373ffffffffffffffffffffffffffffffffffffffff16146111d9576111d8818486611aff565b5b600073ffffffffffffffffffffffffffffffffffffffff168173ffffffffffffffffffffffffffffffffffffffff161461126a5761121b60008560008061193a565b6001600360008373ffffffffffffffffffffffffffffffffffffffff1673ffffffffffffffffffffffffffffffffffffffff168152602001908152602001600020600082825403925050819055505b600073ffffffffffffffffffffffffffffffffffffffff168573ffffffffffffffffffffffffffffffffffffffff16146112ed576001600360008773ffffffffffffffffffffffffffffffffffffffff1673ffffffffffffffffffffffffffffffffffffffff168152602001908152602001600020600082825401925050819055505b846002600086815260200190815260200160002060006101000a81548173ffffffffffffffffffffffffffffffffffffffff021916908373ffffffffffffffffffffffffffffffffffffffff160217905550838573ffffffffffffffffffffffffffffffffffffffff168273ffffffffffffffffffffffffffffffffffffffff167fddf252ad1be2c89b69c2b068fc378daa952ba7f163c4a11628f55a4df523b3ef60405160405180910390a4809150509392505050565b6113ad611171565b73ffffffffffffffffffffffffffffffffffffffff166113cb610aa9565b73ffffffffffffffffffffffffffffffffffffffff161461142a576113ee611171565b6040517f118cdaa7000000000000000000000000000000000000000000000000000000008152600401611421919061203a565b60405180910390fd5b565b6000600660009054906101000a900473ffffffffffffffffffffffffffffffffffffffff16905081600660006101000a81548173ffffffffffffffffffffffffffffffffffffffff021916908373ffffffffffffffffffffffffffffffffffffffff1602179055508173ffffffffffffffffffffffffffffffffffffffff168173ffffffffffffffffffffffffffffffffffffffff167f8be0079c531659141344cd1fd0a4f28419497f9722a3daafe3b4186f6b6457e060405160405180910390a35050565b600073ffffffffffffffffffffffffffffffffffffffff168273ffffffffffffffffffffffffffffffffffffffff160361156357816040517f5b08ba1800000000000000000000000000000000000000000000000000000000815260040161155a919061203a565b60405180910390fd5b80600560008573ffffffffffffffffffffffffffffffffffffffff1673ffffffffffffffffffffffffffffffffffffffff16815260200190815260200160002060008473ffffffffffffffffffffffffffffffffffffffff1673ffffffffffffffffffffffffffffffffffffffff16815260200190815260200160002060006101000a81548160ff0219169083151502179055508173ffffffffffffffffffffffffffffffffffffffff168373ffffffffffffffffffffffffffffffffffffffff167f17307eab39ab6107e8899845ad3d59bd9653f200f220920489ca2b5937696c31836040516116549190611ec9565b60405180910390a3505050565b60008373ffffffffffffffffffffffffffffffffffffffff163b1115611812578273ffffffffffffffffffffffffffffffffffffffff1663150b7a026116a5611171565b8685856040518563ffffffff1660e01b81526004016116c79493929190612a26565b6020604051808303816000875af192505050801561170357506040513d601f19601f820116820180604052508101906117009190612a87565b60015b611787573d8060008114611733576040519150601f19603f3d011682016040523d82523d6000602084013e611738565b606091505b50600081510361177f57836040517f64a0ae92000000000000000000000000000000000000000000000000000000008152600401611776919061203a565b60405180910390fd5b805181602001fd5b63150b7a0260e01b7bffffffffffffffffffffffffffffffffffffffffffffffffffffffff1916817bffffffffffffffffffffffffffffffffffffffffffffffffffffffff19161461181057836040517f64a0ae92000000000000000000000000000000000000000000000000000000008152600401611807919061203a565b60405180910390fd5b505b50505050565b606060405180602001604052806000815250905090565b60606000600161183e84611bc3565b01905060008167ffffffffffffffff81111561185d5761185c6121e1565b5b6040519080825280601f01601f19166020018201604052801561188f5781602001600182028036833780820191505090505b509050600082602001820190505b6001156118f2578080600190039150507f3031323334353637383961626364656600000000000000000000000000000000600a86061a8153600a85816118e6576118e5612ab4565b5b0494506000850361189d575b819350505050919050565b60006002600083815260200190815260200160002060009054906101000a900473ffffffffffffffffffffffffffffffffffffffff169050919050565b80806119735750600073ffffffffffffffffffffffffffffffffffffffff168273ffffffffffffffffffffffffffffffffffffffff1614155b15611aa7576000611983846110ac565b9050600073ffffffffffffffffffffffffffffffffffffffff168373ffffffffffffffffffffffffffffffffffffffff16141580156119ee57508273ffffffffffffffffffffffffffffffffffffffff168173ffffffffffffffffffffffffffffffffffffffff1614155b8015611a0157506119ff8184610f28565b155b15611a4357826040517fa9fbf51f000000000000000000000000000000000000000000000000000000008152600401611a3a919061203a565b60405180910390fd5b8115611aa557838573ffffffffffffffffffffffffffffffffffffffff168273ffffffffffffffffffffffffffffffffffffffff167f8c5be1e5ebec7d5bd14f71427d1e84f3dd0314c0f7b2291e5b200ac8c7c3b92560405160405180910390a45b505b836004600085815260200190815260200160002060006101000a81548173ffffffffffffffffffffffffffffffffffffffff021916908373ffffffffffffffffffffffffffffffffffffffff16021790555050505050565b611b0a838383611d16565b611bbe57600073ffffffffffffffffffffffffffffffffffffffff168373ffffffffffffffffffffffffffffffffffffffff1603611b7f57806040517f7e273289000000000000000000000000000000000000000000000000000000008152600401611b7691906120d0565b60405180910390fd5b81816040517f177e802f000000000000000000000000000000000000000000000000000000008152600401611bb5929190612ae3565b60405180910390fd5b505050565b600080600090507a184f03e93ff9f4daa797ed6e38ed64bf6a1f0100000000000000008310611c21577a184f03e93ff9f4daa797ed6e38ed64bf6a1f0100000000000000008381611c1757611c16612ab4565b5b0492506040810190505b6d04ee2d6d415b85acef81000000008310611c5e576d04ee2d6d415b85acef81000000008381611c5457611c53612ab4565b5b0492506020810190505b662386f26fc100008310611c8d57662386f26fc100008381611c8357611c82612ab4565b5b0492506010810190505b6305f5e1008310611cb6576305f5e1008381611cac57611cab612ab4565b5b0492506008810190505b6127108310611cdb576127108381611cd157611cd0612ab4565b5b0492506004810190505b60648310611cfe5760648381611cf457611cf3612ab4565b5b0492506002810190505b600a8310611d0d576001810190505b80915050919050565b60008073ffffffffffffffffffffffffffffffffffffffff168373ffffffffffffffffffffffffffffffffffffffff1614158015611dce57508273ffffffffffffffffffffffffffffffffffffffff168473ffffffffffffffffffffffffffffffffffffffff161480611d8f5750611d8e8484610f28565b5b80611dcd57508273ffffffffffffffffffffffffffffffffffffffff16611db583611134565b73ffffffffffffffffffffffffffffffffffffffff16145b5b90509392505050565b60405180608001604052806060815260200160608152602001600073ffffffffffffffffffffffffffffffffffffffff168152602001600081525090565b6000604051905090565b600080fd5b600080fd5b60007fffffffff0000000000000000000000000000000000000000000000000000000082169050919050565b611e5e81611e29565b8114611e6957600080fd5b50565b600081359050611e7b81611e55565b92915050565b600060208284031215611e9757611e96611e1f565b5b6000611ea584828501611e6c565b91505092915050565b60008115159050919050565b611ec381611eae565b82525050565b6000602082019050611ede6000830184611eba565b92915050565b600081519050919050565b600082825260208201905092915050565b60005b83811015611f1e578082015181840152602081019050611f03565b60008484015250505050565b6000601f19601f8301169050919050565b6000611f4682611ee4565b611f508185611eef565b9350611f60818560208601611f00565b611f6981611f2a565b840191505092915050565b60006020820190508181036000830152611f8e8184611f3b565b905092915050565b6000819050919050565b611fa981611f96565b8114611fb457600080fd5b50565b600081359050611fc681611fa0565b92915050565b600060208284031215611fe257611fe1611e1f565b5b6000611ff084828501611fb7565b91505092915050565b600073ffffffffffffffffffffffffffffffffffffffff82169050919050565b600061202482611ff9565b9050919050565b61203481612019565b82525050565b600060208201905061204f600083018461202b565b92915050565b61205e81612019565b811461206957600080fd5b50565b60008135905061207b81612055565b92915050565b6000806040838503121561209857612097611e1f565b5b60006120a68582860161206c565b92505060206120b785828601611fb7565b9150509250929050565b6120ca81611f96565b82525050565b60006020820190506120e560008301846120c1565b92915050565b60006020828403121561210157612100611e1f565b5b600061210f8482850161206c565b91505092915050565b60008060006060848603121561213157612130611e1f565b5b600061213f8682870161206c565b93505060206121508682870161206c565b925050604061216186828701611fb7565b9150509250925092565b61217481611eae565b811461217f57600080fd5b50565b6000813590506121918161216b565b92915050565b600080604083850312156121ae576121ad611e1f565b5b60006121bc8582860161206c565b92505060206121cd85828601612182565b9150509250929050565b600080fd5b600080fd5b7f4e487b7100000000000000000000000000000000000000000000000000000000600052604160045260246000fd5b61221982611f2a565b810181811067ffffffffffffffff82111715612238576122376121e1565b5b80604052505050565b600061224b611e15565b90506122578282612210565b919050565b600067ffffffffffffffff821115612277576122766121e1565b5b61228082611f2a565b9050602081019050919050565b82818337600083830152505050565b60006122af6122aa8461225c565b612241565b9050828152602081018484840111156122cb576122ca6121dc565b5b6122d684828561228d565b509392505050565b600082601f8301126122f3576122f26121d7565b5b813561230384826020860161229c565b91505092915050565b6000806000806080858703121561232657612325611e1f565b5b60006123348782880161206c565b94505060206123458782880161206c565b935050604061235687828801611fb7565b925050606085013567ffffffffffffffff81111561237757612376611e24565b5b612383878288016122de565b91505092959194509250565b600067ffffffffffffffff8211156123aa576123a96121e1565b5b6123b382611f2a565b9050602081019050919050565b60006123d36123ce8461238f565b612241565b9050828152602081018484840111156123ef576123ee6121dc565b5b6123fa84828561228d565b509392505050565b600082601f830112612417576124166121d7565b5b81356124278482602086016123c0565b91505092915050565b60008060006060848603121561244957612448611e1f565b5b60006124578682870161206c565b935050602084013567ffffffffffffffff81111561247857612477611e24565b5b61248486828701612402565b925050604084013567ffffffffffffffff8111156124a5576124a4611e24565b5b6124b186828701612402565b9150509250925092565b600080604083850312156124d2576124d1611e1f565b5b60006124e08582860161206c565b92505060206124f18582860161206c565b9150509250929050565b7f4e487b7100000000000000000000000000000000000000000000000000000000600052602260045260246000fd5b6000600282049050600182168061254257607f821691505b602082108103612555576125546124fb565b5b50919050565b60008190508160005260206000209050919050565b60006020601f8301049050919050565b600082821b905092915050565b6000600883026125bd7fffffffffffffffffffffffffffffffffffffffffffffffffffffffffffffffff82612580565b6125c78683612580565b95508019841693508086168417925050509392505050565b6000819050919050565b60006126046125ff6125fa84611f96565b6125df565b611f96565b9050919050565b6000819050919050565b61261e836125e9565b61263261262a8261260b565b84845461258d565b825550505050565b600090565b61264761263a565b612652818484612615565b505050565b5b818110156126765761266b60008261263f565b600181019050612658565b5050565b601f8211156126bb5761268c8161255b565b61269584612570565b810160208510156126a4578190505b6126b86126b085612570565b830182612657565b50505b505050565b600082821c905092915050565b60006126de600019846008026126c0565b1980831691505092915050565b60006126f783836126cd565b9150826002028217905092915050565b61271082611ee4565b67ffffffffffffffff811115612729576127286121e1565b5b612733825461252a565b61273e82828561267a565b600060209050601f831160018114612771576000841561275f578287015190505b61276985826126eb565b8655506127d1565b601f19841661277f8661255b565b60005b828110156127a757848901518255600182019150602085019450602081019050612782565b868310156127c457848901516127c0601f8916826126cd565b8355505b6001600288020188555050505b505050505050565b7f4e487b7100000000000000000000000000000000000000000000000000000000600052601160045260246000fd5b600061281382611f96565b915061281e83611f96565b9250828203905081811115612836576128356127d9565b5b92915050565b6000606082019050612851600083018661202b565b61285e60208301856120c1565b61286b604083018461202b565b949350505050565b600081905092915050565b600061288982611ee4565b6128938185612873565b93506128a3818560208601611f00565b80840191505092915050565b60006128bb828561287e565b91506128c7828461287e565b91508190509392505050565b7f5468697320656d706c6f79656520616c72656164792068617320746f6b656e2e600082015250565b6000612909602083611eef565b9150612914826128d3565b602082019050919050565b60006020820190508181036000830152612938816128fc565b9050919050565b7f4d6178696d756d206e756d626572206f6620746f6b656e73206578636565646560008201527f642e000000000000000000000000000000000000000000000000000000000000602082015250565b600061299b602283611eef565b91506129a68261293f565b604082019050919050565b600060208201905081810360008301526129ca8161298e565b9050919050565b600081519050919050565b600082825260208201905092915050565b60006129f8826129d1565b612a0281856129dc565b9350612a12818560208601611f00565b612a1b81611f2a565b840191505092915050565b6000608082019050612a3b600083018761202b565b612a48602083018661202b565b612a5560408301856120c1565b8181036060830152612a6781846129ed565b905095945050505050565b600081519050612a8181611e55565b92915050565b600060208284031215612a9d57612a9c611e1f565b5b6000612aab84828501612a72565b91505092915050565b7f4e487b7100000000000000000000000000000000000000000000000000000000600052601260045260246000fd5b6000604082019050612af8600083018561202b565b612b0560208301846120c1565b939250505056fea26469706673582212204507ce7551a255b2c030f0b3f5796c35c30107c0efc2365609191c0cf2aec5ef64736f6c63430008180033",
  "linkReferences": {},
  "deployedLinkReferences": {}
}